:100000009DC10000CCC10000CAC10000C8C10000F1
:10001000C6C10000C4C10000C2C10000C0C10000D0
:10002000BEC100000C9412190C9412190C941219F0
:10003000B6C10000B4C10000B2C10000B0C10000F0
:10004000AEC10000ACC10000AAC10000A8C1000000
:10005000A6C10000A4C10000A2C100000C94C818F1
:100060009EC100000C9492180C94681898C100006E
:1000700096C1000094C1000092C1000090C1000030
:100080008EC100008CC100008AC1000088C1000040
:100090000C9432180C94081882C100000C94791941
:1000A0007EC100007CC100007AC1000078C1000060
:1000B00076C1000074C1000072C1000070C1000070
:1000C0006EC100006CC100006AC1000068C1000080
:1000D00066C1000064C1000062C1000060C1000090
:1000E0005EC100004E414E494E495459494E46CDDD
:1000F000CCCC3D0AD7233C17B7D13877CC2B3295DF
:1001000095E6241FB14F0A000020410000C84200BC
:10011000401C4620BCBE4CCA1B0E5AAEC59D740086
:10012000407A10F35A00A0724E18090010A5D4E8C6
:100130000000E87648170000E40B54020000CA9A59
:100140003B000000E1F505000080969800000040AB
:10015000420F000000A086010000001027000000F0
:1001600000E803000000006400000000000A000036
:100170000000000100000000002C76D888DC674FEA
:100180000823DFC1DFAE59E1B1B796E5E3E453C61A
:100190003AE651997696E8E6C28426EB898C9B6212
:1001A000ED407C6FFCEFBC9C9F40F2BAA56FA5F4BC
:1001B00090055A2AF75C936B6CF9676DC11BFCE0E4
:1001C000E40D47FEF520E6B500D0ED902E03009437
:1001D0003577050080841E080000204E0A000000CC
:1001E000C80C333333330F986E12831141EF8D21D6
:1001F00014893BE65516CFFEE6DB18D1844B381B3D
:10020000F77C1D901DA4BBE424203284725E228101
:1002100000C9F124ECA1E53D2700002200250028BB
:10022000002B002E003100340002010000050108FF
:10023000010B0100000A0B02090C0D0E0807030454
:1002400001000000000000000000000000000000AD
:10025000000000000000000000000000000000128C
:10026000111000000000000000000000000000006D
:100270000000000000000000000000210024002712
:10028000002A002D003000330001010000040107A6
:10029000010A01000020002300260029002C002F65
:1002A00000320000010000030106010901050505F7
:1002B00005070508080808020202020A0A080804DD
:1002C000040404010101010101010103030303030B
:1002D000030303040707070C0C0C0C0C0C0C0C029A
:1002E00002020206060606060606060B0B0B0B0BA1
:1002F0000B0B0B010210202008081020401020409A
:1003000080020102010804020101020408102040D9
:1003100080804020100804020180040201804020F7
:100320001008040201080402010102040810204020
:1003300080010204081020408000061B11241FBE0B
:10034000CFEFD1E2DEBFCDBF00E00CBF2FE0A2ECCB
:10035000B5E001C01D92A234B207E1F715E0A0E0BC
:10036000B2E0E0E0F1E600E00BBF02C007900D92C2
:10037000A23CB107D9F711E0CEE9D1E000E006C018
:1003800021970109802FFE010E94122ECD39D1073D
:1003900080E00807A9F70E94941D0C947E3030CEAF
:1003A000CF92DF92EF92FF92CF93DF93EC016A013D
:1003B0007B01E889F98982E08083C11481EED80647
:1003C000E104F104A1F060E079E08DE390E0A701A1
:1003D00096010E94D42D21503109410951095695A9
:1003E000479537952795211580E1380798F0E889DA
:1003F000F989108260E874E88EE190E0A701960127
:100400000E94D42D21503109410951095695479533
:1004100037952795EC85FD853083EE85FF85208314
:10042000188EEC89FD8986E08083EA89FB898081CA
:1004300080618083EA89FB89808188608083EA8982
:10044000FB89808180688083EA89FB8980818F7D38
:100450008083DF91CF91FF90EF90DF90CF90089550
:10046000982F2091870681E0213208F043C08091C7
:1004700063068111FCCF8091860632E030936306DB
:10048000909362069FEF909361061092600620930E
:100490005F06A6E6B6E0EFE3F6E090E0291331C090
:1004A00010923E0690913E06880F892B80933E065F
:1004B00080913D06813049F510923D0680913E06BF
:1004C0008093BB008091BC0083FDF8CF85EC8093C6
:1004D000BC00809163068230E1F3809161068F3F1A
:1004E000B1F0809161068032A1F080916106803385
:1004F00091F084E0109265061092870610926406CF
:1005000008953D9131939F5FC9CF85EEE0CF80E0A4
:10051000F1CF82E0EFCF83E0EDCF1F93CF93DF9356
:10052000162FC9E3DFE0A981BA81988121E02093E9
:100530006406909386061092650610928706ED91E8
:10054000FC9111970190F081E02D682FCD01199554
:1005500089819A81DC01ED91FC910190F081E02D7F
:10056000612F199581E0DF91CF911F9179CF909103
:1005700063069111FCCF91E090936306909362061D
:100580002FEF2093610610926006260F20935F06DE
:1005900090933E0690913E06880F892B80933E06ED
:1005A00080913D068130F9F410923D0680913E061F
:1005B0008093BB008091BC0083FDF8CF85EC8093D5
:1005C000BC00809163068130E1F38091600686175C
:1005D00010F460916006AFE3B6E0EDE1F6E080E094
:1005E000861303C0089585EEEACF9D9191938F5FA6
:1005F000F7CF08950895FC0180818C3239F08A325A
:1006000029F081E0EF2B19F080E0089581E0089552
:10061000CF93DF93EC01EFDF81111FC098819134FC
:10062000B9F481E080935B0D80919D0D90919E0DBA
:10063000A0919F0DB091A00D80938D0D90938E0D84
:10064000A0938F0DB093900D81E0DF91CF9108952D
:100650009635D9F710925B0DF7CF80E0F6CFE9EA37
:10066000FBE030E020E041915191452B91F4F901FC
:10067000EE0FFF1FE755F44F9183808323583F4FC0
:10068000FC013583248321E937E03783268381E029
:1006900008952F5F3F4F2931310529F780E00895F4
:1006A000AF92BF92CF92DF92EF92FF920F931F9380
:1006B000CF93DF936C017B018B01040F151FEB01BE
:1006C0005E01AE18BF08C017D10759F06991D60175
:1006D000ED91FC910190F081E02DC6011995892BD7
:1006E00079F7C501DF91CF911F910F91FF90EF90A6
:1006F000DF90CF90BF90AF900895FC01538D448D53
:10070000252F30E0842F90E0821B930B541710F0BC
:10071000CF96089501970895FC01918D828D9817C9
:1007200061F0A28DAE0FBF2FB11D5D968C91928DA1
:100730009F5F9F73928F90E008958FEF9FEF0895D2
:10074000FC01918D828D981731F0828DE80FF11D9B
:10075000858D90E008958FEF9FEF0895FC01918DB6
:10076000228D892F90E0805C9F4F821B91098F73AF
:100770009927089587E49CE0F1DF21E0892B09F4B3
:1007800020E0822F089588E896E0E8DF21E0892BB9
:1007900009F420E0822F0895FC01A48DA80FB92F41
:1007A000B11DA35ABF4F2C91848D90E001968F7399
:1007B0009927848FA689B7892C93A089B1898C91B8
:1007C000837080648C93938D848D981306C0028807
:1007D000F389E02D80818F7D80830895EF92FF92D1
:1007E0000F931F93CF93DF93EC0181E0888F9B8D54
:1007F0008C8D98131AC0E889F989808185FF15C00E
:100800009FB7F894EE89FF896083E889F989808130
:100810008370806480839FBF81E090E0DF91CF91FF
:100820001F910F91FF90EF900895F62E0B8D10E021
:100830000F5F1F4F0F731127E02E8C8D8E110BC091
:100840000FB607FCFACFE889F989808185FFF5CFDB
:10085000CE01A2DFF2CFEB8DEC0FFD2FF11DE35A9D
:10086000FF4FF0829FB7F8940B8FEA89FB89808154
:100870008062D0CFCF93DF93EC01888D8823B1F0D5
:10088000AA89BB89E889F9898C9185FD03C080819B
:1008900086FD0CC00FB607FCF7CF8C9185FFF2CF19
:1008A000808185FFEDCFCE0177DFEACFDF91CF9159
:1008B000089580E090E0892B21F065DF81110E948E
:1008C000000080E090E0892B21F054DF81110E942C
:1008D000000080E090E0892B49F080E090E0892BD7
:1008E00029F00E94000081110E94000080E090E049
:1008F000892B49F080E090E0892B29F00E940000CC
:1009000081110C9400000895282F30E0F901ED5C6E
:10091000FD4F9491F901ED50FD4F449123553D4F0A
:10092000F9012491222309F435C0992311F1915042
:100930009231F8F4E92FF0E08827EE55FB4F8F4F06
:100940000C94122ED304D704B404CB04CF04B904FE
:10095000DA04E004E404EA04EE04F204F804FC041B
:10096000B904000506050A05809180008F77809301
:100970008000E22FF0E0EE0FFF1FE75EFD4FA59134
:10098000B4918FB7F894EC91611148C040954E2313
:100990004C938FBF0895809180008F7DE8CF809128
:1009A0008000877FE4CF84B58F7784BDE2CF84B5A4
:1009B0008F7DFBCF8091B0008F778093B000D9CF2F
:1009C0008091B0008F7DF9CF809190008F778093D8
:1009D0009000CFCF809190008F7DF9CF80919000D3
:1009E000877FF5CF8091A0008F778093A000C1CF43
:1009F0008091A0008F7DF9CF8091A000877FF5CFF7
:100A0000809120018F7780932001B3CF80912001C6
:100A10008F7DF9CF80912001877FF5CF4E2BB8CF06
:100A200010921C0610921B06109265061092870603
:100A30001092630681E08093620610923D0661E0A9
:100A400084E162DF61E085E15FDFE9EBF0E0808176
:100A50008E7F808380818D7F808388E48093B8003F
:100A600085E48093BC0089EF92E090931A0680930E
:100A700019068AEF92E0909318068093170608955E
:100A8000CF93DF9390E0FC01ED50FD4F249183550F
:100A90009D4FFC0184918823D1F090E0880F991F2D
:100AA000FC01E758FD4FA591B491FC01E75EFD4FB5
:100AB000C591D49161110EC09FB7F8948C91E22F2B
:100AC000E0958E238C932881E223E8839FBFDF91FA
:100AD000CF9108958FB7F894EC91E22BEC938FBFF0
:100AE000F6CF3FB7F89480910A0690910B06A0913B
:100AF0000C06B0910D0626B5A89B05C02F3F19F036
:100B00000196A11DB11D3FBFBA2FA92F982F88278D
:100B1000BC01CD01620F711D811D911D42E0660F68
:100B2000771F881F991F4A95D1F708958F929F923A
:100B3000AF92BF92CF92DF92EF92FF924B015C0196
:100B4000D0DF6B017C01CDDF6C197D098E099F0917
:100B5000683E734081059105B0F321E0821A910847
:100B6000A108B10888EEC80E83E0D81EE11CF11C74
:100B700081149104A104B10431F7FF90EF90DF904C
:100B8000CF90BF90AF909F908F9008952FB7F8941B
:100B900060910606709107068091080690910906FB
:100BA0002FBF0895089508958CBD9DBD08951F938E
:100BB000CF93DF93EC01FC01E254FF4F80819181E0
:100BC000009751F0DC01ED91FC910190F081E02D56
:100BD000DF91CF911F911994FE01EF53FF4F808158
:100BE0009181009779F7162FFE01ED53FF4F808119
:100BF0009181009769F4FE01EB53FF4F8081918151
:100C0000892B19F590E080E0DF91CF911F91089535
:100C1000FE01E25DFE4F208131E0309364062093B7
:100C200086061092650610928706DC01ED91FC9114
:100C30000190F081E02D1995019721F781E010DCFA
:100C40008111D9CF81E090E0DFCFFE01E853FF4F63
:100C500080819181A9DFC953DF4F888187FD02C060
:100C600060E052DE1EBD00000DB407FEFDCF8EB564
:100C7000888187FDE7CF61E047DEE4CF0895DC019E
:100C8000ED91FC910190F081E02D199485ED809318
:100C9000BC008091BC0084FDFCCF109263060895D7
:100CA0002091E205260F3327331F21323105ECF462
:100CB00020916306FC0190E080E0243069F082E03E
:100CC0000895A091E2052191AC014E535A4FA40F13
:100CD000B52FB11D2C930196861798F38091E205EC
:100CE000680F6093E20580E0089581E0089508951B
:100CF000E0911C0680911B06E81730F4F0E0E35EFB
:100D0000F94F808190E008958FEF9FEF08959091C3
:100D10001C0680911B062FEF3FEF981748F4E92F30
:100D2000F0E0E35EF94F208130E09F5F90931C0676
:100D3000C901089580911B0690911C06891B990B8F
:100D40000895CF92DF92EF92FF920F931F93CF936C
:100D5000DF937C01CB018A0120916406222389F074
:100D6000EB016B01C40ED51ECC15DD0561F0699158
:100D7000D701ED91FC910190F081E02DC70119950B
:100D8000F3CF642F8DDFC801DF91CF911F910F91B9
:100D9000FF90EF90DF90CF900895CF93DF931F9255
:100DA000CDB7DEB76983209164062223F9F0209144
:100DB0008706203258F021E030E0FC0133832283A3
:100DC00090E080E00F90DF91CF91089580916506CB
:100DD000E82FF0E0EA59F94F998190838F5F809373
:100DE00065068093870681E090E0ECCF61E0CE015C
:100DF000019656DFF8CF90E080E008958A579B4F28
:100E0000FC01808108958AEE92E008958BE093E0E2
:100E10000895FC0186A197A10895AF92BF92CF9249
:100E2000DF92EF92FF920F931F93CF93DF9300D047
:100E30001F921F92CDB7DEB7643671054CF0FC01EE
:100E4000EA57FB4F2081F12CE12C222309F476C0D4
:100E5000DA017B018C01BC01615E7D4FED91FC915B
:100E60000190F081E02DCA011995680128EEC21A9F
:100E70002DEFD20A2FEFD6012C93F801E75EFD4F3C
:100E80002EEF208331968083319690833196292FDF
:100E9000280F209520833196E0821696FC9245E03B
:100EA00050E030E020E0DC011696A417B50734F0DE
:100EB0006191260F311D4F5F5F4FF7CF7C01B8E086
:100EC000EB0EF11C800F911FFC01E15EFD4F2095A0
:100ED0002083E1E0EE16E2E0FE06B4F45601C5011F
:100EE0008C199D098E159F054CF5D80112968D9190
:100EF0009C91F50161915F01DC01ED91FC91019004
:100F0000F081E02D1995EBCF84E792E09A838983F5
:100F100083E08B838FE193E09D838C83D801ED91F7
:100F2000FC910190F081E02DAE014F5F5F4F67E0D3
:100F300070E0C8011995EE24EA94FE2CC7010F90C9
:100F40000F900F900F900F90DF91CF911F910F9105
:100F5000FF90EF90DF90CF90BF90AF9008950F93E8
:100F60001F93CF93DF9300D000D000D01F92CDB756
:100F7000DEB78C0188E692E09A8389831B821C820B
:100F80001D821E821F82188619861A86D801ED914D
:100F9000FC910190F081E02DAE014F5F5F4F6AE060
:100FA00070E0C8011995F2DDF801608771878287CA
:100FB00093872A960FB6F894DEBF0FBECDBFDF91A0
:100FC000CF911F910F910895CF92DF92EF92FF92F0
:100FD000DC011D921D921D921C921397FB0130E0C3
:100FE00020E0419150E0022E02C0440F551F0A94A8
:100FF000E2F7052E000C660B770BCD90DD90ED909F
:10100000FC9013974C295D296E297F294D935D93A0
:101010006D937C931397285F3F4F2032310509F77A
:10102000FF90EF90DF90CF900895FC0140835183B3
:1010300012821382089588E593E0089589E793E08A
:1010400008958FE893E0089580EB93E00895FB0105
:1010500020813181FC013383228382E090E0089576
:10106000FC0122818381FB012083818382E090E067
:1010700008958FEB93E0089580EE93E008954F92EA
:101080005F926F927F928F929F92AF92BF92EF92F8
:10109000FF920F931F93CF93DF9300D01F92CDB792
:1010A000DEB77C018B01CE0101968EDF89819A81AA
:1010B000AB81BC814C015D0124E0820E911CA11C1E
:1010C000B11CA8014D5F5F4FFA0124E030E0290117
:1010D000712C612C481459046A047B0428F4618142
:1010E00061932F5F3F4FF3CFF801E80FF91F138291
:1010F000F7015383428304960F900F900F900F9047
:10110000DF91CF911F910F91FF90EF90BF90AF9023
:101110009F908F907F906F905F904F900895AB015C
:10112000FC01A681B78164817581ED91FC911197D5
:101130000190F081E02DCD011994CF92DF92EF92D2
:10114000FF92DC0152966D917D918D919C91559706
:101150000E942A2D6B01CB0187599109813C914056
:10116000A0F580913A0F90913B0F2091390F31E01B
:1011700030936406209386061092650610928706C7
:10118000DC01ED91FC910190F081E02D66E0199574
:1011900070E060E080913A0F90913B0F70DD70E05D
:1011A00060E080913A0F90913B0F69DDB60180912C
:1011B0003A0F90913B0F63DD6D2D70E080913A0FF7
:1011C00090913B0F5CDD81E04BD9B601DD0C880BC3
:1011D000990B0E942E2B6093810770938207809356
:1011E0008307909384076FE677E087E597E0FF90A9
:1011F000EF90DF90CF9093CF80EF93E0089584E25B
:1012000092E0089581E194E0089582E394E00895E6
:101210004F925F926F927F928F929F92AF92BF9206
:10122000EF92FF920F931F93CF93DF9300D01F9203
:10123000CDB7DEB77C018B01FB018191BF01F701C6
:101240008283CE010196C0DE89819A81AB81BC8107
:101250004C015D01F5E08F0E911CA11CB11CA80191
:101260004C5F5F4FFA0125E030E02901712C612CC1
:10127000481459046A047B0428F4618161932F5F48
:101280003F4FF3CFF801E80FF91F1482F7015483A1
:10129000438305960F900F900F900F90DF91CF91A1
:1012A0001F910F91FF90EF90BF90AF909F908F9004
:1012B0007F906F905F904F90089585E494E008953B
:1012C00086E694E008954F925F926F927F928F929C
:1012D0009F92AF92BF92CF92DF92EF92FF920F93C5
:1012E0001F93CF93DF93CDB7DEB72C970FB6F8944B
:1012F000DEBF0FBECDBF7C018B01DB018C9190E086
:10130000F7019383828311962C91922B938382838E
:101310006E5F7F4FCE01019657DE89809A80AB8049
:10132000BC8024013501F6E04F0E511C611C711C7C
:1013300098012B5F3F4FF90186E090E0AC0170E02F
:1013400060E0441555056605770520F44181419319
:101350000196F4CFB4016A5F7F4FF801E80DF91DE3
:101360001582D70115963C932E931497600F711F29
:10137000CE01059629DEBAE08B0E911C4D805E8071
:101380006F807884C401092C000CAA0BBB0B5C0194
:101390006D01A40CB51CC61CD71CF801E80DF91D85
:1013A000AF01401B510B70E060E04A155B056C0516
:1013B0007D0538F42191AF0142505109DA012C9397
:1013C000EFCF480C591CB801640D751DFB01319716
:1013D0001082C4010197800F911FF70197838683C4
:1013E000CE010996F1DD92012C5F3F4F89849A84EA
:1013F000AB84BC84A901032E000C660B770B480D4F
:10140000591D6A1D7B1DF801E20FF31FCF01801BE0
:10141000910BB0E0A0E084179507A607B70728F462
:101420008191DF0112978C93F1CFC901880D991D2D
:10143000F801E80FF91FDF0111971C9221503109C3
:10144000020F131FD70119961C930E931897218131
:10145000428150E070E060E0BA0155274427522BEA
:101460002081422B2381722BF701428753876487A7
:10147000758704962C960FB6F894DEBF0FBECDBFCD
:10148000DF91CF911F910F91FF90EF90DF90CF9060
:10149000BF90AF909F908F907F906F905F904F9094
:1014A00008958FE794E0089580EA94E00895FC01A0
:1014B000DB014C9150E070E060E042835383648331
:1014C000758311968C911197582B428353836483B3
:1014D000758312968C911297682B42835383648391
:1014E000758313968C911397782B4283538364836F
:1014F000758314964C91149750E070E060E0468339
:1015000057836087718715968C911597582B468362
:1015100057836087718716968C911697682B468340
:1015200057836087718717968C91782B46835783F2
:101530006087718788E090E00895DC01FB011296D6
:101540008C911297808313968C91139781831496B4
:101550008C911497828315968C9115978383169698
:101560008C911697848317968C911797858318967C
:101570008C911897868319968C91878388E090E0E8
:101580000895CF92DF92EF92FF920F931F93FC0189
:10159000DB01C3800C2D10E030E020E045E0369503
:1015A0002795179507954A95D1F70D931D932D9380
:1015B0003C9313978481C82ED12CF12CE12C53E05D
:1015C000CC0CDD1CEE1CFF1C5A95D1F7C02AD12A89
:1015D000E22AF32ACD92DD92ED92FC921397858157
:1015E000082F10E030E020E06BE0000F111F221FF9
:1015F000331F6A95D1F70C291D292E293F290D93F8
:101600001D932D933C931397468150E070E060E06A
:1016100083E1440F551F661F771F8A95D1F7442732
:10162000552768777727042B152B262B372B0D93FF
:101630001D932D933C931397478150E070E060E039
:1016400094E0440F551F661F771F9A95D1F7407F8E
:10165000577066277727C680D12CF12CE12C84E0C7
:10166000F694E794D794C7948A95D1F74C295D29CD
:101670006E297F294115510561057105A1F040587A
:1016800053406109710997E1440F551F661F771F89
:101690009A95D1F7402B512B622B732B4D935D9371
:1016A0006D937C931397478150E070E060E0742F56
:1016B00066275527442744275527662770780D91BC
:1016C0001D912D913C911397402B512B622B732B25
:1016D0004D935D936D937C93139788E090E01F91F9
:1016E0000F91FF90EF90DF90CF900895EF92FF92CF
:1016F0000F931F93CF93DF938C017B01BC016E5F2F
:101700007F4FC7013EDFEC01B8016A5F7F4FC70121
:101710008C0F9D1F36DFC80FD91FB801665F7F4F42
:10172000C7018C0F9D1F2DDF8C0F9D1FDF91CF9167
:101730001F910F91FF90EF900895EF92FF920F93FA
:101740001F93CF93DF937C01EB010296CFDF8C01D7
:10175000BE01680F791FC7014096C8DF800F911F37
:10176000DF91CF911F910F91FF90EF9008950F930C
:101770001F93CF93DF938C01EC012696CE01DDDF22
:10178000D8019496ED91FC91CE01DF91CF911F91FC
:101790000F9119948F929F92AF92BF92CF92DF9246
:1017A000EF92FF92CF93DF93EC014A015B01DB01E3
:1017B000CA0147E1B595A795979587954A95D1F7C1
:1017C0009927AA27BB270097A105B10521F08058CA
:1017D0009C4FAF4FBF4F188219821A82B501A401E6
:1017E00025E0440F551F661F771F2A95D1F74B83BD
:1017F000B501A40133E075956795579547953A95DE
:10180000D1F74C83B501A401EBE075956795579529
:101810004795EA95D1F74D83B501A401F3E175959C
:10182000679557954795FA95D1F74F706C017D01F3
:1018300024E0CC0CDD1CEE1CFF1C2A95D1F74C29B2
:101840004E836C017D0134E0F594E794D794C794FE
:101850003A95D1F720E030E0A901C501B4010E941A
:10186000282B87FD0EC0CF8288E090E0DF91CF91DA
:10187000FF90EF90DF90CF90BF90AF909F908F90B0
:1018800008958C2D80688F83EFCFEF92FF920F9396
:101890001F93CF93DF937C018B01FC014281538125
:1018A00064817581C80176DFEC01F70146815781BB
:1018B00060857185C8018C0F9D1F6CDFC80FD91F13
:1018C000F7014285538564857585C8018C0F9D1F7E
:1018D00061DF8C0F9D1FDF91CF911F910F91FF90C2
:1018E000EF900895EF92FF920F931F93CF93DF93A2
:1018F0007C01EB010296C9DF8C01BE01680F791FE4
:10190000C7014096C2DF800F911FDF91CF911F91D9
:101910000F91FF90EF9008950F931F9390E0FC01BB
:10192000ED50FD4F6491FC01E355FD4FE491F0E073
:10193000EE0FFF1FED56FD4F8591949100E412E4E8
:101940002FE030E0462F0E949D1A61157105810538
:10195000910529F06F5F7F4F8F4F9F4F9F701F91B1
:101960000F910895CF92DF92EF92FF92CF93DF9382
:1019700026E636E646E65FE30E948D2B9B01AC012E
:1019800060E27CEB8EEB95E40E94C22C20E030E01C
:1019900040E85FE30E945D2C20E030E040E05FE340
:1019A0000E945E2C0E945B2D6B017C01C9E3DFE08D
:1019B00089819A81288131E03093640620938606DC
:1019C0001092650610928706DC01ED91FC91019062
:1019D000F081E02D60E0199581E00E94300261E025
:1019E00088810E94B70210921C0680931B06898191
:1019F0009A81DC01ED91FC910284F385E02D19952B
:101A0000C82F682F6F76606180E00E948D02C70149
:101A1000B6010E942F2D8EEF0E948D026C2F80E068
:101A20000E948D0265E070E080E090E07FD86C2F2E
:101A3000606A80E0DF91CF91FF90EF90DF90CF90D0
:101A40000C948D028F929F92AF92BF92CF92DF92B1
:101A5000EF92FF920F931F93CF93DF93EC010E94BD
:101A6000FB02811171C0CE010E94ED264B015C0189
:101A700020E137E240E050E00E94D42D2093180D81
:101A800024E6C22ED12CE12CF12CA70196010E9454
:101A9000D42D2093190DC501B401A70196010E9410
:101AA000D42D60931A0D6EE270E0CE010E94463094
:101AB0008C016CE270E0CE010E9446307C016AE24B
:101AC00070E0CE010E94463001151105C1F1970169
:101AD0008E159F0508F49C012115310581F102172F
:101AE000130768F5CE010E94CD2620E030E04AE7DA
:101AF00054E40E948D2B0E942F2D70931C0D609337
:101B00001B0D80919D0D90919E0DA0919F0DB09108
:101B1000A00D8093910D9093920DA093930DB0938F
:101B2000940D81E0DF91CF911F910F91FF90EF9085
:101B3000DF90CF90BF90AF909F908F9008951092BC
:101B40001C0D10921B0DDDCF80E0ECCF2F923F9249
:101B50004F925F926F927F928F929F92AF92BF92BD
:101B6000CF92DF92EF92FF920F931F93CF93DF9369
:101B7000CDB7DEB768970FB6F894DEBF0FBECDBF06
:101B80006C017C8B6B8B5E8B4D8B388F2F8B180190
:101B90000E94FB02182F811131C16EE270E0C60174
:101BA0000E9446307C01009709F496C0AC014C19A4
:101BB0005D09473051050CF08FC0B601CE0101968A
:101BC0000E946F30CE0101960E94ED264B015C0110
:101BD000C7010E94CD266F87788B898B9A8B6CE228
:101BE00070E0C7010E9446307C0101960E94FB0212
:101BF000811172C0C501B40124E630E040E050E03C
:101C00000E94F62D29013A01ACE9BFEF0E941C2E7B
:101C10009B01AC01280D391D4A1D5B1D2B873C879C
:101C20004D875E87F701018160E876E988E990E0F9
:101C30000E94B22D2CE330E040E050E00E94F62DEF
:101C400069017A01A301920160E876E988E990E0F0
:101C50000E94B22D6C0D7D1D8E1D9F1D0E942E2B8E
:101C60006B017C0120E836E948E15BE46F85788907
:101C700089899A890E948D2B20E030E040E752E468
:101C80000E94C22C9B01AC01C701B6010E945E2CD0
:101C90000E942A2D4B015C010E942E2B20E836E980
:101CA00048E15BE40E94C22C6B017C01802F8B7F9A
:101CB000833509F0A5C0B094A09490948094811CC1
:101CC000911CA11CB11CF7FAF094F7F8F0940335BD
:101CD000E9F0073509F47DC0812F68960FB6F894B6
:101CE000DEBF0FBECDBFDF91CF911F910F91FF904F
:101CF000EF90DF90CF90BF90AF909F908F907F90AC
:101D00006F905F904F903F902F90089520E030E0CB
:101D1000A901C701B6010E94AE2D18160CF04FC0E4
:101D200020E030E044EB52E4C701B6010E94AE2D42
:101D3000181694F220E030E044E353E4C701B60102
:101D40000E94AE2D181644F22D893E89232BE1F016
:101D5000A4E6B0E0A30192010E94442C2B853C85AF
:101D60004D855E85620F731F841F951F0E942E2B69
:101D70002F85388949895A890E945E2CED89FE8910
:101D800060837183828393832F89388D2115310578
:101D900029F0F90180829182A282B3822B893C8949
:101DA0002115310529F0F901C082D182E282F38246
:101DB0002114310411F0F101008311E08DCF20E0F6
:101DC00030E044EB52ECC701B6010E94282B87FD9E
:101DD00083CF20E030E0A901C701B6010E94AE2DFB
:101DE00018160CF4A7CF20E030E044E353ECC70111
:101DF000B6010E94282B87FD6FCFA6CF10E06CCFD5
:101E00000E3409F483CF053409F066CFE2CFEF92A8
:101E1000FF920F931F93CF93DF93CDB7DEB7DA9581
:101E20000FB6F894DEBF0FBECDBFFC010481158153
:101E30009E012F5F3F4F790101151105B9F41982F9
:101E4000F0929007E0928F076DE877E081E697E0E7
:101E500066D9D3950FB6F894DEBF0FBECDBFDF9124
:101E6000CF911F910F91FF90EF9008950F3F1105B3
:101E700010F00FEF10E0FC0160817181A801C70133
:101E80000E946F30F701E00FF11F1082D9CFCF927F
:101E9000DF92EF92FF920F931F93CF93DF937C011A
:101EA0008B016B018EE2C81A88EFD80AF801C19144
:101EB000D1918F0142E050E065ED74E0CE010E94C7
:101EC0006130892BD9F00C151D05C1F0FE01019080
:101ED0000020E9F73197AF014C1B5D0BB701CE0134
:101EE0000E946130892B11F7CE01DF91CF911F91B4
:101EF0000F91FF90EF90DF90CF900895D0E0C0E079
:101F0000F3CFFB0101900020E9F73197AF01461BA9
:101F1000570BDC01ED91FC910280F381E02D1994C7
:101F20008F929F92AF92BF920F931F93CF93DF93A5
:101F3000CDB7DEB7A1970FB6F894DEBF0FBECDBF09
:101F400019A2423008F44AE08E010F5D1F4F842E23
:101F5000912CB12CA12CA50194010E94D42DE62F27
:101F6000B901CA01EA30FCF4E05DD801EE938D01BD
:101F7000232B242B252B79F790E080E0109721F07C
:101F8000BD0188E896E0BDDFA1960FB6F894DEBFEC
:101F90000FBECDBFDF91CF911F910F91BF90AF903A
:101FA0009F908F900895E95CE0CFCF92DF92EF92FF
:101FB000FF92CF93DF936B017C016DE288E896E09E
:101FC0000E94EE03EC0166277727CB016C197D098F
:101FD0008E099F094AE0A4DF8C0F9D1FDF91CF91EE
:101FE000FF90EF90DF90CF9008950F931F93CF93C2
:101FF000DF93EC0188819981009759F02A813B8118
:102000002617370730F081E0DF91CF911F910F91B4
:1020100008958B016F5F7F4F0E94592F009759F0F1
:10202000998388831B830A832C813D81232B59F755
:10203000FC011082E8CF80E0E7CFEF92FF920F9390
:102040001F93CF93DF936115710541F480E0DF9119
:10205000CF911F910F91FF90EF9008954115510579
:10206000A9F07B01EC010C811D81040F151FB80143
:10207000BCDF882359F3288139818C819D81B70188
:10208000820F931F0E945A301D830C8381E0DFCFA3
:10209000CF93DF93EC0188819981009711F00E9422
:1020A000D02E198218821D821C821B821A82DF9117
:1020B000CF910895CF93DF93EC01FB0101900020B5
:1020C000E9F73197AF01461B570BB7DF811102C00B
:1020D000CE01DEDFCE01DF91CF910895CF93DF9364
:1020E000EC01FB014481558160817181A6DF811182
:1020F00002C0CE01CDDFCE01DF91CF910895EF92E6
:10210000FF920F931F93CF93DF93EC017B018A0122
:10211000BA016BDF81110AC0CE01BADFCE01DF91B7
:10212000CF911F910F91FF90EF9008951D830C8325
:10213000B701888199810E945A30F0CFFB0101904C
:102140000020E9F73197AF01461B570BD8CF0F930B
:102150001F93CF93DF9300D000D000D0CDB7DEB770
:102160008C01862FF801118210821382128215824F
:1021700014824AE0BE016F5F7F4F90E00E943A27D1
:10218000BE016F5F7F4FC801D9DF29960FB6F89463
:10219000DEBF0FBECDBFDF91CF911F910F9108958C
:1021A0000F931F93CF93DF93CDB7DEB762970FB630
:1021B000F894DEBF0FBECDBF8C01CB01F8011182B8
:1021C000108213821282158214824AE0BE016F5F70
:1021D0007F4F0E941327BE016F5F7F4FC801AEDFA4
:1021E00062960FB6F894DEBF0FBECDBFDF91CF91E0
:1021F0001F910F910895EF92FF920F931F93CF932A
:10220000DF93CDB7DEB7A1970FB6F894DEBF0FBE50
:10221000CDBF7C01CB01BA01F7011182108213827C
:102220001282158214828E010F5F1F4F24E046E058
:102230000E94B026009781F0BC01C7017FDFA19604
:102240000FB6F894DEBF0FBECDBFDF91CF911F91C7
:102250000F91FF90EF900895C7011ADFF0CFFB01B7
:10226000DC0111961C921E9213961C921E921297DC
:1022700015961C921E9214978617970741F060815D
:1022800071816115710519F04481558138CF089528
:10229000FC01118210821382128215821482FB01CA
:1022A00001900020E9F73197AF01461B570B27CF6C
:1022B000FC0180819181009711F00C94D02E08953B
:1022C0000C94D02EEF92FF920F931F93CF93DF9336
:1022D0007C018B01DC011296ED91FC91EF010990DC
:1022E0000020E9F72197CE1BDF0BAE0170E060E024
:1022F000C8010E941508F70162817381AE01C8010F
:1023000004960E943D30CE010496DF91CF911F913B
:102310000F91FF90EF9008952F923F924F925F920E
:102320006F927F928F929F92AF92BF92CF92DF92E5
:10233000EF92FF920F931F93CF93DF93CDB7DEB74A
:102340002E970FB6F894DEBF0FBECDBF8C016B0188
:10235000DB018D909D90AD90BC90FC0182819381BA
:10236000A481B58188159905AA05BB0570F4B4014F
:10237000660F771F660F771F828593850E94592FFE
:10238000D8011B969C938E931A97F80182829382B0
:10239000A482B582C60140E050E0BA01A4E0EA2E72
:1023A000F12C98012A5F3F4FDC011596EC911597AF
:1023B00016964C901697512C712C612C3201552495
:1023C00044245E2A1496EC9114974E2A1796EC91A9
:1023D0007E2AD7011701E4E02E0E311C710104960C
:1023E000F80182809380A480B580481559056A055C
:1023F0007B05A8F446825782608671861497A28472
:10240000B384AA0DBB1DE4E0BE2EF90101900D922C
:10241000BA94E1F74F5F5F4F6F4F7F4FC5CF848511
:102420009585A685B78584159505A605B70570F42D
:10243000B201660F771F660F771F848995890E9406
:10244000592FD80155969C938E935497F801448642
:10245000558666867786C601820D931D412C512CC8
:1024600032011C019801205F3F4FDC0111966C91F5
:10247000119712968C901297912CB12CA12C54018B
:1024800099248824962A6C91862A13966C91B62AF0
:10249000B4E0EB0EF11CF80144855585668577851F
:1024A0004416550666067706C0F4808A918AA28A89
:1024B000B38ABC0162197309A489B589A60FB71F35
:1024C00064E0F90101900D926A95E1F7BFEF4B1AB4
:1024D0005B0A6B0A7B0A0496C8CF86899789A08D10
:1024E000B18D88159905AA05BB0560F4B401660F86
:1024F000771F848D958D0E94592FD8015D969C93EE
:102500008E935C97F801868A978AA08EB18E412CB3
:10251000512C32011801FAE12F0E311CF801868985
:102520009789A08DB18D481659066A067B0608F07A
:102530005CC0B6016E0D7F1DCE0101960E94E407BE
:1025400097012C5F3F4F3E872D8789809A80AB8013
:10255000BC80C901032E000CAA0BBB0BAC01BD0152
:10256000480D591D6A1D7B1D49875A876B877C87DB
:10257000F901EC0DFD1D9F012C193D09B90190E0F9
:1025800080E029853A854B855C856217730784074F
:10259000950728F42191DF0112972C93ECCFED845D
:1025A000FE84E80CF91CF601EE0DFF1D3197108238
:1025B0008D859E8501978C0D9D1DD8015B969C9302
:1025C0008E935A97C201880F991F5C96ED91FC91EA
:1025D000E80FF91FD1018D919C9191838083BFEF0A
:1025E0004B1A5B0A6B0A7B0A99CFC7012E960FB66E
:1025F000F894DEBF0FBECDBFDF91CF911F910F9139
:10260000FF90EF90DF90CF90BF90AF909F908F9012
:102610007F906F905F904F903F902F9008952F92F2
:102620003F924F925F926F927F928F929F92AF9262
:10263000BF92CF92DF92EF92FF920F931F93CF93AF
:10264000DF93CDB7DEB7A6970FB6F894DEBF0FBE07
:10265000CDBF8C010E94C6054B015C019801255736
:102660003B4F3E8B2D8BF90180819181A281B381FB
:1026700075016401C81AD90AEA0AFB0AD701C60122
:10268000893F9A42A105B10510F0359710821801D3
:1026900034E8231A3BEF330AD1018D919C91892BA9
:1026A00079F0F801E157FB4F80819181A281B381DC
:1026B00088159905AA05BB0518F4F101118210824D
:1026C00098012C573B4F3A8B298BA80140585B4F00
:1026D0005C8B4B8BC8014896988F8F8BD801AA577B
:1026E000BB4FBC8FAB8FF801EC56FB4FFE8FED8FCD
:1026F000215F3F4F38A32F8F42505109588B4F878E
:1027000086599B4F9A8F898F1996BAA3A9A3A501C1
:1027100094012C5E3F4F4F4F5F4F2BA33CA34DA323
:102720005EA3F80184899589A689B789892B8A2BAC
:102730008B2BB9F5D80112968D919C91DC01ED910E
:10274000FC910284F385E02D19959C0197FF3DC013
:10275000F801EA57FB4F8081882301F17801B9E73E
:10276000EB1ABBEFFB0AF70180819181A281B38153
:10277000A5019401281B390B4A0B5B0BDA01C90137
:10278000853C9940A105B10548F0C8010E94AF07FA
:10279000D7018D929D92AD92BC92139790E080E00C
:1027A000B6C10E94C605681979098A099B09F80112
:1027B000C488D588E688F788C616D706E806F906DD
:1027C00008F0B8CF8EEF9FEFA2C1A989BA898D9189
:1027D0009C911197820F931F8D939C93F1014081DF
:1027E000518147305105F9F4A98DBA8D8D919C9195
:1027F0001197AC014F5F5F4F4D935C93800F911F1A
:10280000FC01208FAF85B8898D919C91119701971C
:102810008D939C93892B09F084CF88E090E0F1019F
:10282000918380837ECF4115510521F52F3F3105DE
:1028300081F481E090E091838083CBA0DCA0EDA0C7
:10284000FEA0A9A1BAA1CD92DD92ED92FC921397C0
:1028500068CF0E94C605681979098A099B096938F9
:1028600073418105910508F45CCFF801EA57FB4FED
:102870001082A8CF4130510589F42E3F310519F45B
:1028800082E090E0CCCF11821082EB8DFC8D8081B4
:10289000811147CFC8010E94AF0743CF4230510595
:1028A00091F4AF85B8892D933C93E98DFA8D11820F
:1028B000108283E090E0D1018D939C93E989FA899D
:1028C000318320832ECF4330510571F4322F2227DC
:1028D000AF85B8898D919C911197280F391F2D9341
:1028E0003C9384E090E09BCF4430510579F460E064
:1028F00071E00E94C12D8F3F910529F485E090E0A1
:10290000918380830ECF118210820BCF4530510509
:1029100069F4AB89BC892D933C9386E090E0918368
:102920008083A989BA892D933C93FBCE463051050B
:10293000A1F4322F2227EB89FC8980819181280F15
:10294000391F3183208387E090E0D1018D939C93E0
:10295000EF85F889808191815DCF4830510509F07C
:10296000E0CE1182108260E071E00E94C12D8F3FA5
:10297000910509F0D6CEAB89BC89ED91FC913097D9
:1029800009F0DEC0C8010E94AF078CE592E09A838F
:1029900089831C821B8288E295E09E838D839887C1
:1029A0008F839A8789871B861C861D861E866801F1
:1029B000B8EECB1ABBEFDB0A7801E6EBEE1AEBEFD1
:1029C000FE0A412C22E0522E612C712CD601ED9191
:1029D000FC913097A9F1848195819C838B838081C0
:1029E00091819E838D8382819381DC01ED91FC91A5
:1029F0000480F581E02D199598878F83D601ED919C
:102A0000FC9182819381DC01ED91FC910680F7813C
:102A1000E02D19959A8789874B865C866D867E8620
:102A2000D601ED91FC9160857185D801ED91FC9105
:102A30000190F081E02DAE014F5F5F4FC801199505
:102A4000B2E0CB0ED11CEC14FD0409F0BFCF412C39
:102A500092E0592E612C712CF701A081B181109761
:102A6000E1F112968D919C9113979C838B83149620
:102A70008D919C9115979E838D83ED91FC9111977B
:102A80000480F581E02DCD01199598878F83D701BA
:102A90008D919C91DC01ED91FC910680F781E02DF8
:102AA00019959A8789874B865C866D867E86D801C4
:102AB000ED91FC91C080D180F70180819181DC0192
:102AC000ED91FC910280F381E02D1995AE014F5FED
:102AD0005F4FBC01C801F6011995F2E0EF0EF11C41
:102AE000E214F30409F0B8CFF801EA57FB4F81E094
:102AF0008083319680829182A282B382AD89BE8921
:102B00008D929D92AD92BC9213978FEF9FEFA696F8
:102B10000FB6F894DEBF0FBECDBFDF91CF911F91EE
:102B20000F91FF90EF90DF90CF90BF90AF909F906C
:102B30008F907F906F905F904F903F902F9008956F
:102B4000EA30F10509F0A1C088E692E09A83898312
:102B50001B821C821D821E821F82188619861A867D
:102B60000E94C605F801C084D184E284F3849B01ED
:102B7000AC012C193D094E095F0969017A016F8981
:102B8000788DCE0101960E94570AC701B60128EE42
:102B900033E040E050E00E94D42D69017A019B01AE
:102BA000AC018B819C81AD81BE818C0D9D1DAE1DC4
:102BB000BF1D8B839C83AD83BE8360E472E48FE092
:102BC00090E00E94B22DCF80D884E984FA84DC01A1
:102BD000CB018C0D9D1DAE1DBF1D8F839887A987CE
:102BE000BA870E94C605CF80D884E984FA8436E388
:102BF000D31A35E6E30A34ECF30A28EE33E040E07A
:102C000050E00E94D42D29013A019B01AC0160E4FF
:102C100072E48FE090E00E94B22DA7019601261B7E
:102C2000370B480B590BCA01B9012B813C814D81EF
:102C30005E81215031094109510969017A01C418A5
:102C4000D508E608F7082601370120E03AEC4AE902
:102C50005BE30E94D42D420E531E641E751ED801E4
:102C60001C964D925D926D927C921F97F801608B3D
:102C7000718B828B938B0E94C605AD89BE896D9343
:102C80007D938D939C9313974CCDE630F10551F4D1
:102C90006F89788D8D8D9E8D3FDB81E0EF8DF8A162
:102CA00080833FCDEB30F10521F4AB8DBC8D1C92C0
:102CB00038CDEF53FE4FEE0FFF1FE00FF11F808165
:102CC0009181009709F42DCDDC01ED91FC910190EB
:102CD000F081E02D6F89788D199523CD4F925F9209
:102CE0006F927F928F929F92AF92BF92CF92DF921C
:102CF000EF92FF920F931F93CF93DF93EC017B0131
:102D00008A81FB0180838B8181838C8182838D8189
:102D100083833496412C512C320104E010E09F0152
:102D20002F5F3F4FCF010296DF011396A8010C5F82
:102D30001F4F8A809B80AC80BD80481459046A0470
:102D40007B04C8F4AA85BB85A40FB51F14974C91CA
:102D500011962C91119712969C91129713968C9123
:102D600040832183928383838FEF481A580A680A2D
:102D7000780A3496D4CF4C8540834D85F901408341
:102D80002E85FC0120838F858C93F701E00FF11FC6
:102D9000412C512C3201AF019F012F5F3F4FCF01DA
:102DA0000296DF0113960C5F1F4F8C849D84AE84C6
:102DB000BF84481459046A047B04D8F4CF01841BEF
:102DC000950BAC89BD89A80FB91F3C9111962C9128
:102DD000119712969C91129713968C9130832183B0
:102DE000928383838FEF481A580A680A780A3496C8
:102DF000D3CF4E8940834F89F9014083288DFC0150
:102E00002083898D8C93412C512C32018E899F898E
:102E1000A88DB98D481659066A067B0680F55201C1
:102E2000AA0CBB1CEC8DFD8DEA0DFB1DA081B181B0
:102E3000FD0101900020E9F731976F01CA1ADB0A02
:102E4000A60170E060E0C701800F911F0E94150885
:102E50000C5F1F4F8C8D9D8DA80EB91EF5016081F2
:102E60007181A601C701800F911F0E943D300C0D9A
:102E70001D1DFFEF4F1A5F0A6F0A7F0AC7CFC801F7
:102E8000DF91CF911F910F91FF90EF90DF90CF9046
:102E9000BF90AF909F908F907F906F905F904F907A
:102EA0000895EF92FF920F931F93CF93DF938C01BE
:102EB0007B01DC0112962C911297FB012193CF012B
:102EC0001396ED91FC91EF0109900020E9F721970D
:102ED000CE1BDF0BAE0170E060E00E941508D80148
:102EE00013966D917C91AE01C70105960E943D300D
:102EF000CE010596DF91CF911F910F91FF90EF903A
:102F00000895CF92DF92EF92FF920F931F93CF938A
:102F1000DF936C01EB01DC0112968C911297888390
:102F200013968C91139789831496ED91FC91DF0190
:102F30000D900020E9F78D01015011090E1B1F0BA8
:102F4000A80170E060E0CE0102960E941508F6012B
:102F500064817581A801CE0106960E943D30C801AA
:102F60000696F601A681B781FD0101900020E9F7E0
:102F700031977F01EA1AFB0AA70170E060E08C0F2D
:102F80009D1F0E941508065F1F4FD60116966D9172
:102F90007C91A701CE01800F911F0E943D300E0D44
:102FA0001F1DF601A085B185FD0101900020E9F704
:102FB00031977F01EA1AFB0AA70170E060E0CE01B9
:102FC000800F911F0E9415080C5F1F4FD6011896A5
:102FD0006D917C91A701CE01800F911F0E943D3021
:102FE000C701800F911FF6016285438534852585D1
:102FF000C80FD91F688349833A832B830496DF91D6
:10300000CF911F910F91FF90EF90DF90CF90089597
:103010001F920F920FB60F9211240BB60F922F939F
:103020003F934F935F936F937F938F939F93AF9350
:10303000BF93EF93FF9387E49CE00E94CC03FF9142
:10304000EF91BF91AF919F918F917F916F915F9120
:103050004F913F912F910F900BBE0F900FBE0F908D
:103060001F9018951F920F920FB60F9211240BB656
:103070000F922F938F939F93EF93FF93E091570CB1
:10308000F091580C8081E0915D0CF0915E0C82FD16
:103090001DC090818091600C8F5F8F732091610CB7
:1030A000821741F0E091600CF0E0E95BF34F958FFF
:1030B0008093600CFF91EF919F918F912F910F90D2
:1030C0000BBE0F900FBE0F901F9018958081F2CF0E
:1030D0001F920F920FB60F9211240BB60F922F93DF
:1030E0003F934F935F936F937F938F939F93AF9390
:1030F000BF93EF93FF9388E896E00E94CC03FF9183
:10310000EF91BF91AF919F918F917F916F915F915F
:103110004F913F912F910F900BBE0F900FBE0F90CC
:103120001F9018951F920F920FB60F9211240BB695
:103130000F922F938F939F93EF93FF93E0919806B5
:10314000F09199068081E0919E06F0919F0682FDA4
:103150001DC090818091A1068F5F8F732091A20680
:10316000821741F0E091A106F0E0E857F94F958F02
:103170008093A106FF91EF919F918F912F910F90D6
:103180000BBE0F900FBE0F901F9018958081F2CF4D
:103190001F920F920FB60F9211242F933F938F938C
:1031A0009F93AF93BF938091060690910706A091DD
:1031B0000806B09109063091050623E0230F2D374C
:1031C00058F50196A11DB11D2093050680930606B2
:1031D00090930706A0930806B093090680910A060B
:1031E00090910B06A0910C06B0910D060196A11DC1
:1031F000B11D80930A0690930B06A0930C06B09322
:103200000D06BF91AF919F918F913F912F910F909C
:103210000FBE0F901F90189526E8230F0296A11D50
:10322000B11DD2CF1F920F920FB60F9211240BB681
:103230000F922F933F938F939F93AF93BF93CF930F
:10324000DF93EF93FF93E0911106F0911206309710
:1032500049F0A685B7859585868D81FF14C08C9130
:103260008923A1F4FF91EF91DF91CF91BF91AF91AD
:103270009F918F913F912F910F900BBE0F900FBE9A
:103280000F901F9018958C91892361F7A389B489B9
:103290009C918589809589238C938689978901974C
:1032A000F1F7208D318DC685D78588E0D90111973A
:1032B000F1F798818150D1F78091100690E0019646
:1032C0008F73992720910F06281779F09091100697
:1032D00080931006828D938D0197F1F7A389B489AD
:1032E0008C919589892B8C93BDCF868D8160868F3B
:1032F000F1CF1F920F920FB60F9211240BB60F92BF
:103300002F933F934F935F936F937F938F939F93ED
:10331000AF93BF93EF93FF938091B900887F80367E
:1033200009F44DC008F040C0883209F4A9C028F55E
:10333000803109F49DC0C8F4882309F4FBC08830AB
:1033400009F496C0FF91EF91BF91AF919F918F913A
:103350007F916F915F914F913F912F910F900BBE95
:103360000F900FBE0F901F901895883109F488C0F8
:10337000803241F78093610614C0803409F49DC007
:1033800040F48033B9F38833E9F68093610685EC25
:10339000B0C0803509F485C0883509F496C08834FA
:1033A00089F60E944606CECF883909F48CC038F5DC
:1033B000883729F050F4883611F0803719F683E009
:1033C000809363061092040657C0883809F47BC0C6
:1033D000803919F0803809F0B5CF80910406803229
:1033E00008F071C0E091040681E08E0F809304061E
:1033F0008091BB00F0E0EC51FA4F80833DC0803BF0
:1034000039F0E0F4803A09F479C0883A09F09ACFAB
:1034100084E0809363061092E3051092E205E09148
:103420001906F0911A0619958091E20581110FC0D5
:1034300081E08093E2051092C20509C0803C09F446
:10344000A6CF883C09F4A3CF883B09F07BCFE0915D
:10345000E30581E08E0F8093E305F0E0EE53FA4F31
:1034600080818093BB009091E3058091E20529C0A3
:1034700080913E068093BB0085EC8093BC0062CFB8
:103480009091600680915F06981758F5E09160066C
:1034900081E08E0F80936006F0E0E15CF94F80815F
:1034A000E9CFE091600681E08E0F80936006809105
:1034B000BB00F0E0E15CF94F808390916006809161
:1034C0005F069817C8F285E8D8CFE091600681E0E2
:1034D0008E0F809360068091BB00F0E0E15CF94FB5
:1034E00080838091620681115CCF81E080933D06EC
:1034F00084EA8093BC001092630624CF85EC80930D
:10350000BC001092630680910406803230F4E09192
:103510000406F0E0EC51FA4F10826091040670E06E
:10352000E0911706F091180684EE95E01995109237
:10353000040608CF1092610634CFCF92DF92EF924B
:10354000FF920F931F93E82FF92F05C00150110927
:103550002109310961F1908196239417B9F305C0CF
:10356000015011092109310911F190819623941319
:10357000F7CFC12CD12CE12CF12C0AC08FEFC81A47
:10358000D80AE80AF80A0C151D052E053F0579F042
:1035900080818623841791F36C2D7D2D8E2D9F2D98
:1035A0001F910F91FF90EF90DF90CF90089560E012
:1035B00070E080E090E01F910F91FF90EF90DF901E
:1035C000CF900895FC0180E592E09183808384E4AC
:1035D00092E093838283148215821682178210866A
:1035E0001186128613861486158616861786918B89
:1035F000808B128A138A148A158A168A178A108E6B
:10360000118E128E138E148E158E089510924A0C00
:103610001092490C88EE93E0A0E0B0E080934B0C50
:1036200090934C0CA0934D0CB0934E0C20E832E0DC
:103630003093480C2093470C4DEC50E05093540CC1
:103640004093530C4CEC50E05093560C4093550C67
:1036500048EC50E05093580C4093570C49EC50E024
:1036600050935A0C4093590C4AEC50E050935C0C28
:1036700040935B0C4EEC50E050935E0C40935D0C1D
:103680001092600C1092610C1092620C1092630CFC
:1036900010928B0610928A0680938C0690938D066A
:1036A000A0938E06B0938F063093890620938806E8
:1036B00025EC30E0309395062093940624EC30E01E
:1036C000309397062093960620EC30E030939906CD
:1036D0002093980621EC30E030939B0620939A06C5
:1036E00022EC30E030939D0620939C0626EC30E0DF
:1036F00030939F0620939E061092A1061092A20678
:103700001092A3061092A4061092300F10922F0F61
:103710008093310F9093320FA093330FB093340FF7
:1037200082E992E090932E0F80932D0F8DE29FE01F
:1037300090933B0F80933A0F80E48093390F10925F
:10374000E70C1092E60C8AEB92E09093E50C8093E4
:10375000E40C1092E90C1092E80C1092EA0C109212
:10376000EB0C1092EC0C84E1EDEEFCE0DF01982F05
:103770001D929A95E9F71092010D1092020D109288
:10378000030DE4E0FDE0DF011D928A95E9F78CE08E
:10379000E6E0F2E0ABE6BDE001900D928A95E1F73C
:1037A0008AE0E2E1F2E0A7E7BDE001900D928A95A0
:1037B000E1F788E0ECE1F2E0A1E8BDE001900D92D4
:1037C0008A95E1F780E094E9A5E3B7E78093890D56
:1037D00090938A0DA0938B0DB0938C0D80938D0DDB
:1037E00090938E0DA0938F0DB093900D8093910DBB
:1037F0009093920DA093930DB093940D8093950D9B
:103800009093960DA093970DB093980D8093990D7A
:1038100090939A0DA0939B0DB0939C0D80939D0D5A
:1038200090939E0DA0939F0DB093A00D1092A40DA8
:103830008FEF8093AB0D91E59093AC0D1092AD0D91
:103840008093330E1092340E1092350E1092260F84
:103850001092A30D1092A20D1092A80D1092A70D18
:103860001092AA0D1092A90D10922B0F1092A10D7B
:103870001092260F86E39EE09093280F8093270FE7
:103880008EEA9EE090932A0F8093290F10925E0D8E
:1038900010925D0D10925C0D10921F0D10921E0D76
:1038A00010921D0D10921A0D1092190D1092180DF4
:1038B00010925A0D1092590D1092580D10925B0DE6
:1038C00010921C0D10921B0D1092540D1092550D5C
:1038D0001092560D1092570D1092500D1092510DDE
:1038E0001092520D1092530D10924C0D10924D0DDE
:1038F00010924E0D10924F0D1092480D1092490DDE
:1039000010924A0D10924B0D1092440D1092450DDD
:103910001092460D1092470D1092400D1092410DDD
:103920001092420D1092430D10923C0D10923D0DDD
:1039300010923E0D10923F0D1092380D1092390DDD
:1039400010923A0D10923B0D1092240D1092250DFD
:103950001092260D1092270D1092200D1092210D1D
:103960001092220D1092230D87E49CE09093A60DF7
:103970008093A50D0E94C6056093430C7093440C80
:103980008093450C9093460C80EB92E090939207C5
:103990008093910788E896E090939407809393072B
:1039A00080E091EEA0E0B0E08093950790939607B9
:1039B000A0939707B09398071092170C84EA92E0AF
:1039C0009093260C8093250C10923B0C10923C0C8B
:1039D00010923D0C10923E0C1092420C1092410C31
:1039E000E9EAFBE011921192BBE0EB3DFB07D1F756
:1039F000EBEDFBE0119211928CE0ED30F807D1F77E
:103A0000E9EAF7E089EA99E011928E179F07E1F75A
:103A1000E9EAF9E011929BE0E93AF907D9F7109247
:103A2000270C1092280C1092290C10922A0C10923C
:103A3000300C10922F0C1092310C1092320C10920C
:103A4000330C1092340C10923A0C1092390C1092E4
:103A5000A5071092A6071092A7071092A80782EE5A
:103A600092E090938E0780938D0788E295E0909383
:103A7000900780938F078FE697E0A4DD86ED92E0B4
:103A800090936C0780936B0710926E0710926D07EE
:103A90008EEA94E090936207809361078DE897E047
:103AA000909364078093630710926A0710926907E6
:103AB00082EB94E090935807809357078FE697E046
:103AC00090935A07809359071092600710925F07EE
:103AD00088EB94E090934E0780934D078BE697E038
:103AE0009093500780934F071092560710925507F6
:103AF0008AEC92E090932607809325078BE297E06B
:103B000061DD8DE998E090934A078093490781E051
:103B100090E090934C0780934B078BEB94E090934D
:103B20002A07809329070895CF93DF93CDB7DEB797
:103B3000A4970FB6F894DEBF0FBECDBF789484B5BE
:103B4000826084BD84B5816084BD85B5826085BD99
:103B500085B5816085BD80916E00816080936E0027
:103B60001092810080918100826080938100809119
:103B700081008160809381008091800081608093CA
:103B800080008091B10084608093B1008091B0008A
:103B900081608093B0008091910082608093910059
:103BA000809191008160809391008091900081606C
:103BB000809390008091A10082608093A100809109
:103BC000A10081608093A1008091A000816080931A
:103BD000A0008091210182608093210180912101C8
:103BE0008160809321018091200181608093200178
:103BF00080917A00846080937A0080917A0082605C
:103C000080937A0080917A00816080937A0080911D
:103C10007A00806880937A001092C10061E08DE0A4
:103C20000E94400540919507509196076091970733
:103C30007091980780919307909194070E94D0010A
:103C400010920E0C10920D0C1092100C10920F0C82
:103C50001092140C1092130C1092120C1092110C62
:103C600081E697E00E942F0387E597E00E942F03EB
:103C70008DE497E00E942F03EBEDFBE090E080E005
:103C800021913191232B09F044C2FC01EE0FFF1F5B
:103C9000E552F44F25E237E0318320838C599F4F62
:103CA000909328078093270780E092ECA1E0B0E092
:103CB0008093950790939607A0939707B0939807E2
:103CC00040E052EC61E070E088E896E00E94D001AC
:103CD000E091A20DF091A30D309709F499C0138ED5
:103CE000128E118E108E178A168A8DE991E0958FAB
:103CF000848F848596EF980F943048F02EEC280F2F
:103D0000243028F022EC280F283008F055C02DEB85
:103D100030E0378B268B2BE931E0318F208F2CE27E
:103D200031E0338F228F943050F02EEC280F243066
:103D300030F022EC280FB0E0A0E0283010F4A8E624
:103D4000B0E02C91943028F032EC380F383008F481
:103D5000E6C131E0232B943048F09EEC980F94306C
:103D600028F08E53B0E0A0E0883010F4A8E6B0E070
:103D70002C93248536EF320F343008F4D2C18EEC08
:103D8000820F843008F4CDC182EC820F883008F0B5
:103D9000CBC18DE690E0948B838B343008F0C7C1A3
:103DA0002650330B81E001C0880F2A95EAF7858BF6
:103DB000848D958D0197F1F7828D938D892B41F13B
:103DC0004091110650911206E417F50709F14115CB
:103DD000510569F0DA0153962D913C91D9019C91DE
:103DE000DA0155968C9180958923D9018C93868D23
:103DF0008E7F868F1092100610920F06F093120697
:103E0000E0931106A389B4898C919589892B8C93B1
:103E10008091A50D9091A60D009731F040E855E2F4
:103E200060E070E00E94D0018091A70D9091A80DF4
:103E3000892B09F491C10E94100580E18093120E34
:103E400091E0909364068093860610926506109226
:103E5000870681E00E94300264EF74E084EE9CE00B
:103E60000E94810F66E275E084EE9CE00E94810F63
:103E700069E275E084EE9CE00E94810F66E275E0E5
:103E800084EE9CE00E94810F68EE73E080E090E099
:103E90000E9496056AE375E0CE0107960E944811DC
:103EA00066E475E0CE010D960E944811BE01695F7F
:103EB0007F4FCE010D960E946E10BC01CE0101967F
:103EC0000E942F11CE0101960E94070FCE0101968C
:103ED0000E945811CE010D960E945811CE010796EE
:103EE0000E9458110E94100560E880E00E948D0237
:103EF0006AE070E080E090E00E94960560E070E08B
:103F00008AE794E40E94B20C60E070E088E492E4F6
:103F10000E94B20C60E081E40E94400560E08FE303
:103F20000E9440052EEA222E2EE0322E34E6832E09
:103F3000912CA12CB12C0E94C6052B013C01809133
:103F4000A10D81119DC18091A40D811199C1809114
:103F5000A20D9091A30D009709F450C1DC01ED91E1
:103F6000FC910084F185E02D1995892B09F488C115
:103F70008091A20D9091A30DDC01ED91FC91028442
:103F8000F385E02D1995182F8091A50D9091A60D20
:103F90000097B1F0DC01ED91FC910084F185E02DFA
:103FA0001995892B09F46CC18091A50D9091A60DEE
:103FB000DC01ED91FC910284F385E02D1995182F19
:103FC0008091A70D9091A80D892B89F08091340ED6
:103FD0009091330E98170CF413C1E82F082E000CA3
:103FE000FF0BED5EF14F10818F5F8093340E809157
:103FF000A90D9091AA0D892B89F10FEF8091AC0D3D
:104000009091AD0D0E94D4058091AB0D87FD03C04A
:1040100060E00E9484040EBD00000DB407FEFDCFD9
:104020001EB58091AB0D87FD03C061E00E94840442
:104030001A3021F48091350E8D3001F7E12E012EDA
:10404000000CFF08C7010E943730892B29F4C701F3
:104050000E94F82A892B91F21093350E8091270F38
:104060009091280FE091260F21E02E0F2093260F2C
:10407000E80FF92FF11D10838091260F883718F073
:1040800087E78093260FC0901306D0901406E09027
:104090001506F09016061A3009F02DC1E091260F92
:1040A0008091270F9091280FE80FF92FF11D1082B2
:1040B0008091270F9091280FBEE086339B0709F06F
:1040C0000FC13092280F2092270F90932A0F8093D0
:1040D000290F1092260F81E080932B0F0E94C605B6
:1040E0006093990D70939A0D80939B0D90939C0D06
:1040F000C0929D0DD0929E0DE0929F0DF092A00D6A
:1041000010921306109214061092150610921606BD
:10411000B7C001968931910509F0B2CDC5CD34E023
:1041200019CE8BE690E037CE90E080E034CE88E088
:10413000223309F43CCE84E0233309F438CE82E004
:10414000243309F434CE82EC820F883018F42E53D5
:10415000330B28CE81E02BCE8091A90D9091AA0D32
:10416000892B09F444C01FB7F89480910E06811181
:1041700027C0E2EEF2E08491E8E2F3E09491E82FC8
:10418000F0E0EE0FFF1FE758FD4FA591B491EC91C1
:10419000E92321F461E085E30E94840461E085E382
:1041A0000E9440058CB580618CBD8CB580648CBD4F
:1041B00061E084E30E94400561E083E30E944005E2
:1041C00080910E068F5F80930E061FBF83E580935C
:1041D000AC0D1092AD0D8091AB0D87FD08C061E074
:1041E0000E94400561E08091AB0D0E9484046AE06A
:1041F00070E080E090E00E9496052ECE10E0C4CEE4
:1042000060E280E10E94B70210921C0680931B06B8
:104210008032B1F51092330E00E210E08091A70DCC
:104220009091A80DDC01ED91FC910284F385E02DC5
:1042300019958A3021F49091350E9D3071F4809358
:10424000350E9091330EE92F092E000CFF0BED5E19
:10425000F14F80839F5F9093330E01501109F1F667
:104260008091330E81508093330E811107C080916D
:10427000130E8A3019F48FEF8093330E1092340EA0
:1042800080912B0F882309F463C110922B0FE090CB
:10429000290FF0902A0F1092E90C1092E80C10925E
:1042A000EA0C1092ED0CD7018C91843219F0813216
:1042B00009F05AC3E1E0F0E0F093E90CE093E80C78
:1042C000C701FC01019620812111FBCF80818A3238
:1042D00009F420C5EE16FF0608F046C33197F6CF65
:1042E000E6E3FEE0F093280FE093270F30922A0FC9
:1042F0002092290FEECECD28CE28CF2809F6409265
:104300001306509214066092150670921606B8CFE6
:104310009FEB980F8753963008F404C580E002C5E0
:104320009FEB980F8753963008F408C580E006C5C8
:10433000892B09F019C3A3E0B0E0B093E90CA09376
:10434000E80C6BE67DE0C8010E94470F6C01009706
:1043500009F40AC3BC018AEE9CE00E945A30EDE0E9
:10436000F0E0F093E90CE093E80CF60101900020F6
:10437000E9F73197EC19FD090E0F1F1F67E77DE084
:10438000C8010E94470F009709F4DCC2BC018DEE02
:104390009CE00E945A3089E490E09093E90C80936D
:1043A000E80C6CE270E0C7010E94463001967C0187
:1043B00068ED74E08DEE9CE00E945130892B09F08D
:1043C00041C3C7010E94220D6CE270E0C7010E9448
:1043D000463001967C0108E51DE028E23DE040E220
:1043E0005DE060E37DE00E94A60D6CE270E0C70135
:1043F0000E9446306CE270E001960E9446300196C1
:104400007C0109E51DE02CE23DE044E25DE064E36F
:104410007DE00E94A60D6CE270E0C7010E9446306C
:104420006CE270E001960E9446308C010F5F1F4FD6
:10443000C8010E94FB0281111AC0C801B1D4809347
:104440005C0D882309F4FBC281E080935B0D8091B1
:104450009D0D90919E0DA0919F0DB091A00D809308
:104460008D0D90938E0DA0938F0DB093900D6CE2F7
:1044700070E0C8010E9446308C010F5F1F4FC801D9
:104480000E94FB02811104C0C8018AD480935E0D92
:104490006CE270E0C8010E9446308C010F5F1F4F34
:1044A000C8010E94FB0281110AC0C80176D4609342
:1044B0004C0D70934D0D80934E0D90934F0D6CE20B
:1044C00070E0C8010E9446308C010F5F1F4FC80189
:1044D0000E94FB0281110AC0C8015FD460933C0DA9
:1044E00070933D0D80933E0D90933F0D6CE270E014
:1044F000C8010E9446306CE270E001960E9446308E
:104500008C010F5F1F4FC8010E94FB0281110AC07E
:10451000C80143D46093380D7093390D80933A0DE0
:1045200090933B0D6AEE7CE081E09DE00E945A3062
:104530006DEE7CE084E09DE00E945A300E94C6054A
:104540006093890D70938A0D80938B0D90938C0DE1
:104550000E94C6050091430C1091440C2091450C1B
:104560003091460C601B710B820B930B613D7740C1
:104570008105910508F4F8C10E94C6056093430CBB
:104580007093440C8093450C9093460C6DE575E058
:1045900088E896E00E94810F60915B0D70E090E0EA
:1045A00080E04AE00E94900F63E675E088E896E0BC
:1045B0000E94810F60915C0D70E090E080E04AE025
:1045C0000E94900F66E275E088E896E00E94810FF5
:1045D00060915C0DCE010D960E94A71060915B0D5D
:1045E00070E0CE0107960E94D0106DE575E0CE0117
:1045F00001960E944811BE01695F7F4FCE0101966E
:104600000E946E1063E675E00E945A10BE01635F5F
:104610007F4F0E946E10BC01CE0143960E942F1165
:10462000CE0143960E94070FCE0143960E94581177
:10463000CE0101960E945811CE0107960E94581192
:10464000CE010D960E94581180915B0D882309F4CC
:1046500054C36EE675E0CE0101960E944811CE016A
:1046600001960E94070FCE0101960E945811609199
:104670001A0DCE0143960E94A7106091190DCE012C
:104680000D960E94A7106091180D70E06E5F7F4F2D
:10469000CE0107960E94D0106CE775E0CE0101961E
:1046A0000E944811BE01695F7F4FCE0101960E94B2
:1046B0006E1063E875E00E945A10BE01635F7F4F81
:1046C0000E946E1063E875E00E945A10BE016D5E94
:1046D0007F4F0E946E10BC01CE0149960E942F119F
:1046E000CE0149960E94070FCE0149960E945811AB
:1046F000CE0101960E945811CE0107960E945811D2
:10470000CE010D960E945811CE0143960E94581179
:1047100060911D0DCE0143960E94A71060911E0D61
:10472000CE010D960E94A71060911F0DCE01079635
:104730000E94A71065E875E0CE0101960E9448111D
:10474000BE01695F7F4FCE0101960E946E106CE83A
:1047500075E00E945A10BE01635F7F4F0E946E1089
:104760006CE875E00E945A10BE016D5E7F4F0E949A
:104770006E10BC01CE0149960E942F11CE014996C0
:104780000E94070FCE0149960E945811CE01019652
:104790000E945811CE0107960E945811CE010D9625
:1047A0000E945811CE0143960E9458118091590DD4
:1047B0001A8E198E1C8E1B8E1E8E1D8E89831A8258
:1047C000BE016F5F7F4FCE0149960E949E104091BF
:1047D000240D5091250D6091260D7091270DCE016D
:1047E00043960E94FB108091580D1E861D86188AE4
:1047F0001F861A8A198A89831A82BE016F5F7F4FCA
:10480000CE010D960E949E104091200D5091210DD9
:104810006091220D7091230DCE0107960E94FB102E
:104820006EE875E0CE0101960E944811BE01695FF5
:104830007F4FCE0101960E946E10BE01635F7F4FD5
:104840000E946E1061E875E00E945A10BE016D5E14
:104850007F4F0E946E10BE01675E7F4F0E946E10F8
:10486000BC01CE014F960E942F11CE014F960E949F
:10487000070FCE014F960E945811CE0101960E945B
:104880005811CE0107960E945811CE010D960E9434
:104890005811CE0143960E945811CE0149960E94AC
:1048A000581160915E0DCE0107960E94A71069E92C
:1048B00075E0CE0101960E944811BE01695F7F4FED
:1048C000CE0101960E946E10BC01CE010D960E9491
:1048D0002F11CE010D960E94070FCE010D960E945A
:1048E0005811CE0101960E945811CE0107960E94E0
:1048F000581160915C0DCE0107960E94A71066EAE0
:1049000075E0CE0101960E944811BE01695F7F4F9C
:10491000CE0101960E946E10BC01CE010D960E9440
:104920002F11CE010D960E94070FCE010D960E9409
:104930005811CE0101960E945811CE0107960E948F
:10494000581112C061E87DE0C8010E94470F00972E
:10495000A1F1BC018DEE9CE00E945A30A1E2B0E0D2
:10496000B093E90CA093E80C81E40E948C0C2B011D
:104970008FE30E948C0C6B0150926E0740926D0782
:104980006BE677E08DE497E00E948F08D0926E0787
:10499000C0926D076BE677E08DE497E00E948F0888
:1049A00081E997E00E940F1361E070E080E090E001
:1049B0000E9496050E945904BECA6CE270E0C801CC
:1049C0000E9446300097A9F07C01E01AF10AB4E198
:1049D000EB16F1041CF093E1E92EF12CA701B801CC
:1049E0008DEE9CE00E946F30F701E351F34F10828F
:1049F000BBCF6AE270E0C8010E944630009759F0D0
:104A00007C01E01AF10AA701E4E1EE16F1043CF39F
:104A100043E150E0E4CFD8010D900020E9F7AD016B
:104A200041505109401B510B4331510510F043E1F6
:104A300050E0B8018DEE9CE00E946F3095CF10924F
:104A40005B0D15CD64EE74E08DEE9CE00E9451305C
:104A5000892B09F0A1C0C7010E94220D6CE270E011
:104A6000C7010E9446308C010F5F1F4FC8010E9492
:104A700008036CE270E0C8010E94463001967C0198
:104A800008E51DE028E23DE040E25DE060E37DE016
:104A90000E94A60D6CE270E0C7010E9446306CE2F5
:104AA00070E001960E94463001967C0109E51DE008
:104AB0002CE23DE044E25DE064E37DE00E94A60D6F
:104AC0006CE270E0C7010E9446306CE270E0019633
:104AD0000E9446308C010F5F1F4FC8010E94FB02ED
:104AE00081110AC0C80159D16093400D7093410DE6
:104AF0008093420D9093430D6CE270E0C8010E94D8
:104B000046308C010F5F1F4FC8010E94FB028111CC
:104B10000AC0C80142D16093440D7093450D809343
:104B2000460D9093470D6CE270E0C8010E9446303C
:104B30008C010F5F1F4FC8010E94FB028111F2CC54
:104B4000C8012BD18CD76B017C0120E137E240E01A
:104B500050E00E94D42D20931F0DA50194010E94C6
:104B6000D42D20931E0DC701B601A50194010E940A
:104B7000D42D60931D0D80919D0D90919E0DA0915F
:104B80009F0DB091A00D8093950D9093960DA093DD
:104B9000970DB093980DC6CC6CED74E08DEE9CE053
:104BA0000E945130892BD1F508E51DE028E23DE057
:104BB00040E25DE060E37DE0C7010E94A60D6CE28B
:104BC00070E0C7010E9446306CE270E001960E94DE
:104BD000463001967C0109E51DE02CE23DE044E20F
:104BE0005DE064E37DE00E94A60D6CE270E0C70129
:104BF0000E9446306CE270E001960E9446308C01C3
:104C00000F5F1F4FC8010E94220D6CE270E0C801C7
:104C10000E94463001960E94080384CC60EE74E046
:104C20008DEE9CE00E945130892B09F09DCE6CE204
:104C300070E0C7010E9446308C010F5F1F4FC80112
:104C40000E94FB02811104C0C801AAD080935D0DAF
:104C50006CE270E0C8010E9446308C010F5F1F4F6C
:104C60008CE0E82EF12C6CE270E0C8010E94463026
:104C70008C010F5F1F4FB1E0EB1AF108A1F7C801DB
:104C80000E94FB0281110AC0C80187D06093540DB5
:104C90007093550D8093560D9093570D6CE270E014
:104CA000C8010E9446308C010F5F1F4FC8010E944F
:104CB000FB0281110AC0C80170D060934C0D709343
:104CC0004D0D80934E0D90934F0D6CE270E0C80136
:104CD0000E9446308C010F5F1F4FC8010E94FB02EB
:104CE000811120CCC80159D06093500D7093510DA3
:104CF0008093520D9093530D15CC60EB75E0CE016F
:104D000001960E944811CE0101960E94070FCE0124
:104D1000019615CE818180330CF400CB8A330CF0E0
:104D2000F7CA805390E1899F9001112482818033DA
:104D30000CF4FCCA8A330CF0F3CA8053820F932F11
:104D4000911D87010F5F1F4FD801AE17BF0708F0F5
:104D5000EFCA2D91022E000C330B82279327F5CF3B
:104D6000EF920F931F93CF93DF93E80134E047FD59
:104D700034E1042E000C550B57FF03C051954195AB
:104D80005109E32E022F242FAE018DD0CE01DF91E9
:104D9000CF911F910F91EF90089566277727FBC160
:104DA000FC0188279927E89421912032E9F32930E2
:104DB00010F02E30C8F32B3239F02D3231F46894D4
:104DC00003C050D0820F911D219120532A30C8F387
:104DD0001EF4909581959F4F08951F93FC0199278C
:104DE0008827BC01E89411911032E9F3193010F0D2
:104DF0001E30C8F31B3249F01D3241F4689405C0DF
:104E00001CD0610F711D811D911D119110531A301D
:104E1000B8F33EF490958095709561957F4F8F4FD4
:104E20009F4F1F910895BB274A3031F4992322F4F4
:104E3000BDE2909581959F4F1EC0592F482F372F67
:104E4000262F660F771F881F991F660F771F881FF1
:104E5000991F620F731F841F951F660F771F881F8E
:104E6000991F08957AE0979F902D879F802D910D2F
:104E700011240895BB27FB015527AA27880F991FE6
:104E8000AA1FA41710F0A41B83955051B9F7A05D79
:104E9000AA3308F0A95DA193009779F7B111B193F6
:104EA0001192CB01C5C38F929F92AF92BF92CF92C6
:104EB000DF92EF92FF920F931F93CF93DF9300D077
:104EC00000D000D0CDB7DEB76A01F22EB02E102F81
:104ED000FBE3AF2EA01608F41BE31F5F012F27E0B2
:104EE000AE014F5F5F4FACD2BC018981982F9970A2
:104EF000913009F44EC09BE2E1FC04C09E2D9170FC
:104F0000E0FC49C05E2D5071E82FE87083FF55C06A
:104F100084E0911101C083E0EF2DE81B8F1508F0AC
:104F2000E0E0D6018E2F20E25523C9F1992329F024
:104F3000D6019C93C60101966C0196012D5F3F4FEF
:104F4000E2FE33C08EE4D6018C9391E411969C93DB
:104F5000119712968C93D9018E2F90E281112AC05D
:104F6000E20FF32FF11D10828EEF9FEF29960FB6FF
:104F7000F894DEBF0FBECDBFDF91CF911F910F918F
:104F8000FF90EF90DF90CF90BF90AF909F908F9069
:104F900008959DE2B7CF90E2B5CF2D938150811156
:104FA000FCCFCE0ED11CE0E0C1CF8EE6D6018C93B3
:104FB00091E6CCCF9D938150D1CF482F447082FF92
:104FC0003DC084E0911101C083E08F1510F4EF2DF6
:104FD000E81BD6018E2F20E2552309F1992329F0F1
:104FE000D6019C93C60101966C0196012D5F3F4F3F
:104FF000E2FE1BC089E4D6018C938EE411968C935B
:10500000119786E412968C93D9018E2F90E2882313
:1050100009F4A6CF9D938150FACF2D938150811131
:10502000FCCFCE0ED11CE0E0D9CF89E6D6018C931F
:105030008EE611968C93119786E6E4CF9B0177FF5D
:1050400002C030E020E0A1E0B0E0911102C0B0E089
:10505000A0E0F9013196AE0FBF1F8B2C912CBB2025
:1050600009F461C05401EFEFAE1ABE0AAA0DBB1DD0
:10507000FA161B0619F014F04F2D4A1B511188C067
:10508000E3FC59C07601A42FB0E2A1114FC0C40EB9
:10509000D11C992309F45BC040E0D6011196F601BA
:1050A00090836D01552309F448C0012F060F9A81A2
:1050B000582F507184FF03C0913309F4015010162A
:1050C0000CF047C0093008F008E0EEE2FE2E5B016C
:1050D000A01AB10885019194819491082F3F32075D
:1050E00029F4D601FC92F60131966F01621773071D
:1050F00094F1021713077CF5DB01A21BB30BAA2462
:10510000A394B12CAC0EBD1EAA0DBB1D11968C91A3
:1051100021503109D601119628153905F4F0F60110
:1051200080836D01DBCFB12CA12CA0CFF701B1930F
:105130007F01A150AACF9111B0CFD601942F50E397
:1051400002C05D9391509111FCCFC40ED11C40E080
:10515000ACCF01E0BACF80E3DBCF6217730731F445
:10516000963388F4953311F4552369F0F601808362
:10517000FD01842F90E2811108C0A40FB11D1C9283
:1051800090E080E0F3CE81E3F1CF91938150F3CFB3
:10519000911183CF8ACF8F929F92AF92BF92CF927D
:1051A000DF92EF92FF920F931F93CF93DF935C01F7
:1051B0007B016115710519F0DB018D939C938501CD
:1051C0000F5F1F4FF501D0818D2F90E011D26C0140
:1051D000892BA9F5DD32A9F50F5F1F4FD501119677
:1051E000DC91C1E05801F1E0AF1AB10843E050E0B2
:1051F0006CEE70E0C50104D2892B61F5680182E094
:10520000C80ED11C45E050E067EE70E0C601F8D151
:10521000892B21F4680197E0C90ED11CE114F10437
:1052200019F0D701CD92DC9260E070E080E89FEF4A
:10523000C111F9C060E070E080E89FE7F4C0580158
:10524000BECFDB3229F485010E5F1F4FF501D181FE
:10525000C0E0C8CF43E050E064EE70E0C501D0D1BB
:10526000892BE9F0F80110E000E020E030E0A9012E
:105270005F01B0ED8B2E8D0E89E08815C0F19C2E5C
:10528000689491F88C2F8870C2FF16C0811102C0FB
:105290000F5F1F4F3196D501DC91C92DE9CFE11485
:1052A000F10429F00E5F1F4FF7011183008360E0C6
:1052B00070E080EC9FE7B7C0882311F0015011091E
:1052C000A5E0B0E0E1D29B01AC01220F331F441FE7
:1052D000551F280D311D411D511D283999E93907E8
:1052E000490799E15907B0F2C6609C2ED3CFAEEFC3
:1052F0008A1206C0C3FD3CC09C2E689493F8CACFA6
:10530000DF7DD534A9F580818D3239F4C061DF01AC
:105310001296818162E070E006C0DF018B32C1F33A
:10532000119661E070E080535D01A61AB70A8A30D9
:10533000F8F4E0E8CE16ECE0DE065CF4B601660FA9
:10534000771F660F771FC60ED71ECC0CDD1CC80E4C
:10535000D11C5D01FFEFAF1ABF0A8C9180538A30D8
:1053600098F1C4FF03C0D194C194D1080C0D1D1D48
:10537000C1FF09C0E114F10431F081E0A81AB108BD
:10538000D701AD92BC92CA01B90166D1C370C330D6
:1053900009F490584B015C0120E030E0A90158D19C
:1053A000882309F43EC0CBE1D1E017FF05C0119579
:1053B00001951109C3E0D1E06E01B8E1CB1AD10823
:1053C00080E2E82EF12C0EC0D501B3CFFE0125916D
:1053D0003591459154910E191F09C501B4019DD114
:1053E0004B015C01D501C4010E151F057CF7249704
:1053F000F594E794CC16DD06A9F78A2F880F8B2F3A
:10540000881F8F3F41F020E030E0A901C501B401C1
:105410001FD1811106C082E290E090933D0F8093EE
:105420003C0FC501B401DF91CF911F910F91FF9007
:10543000EF90DF90CF90BF90AF909F908F900895A6
:10544000283008F027E03327DA01990F311D87FD56
:10545000916000966105710539F432602E5F3D93CD
:1054600030E32A95E1F708959F3F30F080387105C9
:10547000610509F03C5F3C5F3D93913008F0806826
:10548000911DDF93CF931F930F93FF92EF92192FEC
:10549000987F9695E92F96959695E90FFF27E758FF
:1054A000FE4F99273327EE24FF24A701E70105903B
:1054B0000894079428F4360FE71EF81E491F511D63
:1054C000660F771F881F991F0694A1F70590079410
:1054D00028F4E70EF81E491F561FC11D770F881FBD
:1054E000991F661F0694A1F70590079428F4F80EFB
:1054F000491F561FC71FD11D880F991F661F771F91
:105500000694A1F70590079420F4490F561FC71F72
:10551000D81F990F661F771F881F0694A9F78491DB
:105520001095177041F0D695C79557954795F79404
:10553000E7941A95C1F7EFE1F1E0689415901591A1
:1055400035916591959105907FE27395E118F10A87
:10555000430B560BC90BD009C0F7E10CF11E431FDA
:10556000561FC91FD01D7EF4703311F48A95E6CF03
:10557000E894015030F0080F0AF40027021708F4ED
:10558000202F2395022F7A3328F079E37D932A95F3
:10559000E9F710C07D932A9589F60694979567954B
:1055A000379517951794E118F10A430B560BC90B61
:1055B000D00998F023957E9173957A3308F070E3C3
:1055C0007C932013B8F77E9170617D9330F08395C2
:1055D00071E37D9370E32A95E1F71124EF90FF903A
:1055E0000F911F91CF91DF91992787FD9095089595
:1055F0009111F6C0803219F089508550D0F7089586
:10560000FB01DC014150504088F08D9181341CF049
:105610008B350CF4805E659161341CF06B350CF4B5
:10562000605E861B611171F3990B0895881BFCCF96
:10563000DC01FC01672F71917723E1F7329704C0F9
:105640007C916D9370836291AE17BF07C8F3089584
:1056500040D008F481E00895E89409C097FB3EF437
:1056600090958095709561957F4F8F4F9F4F9923AF
:10567000A9F0F92F96E9BB279395F695879577952D
:105680006795B795F111F8CFFAF4BB0F11F460FFED
:105690001BC06F5F7F4F8F4F9F4F16C0882311F045
:1056A00096E911C0772321F09EE8872F762F05C059
:1056B000662371F096E8862F70E060E02AF09A95F4
:1056C000660F771F881FDAF7880F9695879597F9E9
:1056D0000895990F0008550FAA0BE0E8FEEF161683
:1056E0001706E807F907C0F012161306E407F507D6
:1056F00098F0621B730B840B950B39F40A2661F04A
:10570000232B242B252B21F408950A2609F4A140EC
:10571000A6958FEF811D811D08950BD07BC06CD0A5
:1057200028F071D018F0952309F05DC062C01124F3
:10573000A5C081D0A0F3959FD1F3950F50E0551FE0
:10574000629FF001729FBB27F00DB11D639FAA27D6
:10575000F00DB11DAA1F649F6627B00DA11D661F25
:10576000829F2227B00DA11D621F739FB00DA11D46
:10577000621F839FA00D611D221F749F3327A00D00
:10578000611D231F849F600D211D822F762F6A2F9C
:1057900011249F5750408AF0E1F088234AF0EE0F21
:1057A000FF1FBB1F661F771F881F91505040A9F72E
:1057B0009E3F510570F017C061C05F3FECF3983E0B
:1057C000DCF3869577956795B795F795E7959F5F95
:1057D000C1F7FE2B880F911D9695879597F908952F
:1057E00099278827089597F99F6780E870E060E01F
:1057F00008959FEF80EC089500240A94161617066A
:1058000018060906089500240A94121613061406B1
:1058100005060895092E0394000C11F4882352F014
:10582000BB0F40F4BF2B11F460FF04C06F5F7F4FCC
:105830008F4F9F4F089557FD9058440F551F59F0B3
:105840005F3F71F04795880F97FB991F61F09F3F6D
:1058500079F087950895121613061406551FF2CF96
:105860004695F1DF08C0161617061806991FF1CFE6
:1058700086957105610508940895E894BB2766270D
:105880007727CB0197F9089509D0A59F900DB49F74
:10589000900DA49F800D911D11240895A29FB00129
:1058A000B39FC001A39F700D811D1124911DB29F54
:1058B000700D811D1124911D08955058BB27AA27F2
:1058C0000ED0A8CF99DF30F09EDF20F031F49F3F5B
:1058D00011F41EF48ECF0EF4E095E7FB84CFE92F90
:1058E000AADF80F3BA17620773078407950718F0D9
:1058F00071F49EF5C2CF0EF4E0950B2EBA2FA02DB9
:105900000B01B90190010C01CA01A0011124FF276C
:10591000591B99F0593F50F4503E68F11A16F04067
:10592000A22F232F342F4427585FF3CF4695379566
:105930002795A795F0405395C9F77EF41F16BA0B2B
:10594000620B730B840BBAF09150A1F0FF0FBB1FD9
:10595000661F771F881FC2F70EC0BA0F621F731F22
:10596000841F48F4879577956795B795F7959E3F7F
:1059700008F0B3CF9395880F08F09927EE0F97950D
:10598000879508950CD046CF3EDF40F035DF30F0EC
:1059900021F45F3F19F027CF511170CF2ACF4BDF91
:1059A00098F39923C9F35523B1F3951B550BBB27E6
:1059B000AA2762177307840738F09F5F5F4F220F93
:1059C000331F441FAA1FA9F333D00E2E3AF0E0E88C
:1059D00030D091505040E695001CCAF729D0FE2FD8
:1059E00027D0660F771F881FBB1F2617370748076A
:1059F000AB07B0E809F0BB0B802DBF01FF27935820
:105A00005F4F2AF09E3F510568F0EDCE37CF5F3FE4
:105A1000ECF3983EDCF3869577956795B795F79507
:105A20009F5FC9F7880F911D9695879597F90895FF
:105A3000E1E0660F771F881FBB1F6217730784079B
:105A4000BA0720F0621B730B840BBA0BEE1F88F7AA
:105A5000E095089504D06894B11110CF0895F3DE55
:105A600088F09F5790F0B92F9927B751A0F0D1F047
:105A7000660F771F881F991F1AF0BA95C9F712C0D1
:105A8000B13081F0FADEB1E00895F7CE672F782FBC
:105A90008827B85F39F0B93FCCF38695779567953D
:105AA000B395D9F73EF490958095709561957F4FA9
:105AB0008F4F9F4F08953BD080F09F3740F4911156
:105AC0000EF0DCCE60E070E080E89FEB089526F4F5
:105AD0001B16611D711D811D01C01BC0882371F43F
