:1000000043C1000071C100006FC100006DC100005C
:100010006BC1000069C1000067C1000065C100003C
:1000200063C1000061C100005FC100005DC100004C
:100030005BC1000059C1000057C1000055C100005C
:1000400053C1000051C100004FC100004DC100006C
:100050004BC1000049C1000047C10000E8C30000D7
:1000600043C10000AEC3000083C300003DC10000D7
:100070003BC1000039C1000037C1000035C100009C
:1000800033C1000031C100002FC100002DC10000AC
:100090002BC1000029C1000027C1000025C10000BC
:1000A00023C1000021C100001FC100001DC10000CC
:1000B0001BC1000019C1000017C1000015C10000DC
:1000C00013C1000011C100000FC100000DC10000EC
:1000D0000BC1000009C1000007C1000005C10000FC
:1000E00003C1000007634236B79BD8A71A39685688
:1000F00018AEBAAB558C1D3CB7CC5763BD6DEDFD4A
:10010000753EF6177231BF000000803F0800000006
:10011000BE922449123EABAAAA2ABECDCCCC4C3EFC
:1001200000000080BEABAAAAAA3E00000000BF00EB
:100130000000803F0000000000084178D3BB4387E7
:10014000D1133D190E3CC3BD4282AD2B3E68EC82FB
:1001500076BED98FE1A93E4C80EFFFBE01C4FF7F80
:100160003F000000000000002100240027002A00BA
:100170002D003000330001010000040107010A01D5
:1001800000002200250028002B002E003100340042
:1001900002010000050108010B01000020002300FE
:1001A000260029002C002F0032000001000003016E
:1001B00006010901050505050705080808080202EA
:1001C00002020A0A080804040404010101010101F1
:1001D00001010303030303030303040707070C0CD4
:1001E0000C0C0C0C0C0C020202020606060606069B
:1001F00006060B0B0B0B0B0B0B0B01021020200840
:100200000810204010204080020102010804020171
:1002100001020408102040808040201008040201E0
:100220008004020180402010080402010804020139
:1002300001020408102040800102040810204080C0
:1002400000000A0B02090C0D0E0807030401000050
:10025000000000000000000000000000000000009E
:10026000000000000000000000000000121110005B
:10027000000000000000000000000000000000007E
:10028000000000000000D00611241FBECFEFD1E215
:10029000DEBFCDBF00E00CBF12E0A0E0B2E0E2EBB9
:1002A000F5E100E00BBF02C007900D92A232B1074A
:1002B000D9F722E0A2E2B2E001C01D92AA3CB20747
:1002C000E1F711E0C4E4D1E000E006C021970109A4
:1002D000802FFE010E94C90AC334D10780E00807BD
:1002E000A9F7EFD20C94D70A8BCEAF92BF92CF92E0
:1002F000DF92EF92FF920F931F93CF93DF936C01E6
:100300007B018B01040F151FEB015E01AE18BF08C6
:10031000C017D10759F06991D601ED91FC91019078
:10032000F081E02DC6011995892B79F7C501DF9180
:10033000CF911F910F91FF90EF90DF90CF90BF90E2
:10034000AF900895FC01538D448D252F30E0842F0C
:1003500090E0821B930B541710F0CF9608950197ED
:100360000895FC01918D828D981761F0A28DAE0FDA
:10037000BF2FB11D5D968C91928D9F5F9F73928F61
:1003800090E008958FEF9FEF0895FC01918D828D8D
:10039000981731F0828DE80FF11D858D90E008955A
:1003A0008FEF9FEF0895FC01918D228D892F90E0B2
:1003B000805C9F4F821B91098F73992708958DE26E
:1003C00092E0F1DF21E0892B09F420E0822F0895EB
:1003D000FC01A48DA80FB92FB11DA35ABF4F2C91BA
:1003E000848D90E001968F739927848FA689B789B1
:1003F0002C93A089B1898C91837080648C93938DA8
:10040000848D981306C00288F389E02D80818F7D4A
:1004100080830895EF92FF920F931F93CF93DF9302
:10042000EC0181E0888F9B8D8C8D98131AC0E88930
:10043000F989808185FF15C09FB7F894EE89FF89FF
:100440006083E889F98980818370806480839FBF9D
:1004500081E090E0DF91CF911F910F91FF90EF909D
:100460000895F62E0B8D10E00F5F1F4F0F731127AD
:10047000E02E8C8D8E110BC00FB607FCFACFE889E9
:10048000F989808185FFF5CFCE01A2DFF2CFEB8D18
:10049000EC0FFD2FF11DE35AFF4FF0829FB7F89448
:1004A0000B8FEA89FB8980818062D0CFCF93DF9365
:1004B000EC01888D8823B1F0AA89BB89E889F98984
:1004C0008C9185FD03C0808186FD0CC00FB607FCB2
:1004D000F7CF8C9185FFF2CF808185FFEDCFCE01E4
:1004E00077DFEACFDF91CF91089580E090E0892B0C
:1004F00021F065DF81110E94000080E090E0892BEF
:1005000049F080E090E0892B29F00E9400008111E1
:100510000E94000080E090E0892B49F080E090E0AC
:10052000892B29F00E94000081110E94000080E0C8
:1005300090E0892B49F080E090E0892B29F00E941F
:10054000000081110C94000008958150823108F060
:100550005AC0E82FF0E08827EF54FD4F8F4F0C94DE
:10056000C90AD102D502C302C902CD020303D802CF
:10057000DE02E202E802EC02F002F602FA020303F3
:10058000FE0204030803809180008F77809380002F
:100590000895809180008F7DF9CF80918000877FC2
:1005A000F5CF84B58F7784BD089584B58F7DFBCF5B
:1005B0008091B0008F778093B00008958091B00053
:1005C0008F7DF9CF809190008F7780939000089570
:1005D000809190008F7DF9CF80919000877FF5CF3B
:1005E0008091A0008F778093A00008958091A00053
:1005F0008F7DF9CF8091A000877FF5CF809120017A
:100600008F77809320010895809120018F7DF9CF0D
:1006100080912001877FF5CF1F93CF93DF93282F01
:1006200030E0F901E05CFD4F8491F901E650FE4FA6
:10063000D491F901EC54FE4FC491CC23A1F0162FB4
:10064000811183DFEC2FF0E0EE0FFF1FE058FE4F2B
:10065000A591B4918FB7F894EC91111108C0D09581
:10066000DE23DC938FBFDF91CF911F910895DE2BA6
:10067000F8CFCF93DF9390E0FC01E650FE4F24913A
:100680008C549E4FFC0184918823D1F090E0880F18
:10069000991FFC01EA59FE4FA591B491FC01E05865
:1006A000FE4FC591D49161110EC09FB7F8948C9103
:1006B000E22FE0958E238C932881E223E8839FBF6D
:1006C000DF91CF9108958FB7F894EC91E22BEC93E2
:1006D0008FBFF6CFFC0101900020E9F73197AF0101
:1006E000481B590BBC018DE292E0FFCD8F929F9287
:1006F000AF92BF920F931F93CF93DF93CDB7DEB727
:10070000A1970FB6F894DEBF0FBECDBF19A242303D
:1007100008F44AE08E010F5D1F4F842E912CB12CFE
:10072000A12CA501940185D3E62FB901CA01EA30B5
:10073000ECF4E05DD801EE938D01232B242B252BC7
:1007400081F790E080E0109711F0CD01C3DFA19612
:100750000FB6F894DEBF0FBECDBFDF91CF911F91D2
:100760000F91BF90AF909F908F900895E95CE2CF7A
:100770001F920F920FB60F9211240BB60F922F9368
:100780003F934F935F936F937F938F939F93AF9319
:10079000BF93EF93FF938DE292E01ADEFF91EF910A
:1007A000BF91AF919F918F917F916F915F914F9189
:1007B0003F912F910F900BBE0F900FBE0F901F9087
:1007C00018951F920F920FB60F9211240BB60F922D
:1007D0002F938F939F93EF93FF93E0913D02F091BE
:1007E0003E028081E0914302F091440282FD1DC0EF
:1007F0009081809146028F5F8F732091470282170C
:1008000041F0E0914602F0E0E35DFD4F958F80936B
:100810004602FF91EF919F918F912F910F900BBE08
:100820000F900FBE0F901F9018958081F2CF1F92EE
:100830000F920FB60F9211242F933F938F939F9394
:10084000AF93BF938091270290912802A091290233
:10085000B0912A023091260223E0230F2D3758F55C
:100860000196A11DB11D209326028093270290932B
:100870002802A0932902B0932A028091220290912B
:100880002302A0912402B09125020196A11DB11D61
:100890008093220290932302A0932402B093250216
:1008A000BF91AF919F918F913F912F910F900FBE6C
:1008B0000F901F90189526E8230F0296A11DB11DD9
:1008C000D2CFCF93DF93CDB7DEB764970FB6F8944E
:1008D000DEBF0FBECDBF789484B5826084BD84B581
:1008E000816084BD85B5826085BD85B5816085BD2B
:1008F00080916E00816080936E00109281008091E3
:10090000810082608093810080918100816080936A
:100910008100809180008160809380008091B1008F
:1009200084608093B1008091B00081608093B000BA
:10093000809191008260809391008091910081600C
:1009400080939100809190008160809390008091CD
:10095000A10082608093A1008091A10081608093BA
:10096000A1008091A00081608093A000809121016E
:100970008260809321018091210181608093210117
:100980008091200181608093200180917A008460B1
:1009900080937A0080917A00826080937A008091BF
:1009A0007A00816080937A0080917A0080688093D9
:1009B0007A001092C10061E089E15BDE61E08BE1C9
:1009C00058DE60E08DE155DEE0913D02F0913E029F
:1009D00082E08083E0913902F0913A021082E09146
:1009E0003B02F0913C0280E1808310924502E0914D
:1009F0004102F091420286E08083E0913F02F09153
:100A00004002808180618083E0913F02F09140024A
:100A1000808188608083E0913F02F0914002808174
:100A200080688083E0913F02F091400280818F7D59
:100A3000808327E1222E22E0322E10922C02109287
:100A40002B0260E089E1E8DD0AE010E060E08BE184
:100A5000E3DD61E08BE1E0DDE0902B02F0902C0221
:100A6000EE0CFF1CEDE5F2E08491F101D490E1ED94
:100A7000F1E0C490B0E0A0E0CC2091F0811165DD00
:100A8000EC2DF0E0EE0FFF1FE656FE4FA591B4915E
:100A90008C91D82291E080E009F490E0A92FB82F42
:100AA000EA2AFB2AF0922C02E0922B020150110953
:100AB00009F0CCCF61E089E1AFDDF5EFEF16F1E0B1
:100AC000FF0608F4E7C085EFE81A81E0F80A27E698
:100AD00031E0D70166D52FEF33E040E050E08DD113
:100AE000B901330F880B990B6CD26B017C0120E0AC
:100AF00030E040E450E47CD32B013C0120E030E0C6
:100B000040E850E4C701B60173D369837A838B83CD
:100B10009C8320E030E040EA50E4C701B60168D38E
:100B20006D837E838F83988720E030E040EC50E433
:100B3000C701B6015DD369877A878B879C8720E0E0
:100B400030E040EE50E4C701B60152D36D877E8796
:100B50008F87988B20E030E040E051E4C701B60178
:100B600047D3698B7A8B8B8B9C8B26EB3BE148EBD5
:100B700051E3C701B601D9D228E739EA43EF5EE372
:100B800089D14B015C01A7019601C701B601CDD205
:100B90002AE13BED49E854E3C8D29B01AC01C50111
:100BA000B40179D14B015C0127E43AEC45E357E30A
:100BB000C301B201BAD29B01AC01C501B4016BD132
:100BC0004B015C0124E138E242E553E369817A811B
:100BD0008B819C81AAD29B01AC01C501B4015AD181
:100BE0004B015C0122E43DE748E75FE26D817E81D5
:100BF0008F8198859AD29B01AC01C501B4014AD17D
:100C00004B015C0123E733E54BE05CE269857A85C3
:100C10008B859C858AD29B01AC01C501B4013BD177
:100C20004B015C0128E434EA4CEA57E26D857E858D
:100C30008F8598897AD29B01AC01C501B4012AD174
:100C40004B015C0127EE3FE943E952E269897A8969
:100C50008B899C896AD29B01AC01C501B4011BD16F
:100C6000A701960118D16B017C0120E030E0A901B9
:100C700076D187FD14C0A7019601C701B60104D340
:100C8000882381F082E192E025DD8EE192E022DD91
:100C90002CDCD3CEE5EFEE1AEDEFFE0A18CFC12C17
:100CA000D12C760146015701E894B7F82FEF3FEFBA
:100CB0004FE75FE7C501B401E7D281110CC02FEF08
:100CC0003FEF4FE75FE7C501B40149D118161CF4A7
:100CD00086E192E0D9CF2FEF3FEF4FE75FE4C70106
:100CE000B6011FD218161CF48AE192E0CDCF2FEF87
:100CF0003FEF4FE75FECC701B60131D187FDF4CF7D
:100D000020E030E0A901C701B60129D187FF08C062
:100D10006DE28DE292E07EDBF7FAF094F7F8F09462
:100D20002AE037ED43EA5BE3C701B601B4D04B01DB
:100D30005C0119D16B017C0142D19B01AC01C50161
:100D4000B401A8D04B015C014AE0C701B601CEDC7A
:100D50006EE28DE292E05EDB20E030E040E251E4C2
:100D6000C501B401E2D14B015C01FDD06B01F12C56
:100D7000E12C4AE0C701B601B9DCC701B6011FD1B9
:100D80009B01AC01C501B40185D020E030E040E218
:100D900051E4CBD1E8D090E080E04AE0A7DC75CF09
:100DA000EDE2F2E01382128288EE93E0A0E0B0E080
:100DB00084839583A683B78384E092E091838083C4
:100DC00085EC90E09587848784EC90E09787868710
:100DD00080EC90E0918B808B81EC90E0938B828B08
:100DE00082EC90E0958B848B86EC90E0978B868BE1
:100DF000118E128E138E148E0895052E97FB16F405
:100E000000940FD057FD05D014D007FC02D046F453
:100E100008C050954095309521953F4F4F4F5F4FFB
:100E2000089590958095709561957F4F8F4F9F4F56
:100E30000895A1E21A2EAA1BBB1BFD010DC0AA1F1B
:100E4000BB1FEE1FFF1FA217B307E407F50720F033
:100E5000A21BB30BE40BF50B661F771F881F991FAE
:100E60001A9469F760957095809590959B01AC01F7
:100E7000BD01CF010895A29FB001B39FC001A39F00
:100E8000700D811D1124911DB29F700D811D1124C3
:100E9000911D08955058BB27AA270ED008C1F9D03C
:100EA00030F0FED020F031F49F3F11F41EF4EEC07C
:100EB0000EF4E095E7FBE4C0E92F0AD180F3BA17FE
:100EC000620773078407950718F071F49EF522C135
:100ED0000EF4E0950B2EBA2FA02D0B01B901900155
:100EE0000C01CA01A0011124FF27591B99F0593F99
:100EF00050F4503E68F11A16F040A22F232F342FE1
:100F00004427585FF3CF469537952795A795F0402E
:100F10005395C9F77EF41F16BA0B620B730B840B43
:100F2000BAF09150A1F0FF0FBB1F661F771F881FFB
:100F3000C2F70EC0BA0F621F731F841F48F4879553
:100F400077956795B795F7959E3F08F0B3CF939542
:100F5000880F08F09927EE0F9795879508956CD024
:100F600008F481E00895BCD088F09F5790F0B92F25
:100F70009927B751A0F0D1F0660F771F881F991FEE
:100F80001AF0BA95C9F712C0B13081F0C3D0B1E000
:100F90000895C0C0672F782F8827B85F39F0B93F10
:100FA000CCF3869577956795B395D9F73EF49095F0
:100FB0008095709561957F4F8F4F9F4F0895E8946E
:100FC00009C097FB3EF490958095709561957F4F91
:100FD0008F4F9F4F9923A9F0F92F96E9BB2793953F
:100FE000F695879577956795B795F111F8CFFAF44F
:100FF000BB0F11F460FF1BC06F5F7F4F8F4F9F4F80
:1010000016C0882311F096E911C0772321F09EE8DD
:10101000872F762F05C0662371F096E8862F70E043
:1010200060E02AF09A95660F771F881FDAF7880F1D
:101030009695879597F90895990F0008550FAA0B73
:10104000E0E8FEEF16161706E807F907C0F01216DB
:101050001306E407F50798F0621B730B840B950BDE
:1010600039F40A2661F0232B242B252B21F4089533
:101070000A2609F4A140A6958FEF811D811D0895D0
:1010800097F99F6780E870E060E008959FEF80EC3B
:10109000089500240A9416161706180609060895DE
:1010A00000240A9412161306140605060895092E44
:1010B0000394000C11F4882352F0BB0F40F4BF2BB3
:1010C00011F460FF04C06F5F7F4F8F4F9F4F0895F3
:1010D00057FD9058440F551F59F05F3F71F04795E9
:1010E000880F97FB991F61F09F3F79F087950895CE
:1010F000121613061406551FF2CF4695F1DF08C0ED
:10110000161617061806991FF1CF86957105610509
:1011100008940895E894BB2766277727CB0197F9B1
:1011200008958ADF08F48FEF08950BD0C0CFB1DFA8
:1011300028F0B6DF18F0952309F0A2CFA7CF11242D
:10114000EACFC6DFA0F3959FD1F3950F50E0551F6E
:10115000629FF001729FBB27F00DB11D639FAA270C
:10116000F00DB11DAA1F649F6627B00DA11D661F5B
:10117000829F2227B00DA11D621F739FB00DA11D7C
:10118000621F839FA00D611D221F749F3327A00D36
:10119000611D231F849F600D211D822F762F6A2FD2
:1011A00011249F5750408AF0E1F088234AF0EE0F57
:1011B000FF1FBB1F661F771F881F91505040A9F764
:1011C0009E3F510570F05CCFA6CF5F3FECF3983E99
:1011D000DCF3869577956795B795F795E7959F5FCB
:1011E000C1F7FE2B880F911D9695879597F9089565
:1011F000FA01EE0FFF1F30962105310599F16115B7
:10120000710561F48038BFE39B0749F16894903819
:10121000810561F08038BFEF9B0741F0992342F5CB
:10122000FF3FE1053105210511F1E8940894E795A8
:10123000D901AA2329F4AB2FBE2FF85FD0F310C039
:10124000FF5F70F4A695E0F7F73950F019F0FF3A18
:1012500038F49F779F930CD00F9007FC9058089517
:101260003EF014CF60E070E080E89FE308954FE720
:101270009F775F934F933F932F93A2D02F913F91EE
:101280004F915F9152DF09C0D7DE880B990B08950B
:1012900019F40EF0F5CE3ECFF9CE22DFC8F3963822
:1012A000C0F707F80F92E8942BE33AEA48EB5FE7C0
:1012B0004ADF0F920F920F924DB75EB70F92C0D0D8
:1012C000E4EEF0E016D04F915F91EF91FF91E5953C
:1012D000EE1FFF1F49F0FE57E0684427EE0F441F42
:1012E000FA95E1F74195550B32D00F9007FE26C0D5
:1012F0000895DF93CF931F930F93FF92EF92DF92A6
:101300007B018C01689405C0DA2EEF011ADFFE0123
:10131000E894A5912591359145915591AEF3EF0152
:10132000CBDDFE019701A801DA9479F7DF90EF9009
:10133000FF900F911F91CF91DF9108959B01AC0118
:1013400060E070E080E89FE3AEC09ACE14C1C8DED2
:10135000E8F39923D9F3940F511DBBF391505040FA
:1013600094F059F0882332F0660F771F881F915050
:101370005040C1F79E3F510544F7880F911D969547
:10138000879597F908955F3FACF0983E9CF0BB2796
:10139000869577956795B79508F4B1609395C1F7F1
:1013A000BB0F58F711F460FFE8CF6F5F7F4F8F4F8F
:1013B0009F4FE3CFB0CE0EF0DEC068CE689460CE13
:1013C0008FDEC8F39923D1F3C6F3DF93CF931F9336
:1013D0000F93FF92C92FDD2788232AF02197660FEC
:1013E000771F881FDAF720E030E040E85FEB9FE3EB
:1013F000883920F0803E30F021968F774CDDECE08C
:10140000F1E003C048DDE9E3F1E073DF8B01BE01E9
:10141000EC01FB2E6F5771097595771F880B990B9F
:10142000D0DD28E132E741E35FE38BDEAF2D9801A9
:10143000AE01FF900F911F91CF91DF913DDD37CE2F
:10144000FA01DC01AA0FBB1F9B01AC01BF5728F4B6
:1014500022273327442750781FC0B75188F4AB2F79
:101460000024469537952795011CA395D2F30020BB
:1014700069F0220F331F441FB395DAF30DD00ACD64
:1014800061307105A0E88A07B94630F49B01AC01D0
:101490006627772788279078309621F0208331833C
:1014A0004283538308950CD002CEFADD40F0F1DD83
:1014B00030F021F45F3F19F0E3CD51112CCEE6CD91
:1014C00007DE98F39923C9F35523B1F3951B550B08
:1014D000BB27AA2762177307840738F09F5F5F4F07
:1014E000220F331F441FAA1FA9F333D00E2E3AF048
:1014F000E0E830D091505040E695001CCAF729D062
:10150000FE2F27D0660F771F881FBB1F26173707B0
:101510004807AB07B0E809F0BB0B802DBF01FF27E0
:1015200093585F4F2AF09E3F510568F0A9CDF3CD47
:101530005F3FECF3983EDCF3869577956795B7951A
:10154000F7959F5FC9F7880F911D9695879597F935
:101550000895E1E0660F771F881FBB1F62177307AE
:101560008407BA0720F0621B730B840BBA0BEE1FC3
:1015700088F7E09508959F3F31F0915020F48795CA
:1015800077956795B795880F911D9695879597F9EB
:101590000895EE0FFF1F881F8BBF0790F691E02D77
:1015A000199469DCB7FF0895821B930B0895F89492
:0215B000FFCF6B
:1015B200000000000A027501A2015602D301B10126
:1015C200C5016E616E00696E66006F7666000D0A77
:0215D200000017
:00000001FF
