:1000000013C1000042C1000040C100003EC1000019
:100010003CC100003AC1000038C1000036C10000F8
:1000200034C100000C94100B0C94100B0C94100BAA
:100030002CC100002AC1000028C1000026C1000018
:1000400024C1000022C1000020C100001EC1000028
:100050001CC100001AC1000018C100000C94A309C3
:1000600014C100000C946D090C9444090EC10000E9
:100070000CC100000AC1000008C1000006C1000058
:1000800004C1000002C1000000C10000FEC0000069
:100090000C940E090C94E508F8C000000C94ED09CE
:1000A000F4C00000F2C00000F0C00000EEC000008C
:1000B000ECC00000EAC00000E8C00000E6C000009C
:1000C000E4C00000E2C00000E0C00000DEC00000AC
:1000D000DCC00000DAC00000D8C00000D6C00000BC
:1000E000D4C000004E414E494E495459494E46CD68
:1000F000CCCC3D0AD7233C17B7D13877CC2B3295DF
:1001000095E6241FB14F0A000020410000C84200BC
:10011000401C4620BCBE4CCA1B0E5AAEC59D740086
:10012000000A0B02090C0D0E080703040100000071
:1001300000000000000000000000000000000000BF
:10014000000000000000000000000012111000007C
:10015000000000000000000000000000000000009F
:10016000000000000000002200250028002B002EC7
:10017000003100340002010000050108010B0100FC
:10018000002100240027002A002D00300033000148
:10019000010000040107010A01050505050705081E
:1001A000080808020202020A0A08080404040401FA
:1001B000010101010101010303030303030303041C
:1001C0000707070C0C0C0C0C0C0C0C0202020206AC
:1001D000060606060606060B0B0B0B0B0B0B0B019C
:1001E0000210202008081020401020408002010248
:1001F0000108040201010204081020408080402010
:10020000100804020180040201804020100804024A
:1002100001080402010102040810204080010204C8
:10022000081020408000770B11241FBECFEFD1E2D1
:10023000DEBFCDBF00E00CBF27E0A6E6B3E001C003
:100240001D92A93BB207E1F713E0A0E0B2E0EEE2B5
:10025000F5E300E00BBF02C007900D92A636B10790
:10026000D9F711E0C4E1D1E000E006C0219701090F
:10027000802FFE010E942219C331D10780E00807B8
:10028000A9F70E94E50C0C94951ABACE90E0FC01F7
:10029000E152FE4F249187569E4FFC0184918823A2
:1002A00099F090E0880F991FFC01E158FE4FA5914D
:1002B000B491FC01EB59FE4F859194918FB7F8945E
:1002C000EC91E22BEC938FBF0895982F20912B0493
:1002D00081E0213208F043C0809107048111FCCFF6
:1002E00080912A0432E030930704909306049FEF34
:1002F000909305041092040420930304AAE0B4E050
:10030000E3EEF3E090E0291331C01092E203909104
:10031000E203880F892B8093E2038091E10381300F
:1003200049F51092E1038091E2038093BB00809134
:10033000BC0083FDF8CF85EC8093BC00809107045E
:100340008230E1F3809105048F3FB1F08091050484
:100350008032A1F080910504803391F084E0109206
:10036000090410922B041092080408953D913193D2
:100370009F5FC9CF85EEE0CF80E0F1CF82E0EFCF85
:1003800083E0EDCFFC0180818C3239F08A3229F094
:1003900081E0EF2B19F080E0089581E00895CF937C
:1003A000DF93EC01EFDF81111FC098819134B9F424
:1003B00081E08093E1058091230690912406A0912D
:1003C0002506B09126068093130690931406A093F9
:1003D0001506B093160681E0DF91CF91089596350A
:1003E000D9F71092E105F7CF80E0F6CF0895089590
:1003F000AF92BF92CF92DF92EF92FF920F931F9333
:10040000CF93DF936C017B018B01040F151FEB0170
:100410005E01AE18BF08C017D10759F06991D60127
:10042000ED91FC910190F081E02DC6011995892B89
:1004300079F7C501DF91CF911F910F91FF90EF9058
:10044000DF90CF90BF90AF900895FC01538D448D05
:10045000252F30E0842F90E0821B930B541710F06F
:10046000CF96089501970895FC01918D828D98177C
:1004700061F0A28DAE0FBF2FB11D5D968C91928D54
:100480009F5F9F73928F90E008958FEF9FEF089585
:10049000FC01918D828D981731F0828DE80FF11D4E
:1004A000858D90E008958FEF9FEF0895FC01918D69
:1004B000228D892F90E0805C9F4F821B91098F7362
:1004C000992708958DEC94E0F1DF21E0892B09F460
:1004D00020E0822F08958CE294E0E8DF21E0892B70
:1004E00009F420E0822F0895FC01A48DA80FB92FF4
:1004F000B11DA35ABF4F2C91848D90E001968F734C
:100500009927848FA689B7892C93A089B1898C916A
:10051000837080648C93938D848D981306C00288B9
:10052000F389E02D80818F7D80830895EF92FF9283
:100530000F931F93CF93DF93EC0181E0888F9B8D06
:100540008C8D98131AC0E889F989808185FF15C0C0
:100550009FB7F894EE89FF896083E889F9898081E3
:100560008370806480839FBF81E090E0DF91CF91B2
:100570001F910F91FF90EF900895F62E0B8D10E0D4
:100580000F5F1F4F0F731127E02E8C8D8E110BC044
:100590000FB607FCFACFE889F989808185FFF5CF8E
:1005A000CE01A2DFF2CFEB8DEC0FFD2FF11DE35A50
:1005B000FF4FF0829FB7F8940B8FEA89FB89808107
:1005C0008062D0CF682F8CE294E0B0CFCF93DF93DE
:1005D000EC01888D8823B1F0AA89BB89E889F98963
:1005E0008C9185FD03C0808186FD0CC00FB607FC91
:1005F000F7CF8C9185FFF2CF808185FFEDCFCE01C3
:1006000073DFEACFDF91CF91089580E090E0892BEE
:1006100021F061DF81110E94000080E090E0892BD1
:1006200021F050DF81110E94000080E090E0892BD2
:1006300049F080E090E0892B29F00E9400008111B0
:100640000E94000080E090E0892B49F080E090E07B
:10065000892B29F00E94000081110C94000008955C
:10066000282F30E0F901E15EFE4F9491F901E1524B
:10067000FE4F449127563E4FF9012491222309F45D
:1006800035C0992311F191509231F8F4E92FF0E03F
:100690008827E25BFC4F8F4F0C9422197F03830362
:1006A000600377037B03650386038C039003960343
:1006B0009A039E03A403A8036503AC03B203B60325
:1006C000809180008F7780938000E22FF0E0EE0F22
:1006D000FF1FEB59FE4FA591B4918FB7F894EC91A1
:1006E000611148C040954E234C938FBF089580916F
:1006F00080008F7DE8CF80918000877FE4CF84B534
:100700008F7784BDE2CF84B58F7DFBCF8091B00021
:100710008F778093B000D9CF8091B0008F7DF9CFD3
:10072000809190008F7780939000CFCF8091900040
:100730008F7DF9CF80919000877FF5CF8091A000C9
:100740008F778093A000C1CF8091A0008F7DF9CFDB
:100750008091A000877FF5CF809120018F778093D3
:100760002001B3CF809120018F7DF9CF80912001AE
:10077000877FF5CF4E2BB8CF3FB7F8948091AE036B
:100780009091AF03A091B003B091B10326B5A89B9F
:1007900005C02F3F19F00196A11DB11D3FBFBA2F13
:1007A000A92F982F8827BC01CD01620F711D811DD3
:1007B000911D42E0660F771F881F991F4A95D1F758
:1007C00008958F929F92AF92BF92CF92DF92EF9255
:1007D000FF924B015C01D0DF6B017C01CDDF6C1916
:1007E0007D098E099F09683E734081059105B0F32C
:1007F00021E0821A9108A108B10888EEC80E83E0B2
:10080000D81EE11CF11C81149104A104B10431F73C
:10081000FF90EF90DF90CF90BF90AF909F908F9020
:1008200008952FB7F8946091AA037091AB0380915B
:10083000AC039091AD032FBF089585ED8093BC006C
:100840008091BC0084FDFCCF109207040895209194
:100850008603260F3327331F21323105ECF4209114
:100860000704FC0190E080E0243069F082E0089504
:10087000A09186032191AC014A595C4FA40FB52F7A
:10088000B11D2C930196861798F380918603680F0B
:100890006093860380E0089581E008950895E091D3
:1008A000BC038091BB03E81730F4F0E0E354FC4F45
:1008B000808190E008958FEF9FEF08959091BC03A1
:1008C0008091BB032FEF3FEF981748F4E92FF0E03A
:1008D000E354FC4F208130E09F5F9093BC03C9013B
:1008E00008958091BB039091BC03891B990B0895D7
:1008F000CF92DF92EF92FF920F931F93CF93DF93EC
:100900007C01CB018A0120910804222389F0EB01AC
:100910006B01C40ED51ECC15DD0561F06991D701C0
:10092000ED91FC910190F081E02DC7011995F3CF75
:10093000642F8DDFC801DF91CF911F910F91FF9040
:10094000EF90DF90CF900895CF93DF931F92CDB7B4
:10095000DEB76983209108042223F9F020912B044B
:10096000203258F021E030E0FC013383228390E014
:1009700080E00F90DF91CF91089580910904E82FD6
:10098000F0E0E65FFB4F998190838F5F80930904CD
:1009900080932B0481E090E0ECCF61E0CE010196E2
:1009A00056DFF8CF089508958CBD9DBD08951F931F
:1009B000CF93DF93EC01FC01E254FF4F80819181E2
:1009C000009751F0DC01ED91FC910190F081E02D58
:1009D000DF91CF911F911994FE01EF53FF4F80815A
:1009E0009181009779F7162FFE01ED53FF4F80811B
:1009F0009181009769F4FE01EB53FF4F8081918153
:100A0000892B19F590E080E0DF91CF911F91089537
:100A1000FE01E25DFE4F208131E030930804209317
:100A20002A041092090410922B04DC01ED91FC9130
:100A30000190F081E02D1995019721F781E045DCC7
:100A40008111D9CF81E090E0DFCFFE01E853FF4F65
:100A500080819181A9DFC953DF4F888187FD02C062
:100A600060E0FEDD1EBD00000DB407FEFDCF8EB5BB
:100A7000888187FDE7CF61E0F3DDE4CF089590E062
:100A800080E008958F929F92AF92BF92CF92DF92B3
:100A9000EF92FF920F931F93CF93DF93EC0172DCE1
:100AA000811171C0CE010E94E2144B015C0120E172
:100AB00037E240E050E00E94E41820939E0524E6CF
:100AC000C22ED12CE12CF12CA70196010E94E41832
:100AD00020939F05C501B401A70196010E94E41867
:100AE0006093A0056EE270E0CE010E945D1A8C0159
:100AF0006CE270E0CE010E945D1A7C016AE270E057
:100B0000CE010E945D1A01151105C1F197018E15E4
:100B10009F0508F49C012115310581F10217130787
:100B200068F5CE010E94C21420E030E04AE754E4A8
:100B30000E94FF160E94A1187093A2056093A10560
:100B40008091230690912406A0912506B091260657
:100B50008093170690931806A0931906B0931A066F
:100B600081E0DF91CF911F910F91FF90EF90DF9087
:100B7000CF90BF90AF909F908F9008951092A20554
:100B80001092A105DDCF80E0ECCF2F923F924F92E3
:100B90005F926F927F928F929F92AF92BF92CF920D
:100BA000DF92EF92FF920F931F93CF93DF93CDB716
:100BB000DEB768970FB6F894DEBF0FBECDBF6C01ED
:100BC0007C8B6B8B5E8B4D8B388F2F8B1801DADB18
:100BD000182F811130C16EE270E0C6010E945D1ACB
:100BE0007C01009709F495C0AC014C195D094730B0
:100BF00051050CF08EC0B601CE0101960E94861AF6
:100C0000CE0101960E94E2144B015C01C7010E94D3
:100C1000C2146F87788B898B9A8B6CE270E0C70166
:100C20000E945D1A7C010196ADDB811172C0C50185
:100C3000B40124E630E040E050E00E9406192901AA
:100C40003A01ACE9BFEF0E942C199B01AC01280DC1
:100C5000391D4A1D5B1D2B873C874D875E87F70139
:100C6000018160E876E988E990E00E94D5182CE3DC
:100C700030E040E050E00E94061969017A01A301CA
:100C8000920160E876E988E990E00E94D5186C0D41
:100C90007D1D8E1D9F1D0E94A0166B017C0120E80A
:100CA00036E948E15BE46F85788989899A890E94F1
:100CB000FF1620E030E040E752E40E9434189B0128
:100CC000AC01C701B6010E94D0170E949C184B01CD
:100CD0005C010E94A01620E836E948E15BE40E942E
:100CE00034186B017C01802F8B7F833509F0A5C000
:100CF000B094A09490948094811C911CA11CB11C70
:100D0000F7FAF094F7F8F0940335E9F0073509F4B1
:100D10007DC0812F68960FB6F894DEBF0FBECDBFA1
:100D2000DF91CF911F910F91FF90EF90DF90CF90C7
:100D3000BF90AF909F908F907F906F905F904F90FB
:100D40003F902F90089520E030E0A901C701B6013F
:100D50000E94CD1818160CF04FC020E030E044EB94
:100D600052E4C701B6010E94CD18181694F220E093
:100D700030E044E353E4C701B6010E94CD181816D1
:100D800044F22D893E89232BE1F0A4E6B0E0A301D3
:100D900092010E94B6172B853C854D855E85620FBA
:100DA000731F841F951F0E94A0162F8538894989BB
:100DB0005A890E94D017ED89FE89608371838283EE
:100DC00093832F89388D2115310529F0F90180820F
:100DD0009182A282B3822B893C892115310529F0A9
:100DE000F901C082D182E282F3822114310411F030
:100DF000F101008311E08DCF20E030E044EB52ECB4
:100E0000C701B6010E949A1687FD83CF20E030E02B
:100E1000A901C701B6010E94CD1818160CF4A7CF7E
:100E200020E030E044E353ECC701B6010E949A167B
:100E300087FD6FCFA6CF10E06CCF0E3409F483CFBF
:100E4000053409F066CFE2CFCF92DF92EF92FF92A6
:100E50000F931F93CF93DF937C018B016B018EE285
:100E6000C81A88EFD80AF801C191D1918F0142E0E8
:100E700050E062E672E0CE010E94781A892BD9F028
:100E80000C151D05C1F0FE0101900020E9F7319716
:100E9000AF014C1B5D0BB701CE010E94781A892B64
:100EA00011F7CE01DF91CF911F910F91FF90EF903D
:100EB000DF90CF900895D0E0C0E0F3CFFB01019028
:100EC0000020E9F73197AF01461B570BDC01ED918C
:100ED000FC910280F381E02D19948F929F92AF9242
:100EE000BF920F931F93CF93DF93CDB7DEB7A19738
:100EF0000FB6F894DEBF0FBECDBF19A2423008F482
:100F00004AE08E010F5D1F4F842E912CB12CA12C35
:100F1000A50194010E94E418E62FB901CA01EA3044
:100F2000FCF4E05DD801EE938D01232B242B252BBF
:100F300079F790E080E0109721F0BD018CE294E019
:100F4000BDDFA1960FB6F894DEBF0FBECDBFDF9117
:100F5000CF911F910F91BF90AF909F908F90089568
:100F6000E95CE0CF682F70E090E080E04AE0B5CF28
:100F7000BC018CE294E0A2CFCF92DF92EF92FF927D
:100F8000CF93DF936C01990FEE08FF08F7FE1CC0AA
:100F90008DE218DBEC0166277727CB016C197D0900
:100FA0008E099F094AE099DFC80FD91F66E472E0F5
:100FB0008CE294E083DF8C0F9D1FDF91CF91FF9037
:100FC000EF90DF90CF9008954AE0C701B60185DF2A
:100FD000EC01ECCF4F925F926F927F928F929F9233
:100FE000AF92BF92CF92DF92EF92FF920F931F9337
:100FF000CF936B017C01742EAC019B010E94D11830
:1010000069E472E0811126C046015701E894B7F8FF
:101010002FEF3FEF4FE75FE7C501B4010E94D11802
:1010200081110CC02FEF3FEF4FE75FE7C501B4011F
:101030000E949A166DE472E0181664F02FEF3FEFED
:101040004FE75FE4C701B6010E94CD181816A4F45B
:1010500061E572E08CE294E0CF911F910F91FF90D7
:10106000EF90DF90CF90BF90AF909F908F907F9048
:101070006F905F904F9022CF2FEF3FEF4FE75FECE5
:10108000C701B6010E949A1687FDE2CF20E030E04A
:10109000A901C701B6010E949A1610E000E087FF7F
:1010A00007C08DE28FDA8C01F7FAF094F7F8F0942C
:1010B000C0E060E070E080E09FE37C1641F020E05B
:1010C00030E040E251E40E943418CF5FF6CFA70130
:1010D00096010E94D0172B013C010E94A1184B01E0
:1010E0005C014AE0FADE7C01E00EF11ECC23A1F1A6
:1010F000C501B4010E949E169B01AC01C301B2015F
:101100000E94CF174B015C018EE25CDAE80EF91EFB
:10111000C15010F120E030E040E251E4C501B401DB
:101120000E94FF162B013C010E94A1184B01B12C1B
:10113000A12C4AE0C501B401D0DEE80EF91EC501BC
:10114000B4010E949E169B01AC01C301B2010E9432
:10115000CF174B015C01DCCFC701CF911F910F91DD
:10116000FF90EF90DF90CF90BF90AF909F908F90C7
:101170007F906F905F904F900895CF93DF9342E000
:1011800029DFEC0166E472E08CE294E097DE8C0FDC
:101190009D1FDF91CF9108950F931F93CF93DF93FE
:1011A0008C01D0E0C0E06115710511F087DEEC0123
:1011B00066E472E0C80182DE8C0F9D1FDF91CF9143
:1011C0001F910F9108950C94CC191F920F920FB696
:1011D0000F9211240BB60F922F933F934F935F936F
:1011E0006F937F938F939F93AF93BF93EF93FF93EF
:1011F0008DEC94E079D9FF91EF91BF91AF919F91E0
:101200008F917F916F915F914F913F912F910F90AF
:101210000BBE0F900FBE0F901F9018951F920F924C
:101220000FB60F9211240BB60F922F938F939F93AB
:10123000EF93FF93E091DD04F091DE048081E09173
:10124000E304F091E40482FD1DC090818091E604E6
:101250008F5F8F732091E704821741F0E091E604DD
:10126000F0E0E353FB4F958F8093E604FF91EF91FD
:101270009F918F912F910F900BBE0F900FBE0F90EB
:101280001F9018958081F2CF1F920F920FB60F9288
:1012900011240BB60F922F933F934F935F936F934D
:1012A0007F938F939F93AF93BF93EF93FF938CE2C2
:1012B00094E01AD9FF91EF91BF91AF919F918F91D7
:1012C0007F916F915F914F913F912F910F900BBE46
:1012D0000F900FBE0F901F9018951F920F920FB690
:1012E0000F9211240BB60F922F938F939F93EF932E
:1012F000FF93E0913C04F0913D048081E091420431
:10130000F091430482FD1DC09081809145048F5F60
:101310008F7320914604821741F0E0914504F0E07C
:10132000E45DFB4F958F80934504FF91EF919F9172
:101330008F912F910F900BBE0F900FBE0F901F90AB
:1013400018958081F2CF1F920F920FB60F92112441
:101350002F933F938F939F93AF93BF938091AA0353
:101360009091AB03A091AC03B091AD033091A90370
:1013700023E0230F2D3758F50196A11DB11D2093B1
:10138000A9038093AA039093AB03A093AC03B093FB
:10139000AD038091AE039091AF03A091B003B091E3
:1013A000B1030196A11DB11D8093AE039093AF03CD
:1013B000A093B003B093B103BF91AF919F918F9170
:1013C0003F912F910F900FBE0F901F90189526E818
:1013D000230F0296A11DB11DD2CF1F920F920FB6FF
:1013E0000F9211240BB60F922F933F934F935F935D
:1013F0006F937F938F939F93AF93BF93EF93FF93DD
:101400008091B900887F803609F44CC008F03FC055
:10141000883209F4A8C028F5803109F49CC0C8F4CA
:10142000882309F4FAC0883009F495C0FF91EF9140
:10143000BF91AF919F918F917F916F915F914F91EC
:101440003F912F910F900BBE0F900FBE0F901F90EA
:101450001895883109F487C0803241F780930504DC
:1014600014C0803409F49CC040F48033B9F388334D
:10147000E9F68093050485ECAFC0803509F484C09B
:10148000883509F495C0883489F6D7D9CFCF883903
:1014900009F48CC038F5883729F050F4883611F0FB
:1014A000803721F683E0809307041092A80357C089
:1014B000883809F47BC0803919F0803809F0B6CF3C
:1014C0008091A803803208F071C0E091A80381E008
:1014D0008E0F8093A8038091BB00F0E0E857FC4F8B
:1014E00080833DC0803B39F0E0F4803A09F479C054
:1014F000883A09F09BCF84E0809307041092870319
:1015000010928603E091B503F091B603199580918E
:10151000860381110FC081E08093860310926603D9
:1015200009C0803C09F4A7CF883C09F4A4CF883BCC
:1015300009F07CCFE091870381E08E0F80938703D1
:10154000F0E0EA59FC4F80818093BB0090918703C3
:101550008091860329C08091E2038093BB0085ECD3
:101560008093BC0063CF909104048091030498178A
:1015700058F5E091040481E08E0F80930404F0E0BC
:10158000ED51FC4F8081E9CFE091040481E08E0FA2
:10159000809304048091BB00F0E0ED51FC4F808308
:1015A00090910404809103049817C8F285E8D8CF7D
:1015B000E091040481E08E0F809304048091BB00CD
:1015C000F0E0ED51FC4F80838091060481115DCFE6
:1015D00081E08093E10384EA8093BC0010920704C9
:1015E00025CF85EC8093BC00109207048091A8035E
:1015F000803230F4E091A803F0E0E857FC4F10820D
:101600006091A80370E0E091B303F091B40388E81F
:1016100093E019951092A80309CF1092050435CFD5
:101620001F920F920FB60F9211240BB60F922F93A9
:101630003F938F939F93AF93BF93CF93DF93EF939A
:10164000FF93E091B903F091BA03309749F0A68572
:10165000B7859585868D81FF14C08C918923A1F46F
:10166000FF91EF91DF91CF91BF91AF919F918F91BA
:101670003F912F910F900BBE0F900FBE0F901F90B8
:1016800018958C91892361F7A389B4899C918589E8
:10169000809589238C93868997890197F1F7208D0E
:1016A000318DC685D78588E0D9011197F1F79881EA
:1016B0008150D1F78091B80390E001968F739927FC
:1016C0002091B703281779F09091B8038093B8035D
:1016D000828D938D0197F1F7A389B4898C919589B7
:1016E000892B8C93BDCF868D8160868FF1CFCF9370
:1016F000DF93CDECD4E01B821A8248EE53E060E029
:1017000070E04C835D836E837F8388E292E09983EF
:1017100088832DEC30E03D872C872CEC30E03F8730
:101720002E8728EC30E0398B288B29EC30E03B8B7E
:101730002A8B2AEC30E03D8B2C8B2EEC30E03F8B5B
:101740002E8B198E1A8E1B8E1C8EECE2F4E0138207
:10175000128244835583668377839183808385ECEB
:1017600090E09587848784EC90E09787868780EC6B
:1017700090E0918B808B81EC90E0938B828B82EC5C
:1017800090E0958B848B86EC90E0978B868B118E06
:10179000128E138E148E8AE695E0DC0113961C924D
:1017A0001E9212972AE332E011963C932E931596DF
:1017B0001C921E921497FC0116821782108624E157
:1017C000E3E7F5E0DF01322F1D923A95E9F7DC01FE
:1017D0005D961D921D921C92EAE8F5E0DF011D92D4
:1017E0002A95E9F72CE0E6E0F2E0A1EFB5E0019000
:1017F0000D922A95E1F72AE0E2E1F2E0ADEFB5E0E3
:1018000001900D922A95E1F728E0ECE1F2E0A7E0E3
:10181000B6E001900D922A95E1F740E054E965E3C6
:1018200077E740930F06509310066093110670936C
:101830001206409313065093140660931506709396
:101840001606409317065093180660931906709376
:101850001A0640931B0650931C0660931D06709356
:101860001E0640931F065093200660932106709336
:101870002206409323065093240660932506709316
:10188000260610922A062FEF2093310631E5309379
:101890003206109233062093B9061092BA061092BF
:1018A000BB06ECEAF7E01082109229061092280697
:1018B00010922E0610922D061092300610922F06CE
:1018C0001092B1071092270610822CEB36E030936D
:1018D000AE072093AD0724E337E03093B0072093A1
:1018E000AF071092E4051092E3051092E205FC01A7
:1018F00013AE12AE11AE16AA15AA14AA1092E005E4
:101900001092DF051092DE051092E10510AE17AAC5
:101910001092DA051092DB051092DC051092DD05BD
:101920001092D6051092D7051092D8051092D905BD
:101930001092D2051092D3051092D4051092D505BD
:101940001092CE051092CF051092D0051092D105BD
:101950001092CA051092CB051092CC051092CD05BD
:101960001092C6051092C7051092C8051092C905BD
:101970001092C2051092C3051092C4051092C505BD
:101980001092BE051092BF051092C0051092C105BD
:101990001092AA051092AB051092AC051092AD05FD
:1019A00014AE15AE16AE17AED0932C06C0932B0610
:1019B0000E9411046093C9047093CA048093CB04FD
:1019C0009093CC04DF91CF910895789484B5826090
:1019D00084BD84B5816084BD85B5826085BD85B5D3
:1019E000816085BD80916E00816080936E00109251
:1019F00081008091810082608093810080918100CC
:101A0000816080938100809180008160809380005C
:101A10008091B10084608093B1008091B0008160BA
:101A20008093B000809191008260809391008091BA
:101A300091008160809391008091900081608093FB
:101A400090008091A10082608093A1008091A1000C
:101A500081608093A1008091A00081608093A000AC
:101A60008091210182608093210180912101816018
:101A700080932101809120018160809320018091D9
:101A80007A00846080937A0080917A0082608093EB
:101A90007A0080917A00816080937A0080917A0048
:101AA000806880937A001092C100E0913C04F0912C
:101AB0003D0482E08083E0913804F0913904108283
:101AC000E0913A04F0913B0480E180831092440459
:101AD000E0914004F091410486E08083E0913E046F
:101AE000F0913F04808180618083E0913E04F09119
:101AF0003F04808188608083E0913E04F0913F0440
:101B0000808180688083E0913E04F0913F04808171
:101B10008F7D808361E872E08CE294E03DDBE091B0
:101B20002806F0912906309709F495C0138E128E7D
:101B3000118E108E178A168A8DE991E0958F848F09
:101B4000848596EF980F943048F02EEC280F2430BF
:101B500028F022EC280F283008F055C02DEB30E09B
:101B6000378B268B2BE931E0318F208F2CE231E04F
:101B7000338F228F943050F02EEC280F243030F029
:101B800022EC280FB0E0A0E0283010F4A8E6B0E086
:101B90002C91943028F032EC380F383008F4DEC144
:101BA00031E0232B943048F09EEC980F943028F0CD
:101BB0008E53B0E0A0E0883010F4A8E6B0E02C939B
:101BC000248536EF320F343008F4CAC18EEC820F10
:101BD000843008F4C5C182EC820F883008F0C3C19C
:101BE0008DE690E0948B838B343008F0BFC1265093
:101BF000330B81E001C0880F2A95EAF7858B848D2D
:101C0000958D0197F1F7828D938D892B21F1A0910C
:101C1000B903B091BA03EA17FB07E9F0109751F046
:101C20005396CD91DC915497988155968C918095DF
:101C300089238883868D8E7F868F1092B8031092B9
:101C4000B703F093BA03E093B903A389B4898C91E5
:101C50009589892B8C93E0912B06F0912C06309777
:101C600029F1A089B18982E08C93A485B5851C9265
:101C7000A685B7858FEC8C93108EA489B58986E0F4
:101C80008C93A289B3898C9180618C93A289B3894A
:101C90008C9188608C93A289B3898C9180688C9395
:101CA0000288F389E02D80818F7D808380912D06CD
:101CB00090912E06892B09F46EC11092BC031092EC
:101CC000BB031092090410922B0410920704C1E088
:101CD000C09306041092E10361E084E10E943003A6
:101CE00061E085E10E9430038091B9008E7F80938E
:101CF000B9008091B9008D7F8093B90088E480930A
:101D0000B80085E48093BC0086EF91E09093B60321
:101D10008093B50387EF91E09093B4038093B3036E
:101D200080E180939806C093080480932A0410925F
:101D3000090410922B0481E00E94650162EA72E0BE
:101D40008AE695E029DA64ED72E08AE695E024DA25
:101D500065EE72E08AE695E01FDA68EE73E080E0F7
:101D600090E00E94E10364EF72E08DEC94E014DAFD
:101D700084E3282E87E0382E94E6892E912CA12C1E
:101D8000B12C0E9411042B013C0180912706811186
:101D9000C9C180912A068111C5C180912806909100
:101DA0002906009709F445C1DC01ED91FC910084FE
:101DB000F185E02D1995892B09F4B4C1809128068D
:101DC00090912906DC01ED91FC910284F385E02DD0
:101DD0001995C82F80912B0690912C060097B1F091
:101DE000DC01ED91FC910084F185E02D1995892BA2
:101DF00009F498C180912B0690912C06DC01ED919D
:101E0000FC910284F385E02D1995C82F80912D0651
:101E100090912E06892B89F08091BA069091B9068F
:101E200098170CF408C1E82F082E000CFF0BE7569A
:101E3000F94FC0818F5F8093BA0680912F069091F1
:101E40003006892B81F180913206909133060E94F1
:101E5000D4048091310687FD03C060E00E94300306
:101E6000EFEFEEBD00000DB407FEFDCFCEB58091C3
:101E7000310687FD03C061E00E943003CA3021F4BF
:101E80008091BB068D30F9F60C2F0C2E000C110B37
:101E9000C8010E94571A892B21F4C8012BD7892B1E
:101EA00091F2C093BB068091AD079091AE07E0918F
:101EB000AC0721E02E0F2093AC07E80FF92FF11D9E
:101EC000C0838091AC07883718F0F7E7F093AC0730
:101ED000C090DD03D090DE03E090DF03F090E003DC
:101EE000CA3009F069C1E091AC078091AD079091CB
:101EF000AE07E80FF92FF11D10828091AD07909188
:101F0000AE0726E08C3B920709F04BC13092AE073A
:101F10002092AD079093B0078093AF071092AC0763
:101F200081E08093B1070E94110460931F067093B3
:101F300020068093210690932206C0922306D09219
:101F40002406E0922506F09226061092DD031092F8
:101F5000DE031092DF031092E003E4C034E021CEF0
:101F60008BE690E03FCE90E080E03CCE88E02233EC
:101F700009F444CE84E0233309F440CE82E02433D4
:101F800009F43CCE82EC820F883018F42E53330BC8
:101F900030CE81E033CE80912F0690913006892B90
:101FA00009F440C0CFB7F8948091B203811124C0E6
:101FB000EEECF1E08491E4E1F2E09491E82FF0E0BE
:101FC000EE0FFF1FE158FE4FA591B491EC91E9236C
:101FD00021F461E085E30E94300385E30E9446011D
:101FE0008CB580618CBD8CB580648CBD84E30E940F
:101FF000460183E30E9446018091B2038F5F809384
:10200000B203CFBF83E580933206109233068091EE
:10201000310687FD07C00E94460161E080913106CC
:102020000E9430036AE070E080E090E00E94E103EB
:1020300085CEC0E0CFCE809107048111FCCF81E036
:102040008093070480930604BFEFB09305041092B9
:102050000404EFE1E09303048093E2038091E20340
:1020600080628093E2038091E103813009F093C0A4
:102070001092E1038091E2038093BB008091BC0049
:1020800083FDF8CF85EC8093BC00809107048130FC
:10209000E1F38091040490E2803210F49091040402
:1020A000A3EEB3E0EDEBF3E080E0891376C010928D
:1020B000BC038093BB038032A9F51092B906C0E23D
:1020C000D0E080912D0690912E06DC01ED91FC91DF
:1020D0000284F385E02D19958A3021F49091BB0696
:1020E0009D3071F48093BB069091B906E92F092EBB
:1020F000000CFF0BE756F94F80839F5F9093B90662
:102100002197F9F68091B90681508093B906811123
:1021100007C0809199068A3019F4BFEFB093B906D1
:102120001092BA068091B107882309F472C1109207
:10213000B1076091AF077091B0078CE294E02CD8A2
:102140001092B1070091AF071091B00710926F0580
:1021500010926E051092700510927305D8018C9143
:10216000843219F0813209F063C2E1E0F0E0F093CB
:102170006F05E0936E05C801FC01019620812111D5
:10218000FBCF80818A3209F4D6C30E171F0708F0EF
:102190004FC23197F6CF85EE76CF2D9121938F5F89
:1021A00084CF8CEB96E09093AE078093AD0730928E
:1021B000B0072092AF07B2CECD28CE28CF2809F0A5
:1021C000B1CF4092DD035092DE036092DF03709244
:1021D000E003A8CF9FEB980F8753963008F4B3C362
:1021E00080E0B1C39FEB980F8753963008F4B7C3D4
:1021F00080E0B5C3892B09F01BC2E3E0F0E0F09367
:102200006F05E0936E0561EF75E0C7010E9424073A
:10221000EC01009709F40CC2BC0180E795E00E9434
:10222000711A8DE090E090936F0580936E05FE012A
:1022300001900020E9F73197DF01AC1BBD0BED01E8
:10224000CE0DDF1D6DEF75E0CE010E9424070097D3
:1022500009F4DDC1BC0183E795E00E94711AE9E44D
:10226000F0E0F0936F05E0936E056CE270E0C8015A
:102270000E945D1AEC01219665E672E083E795E025
:102280000E94681A892B09F014C2CE010E944205EF
:102290006CE270E0CE010E945D1AEC0121960EED19
:1022A00015E02EEA35E046EA55E066EB75E0CE0132
:1022B0000E94C5056CE270E0CE010E945D1A6CE2DE
:1022C00070E001960E945D1AEC0121960FED15E079
:1022D00022EB35E04AEA55E06AEB75E0CE010E9458
:1022E000C5056CE270E0CE010E945D1A6CE270E000
:1022F00001960E945D1AEC012196CE010E94C20156
:1023000081111AC0CE0141D38093E205882309F4DC
:10231000CDC181E08093E105809123069091240650
:10232000A0912506B091260680931306909314067B
:10233000A0931506B09316066CE270E0CE010E94E1
:102340005D1AEC012196CE010E94C201811104C0E8
:10235000CE011BD38093E4056CE270E0CE010E94B5
:102360005D1AEC012196CE010E94C20181110AC0C2
:10237000CE0108D36093D2057093D3058093D40522
:102380009093D5056CE270E0CE010E945D1AEC01DD
:102390002196CE010E94C20181110AC0CE01F2D263
:1023A0006093C2057093C3058093C4059093C505DF
:1023B0006CE270E0CE010E945D1A6CE270E0019662
:1023C0000E945D1AEC012196CE010E94C20181118A
:1023D0000AC0CE01D7D26093BE057093BF0580932B
:1023E000C0059093C10560E775E087E895E00E941D
:1023F000711A63E775E08AE895E00E94711A0E94FD
:10240000110460930F067093100680931106909349
:1024100012060E9411040091C9041091CA0420916F
:10242000CB043091CC04601B710B820B930B613D8C
:1024300077408105910508F4FBC00E941104609368
:10244000C9047093CA048093CB049093CC0480E0B9
:1024500093E00E94B80780919E058A3018F480E3CB
:102460000E94E20280919E050E94B2078AE30E94C8
:10247000E20280919F058A3018F480E30E94E20214
:1024800080919F050E94B2078AE30E94E202809138
:10249000A0058A3018F480E30E94E2028091A00532
:1024A0000E94B2078EE20E94E2028091A105909103
:1024B000A2058A30910508F036C288E093E00E94B8
:1024C000B8076091A1057091A20590E080E04AE014
:1024D0000E946D0766E472E08CE294E00E945E0761
:1024E0008BE093E00E94B8078091A5050E94B20797
:1024F0008FE20E94E2028091A4050E94B20782E16D
:1025000093E00E94B8078091A3050E94B20766E499
:1025100072E08CE294E00E945E0786E193E00E9404
:10252000B8076091E10570E090E080E04AE00E9429
:102530006D078CE193E00E94B8078091E20590E07E
:102540000E94BC078091E105882309F471C087E2ED
:1025500093E00E94B8076091A6057091A70580914D
:10256000A8059091A90544E00E94EA078091DE0544
:102570000E94E20282E393E00E94B8076091AA05FC
:102580007091AB058091AC059091AD0544E00E943F
:10259000EA078091DF050E94E20266E472E08CE2C5
:1025A00094E00E945E0785E393E00E94B807609183
:1025B000C6057091C7058091C8059091C9050E9414
:1025C000BD0885E493E00E94B8076091CA05709148
:1025D000CB058091CC059091CD050E94BD088DE47E
:1025E00093E00E94B8076091C2057091C305809185
:1025F000C4059091C5050E94BD0888E593E00E943E
:10260000B8078091E40590E00E94BC0711C067E024
:1026100076E0CE010E942407009769F0BC0183E7B1
:1026200095E05FD781E290E090936F0580936E050F
:102630000E940503A6CB6CE270E0CE013ED7009766
:1026400091F08C010C1B1D0B0431110514F003E1FA
:1026500010E0A801BE0183E795E058D7F801ED58D6
:10266000FA4F1082E5CF6AE270E0CE0126D70097DC
:1026700051F08C010C1B1D0BA8010431110554F302
:1026800043E150E0E7CFDE010D900020E9F7AD0116
:10269000415051094C1B5D0B4331510510F043E192
:1026A00050E0BE0183E795E031D7C2CF1092E1053B
:1026B00043CE61E772E083E795E00AD7892B09F002
:1026C00094C0CE010E9442056CE270E0CE01F5D6C6
:1026D000EC012196CE010E94CF016CE270E0CE01A8
:1026E000ECD6EC0121960EED15E02EEA35E046EA37
:1026F00055E066EB75E0CE010E94C5056CE270E026
:10270000CE01DBD66CE270E00196D7D6EC012196C3
:102710000FED15E022EB35E04AEA55E06AEB75E093
:10272000CE010E94C5056CE270E0CE01C6D66CE217
:1027300070E00196C2D6EC012196CE010E94C20142
:1027400081110AC0CE011ED16093C6057093C705E2
:102750008093C8059093C9056CE270E0CE01ADD6B8
:10276000EC012196CE010E94C20181110AC0CE0166
:1027700009D16093CA057093CB058093CC059093E3
:10278000CD056CE270E0CE0198D6EC012196CE0129
:102790000E94C201811127CECE01F4D0D2D42B01E8
:1027A0003C0120E137E240E050E00ED52093A50542
:1027B000A501940109D52093A405C301B201A50187
:1027C000940102D56093A30580912306909124067D
:1027D000A0912506B091260680931B0690931C06B7
:1027E000A0931D06B0931E06FECD69E672E083E756
:1027F00095E06ED6892BA9F50EED15E02EEA35E0B1
:1028000046EA55E066EB75E0CE010E94C5056CE234
:1028100070E0CE0152D66CE270E001964ED6EC012B
:1028200021960FED15E022EB35E04AEA55E06AEB20
:1028300075E0CE010E94C5056CE270E0CE013DD688
:102840006CE270E0019639D6EC012196CE010E942F
:1028500042056CE270E0CE0130D601960E94CF01B5
:10286000C2CD6DE672E083E795E032D6892B09F0A0
:10287000DFCE6CE270E0CE0120D6EC012196CE01D5
:102880000E94C201811104C0CE017FD08093E30574
:102890006CE270E0CE0111D6EC0121960CE010E064
:1028A0006CE270E0CE0109D6EC01219601501109CD
:1028B000B9F7CE010E94C20181110AC0CE0162D0D7
:1028C0006093DA057093DB058093DC059093DD055A
:1028D0006CE270E0CE01F1D5EC012196CE010E94B0
:1028E000C20181110AC0CE014DD06093D205709310
:1028F000D3058093D4059093D5056CE270E0CE01AA
:10290000DCD5EC012196CE010E94C20181116BCD74
:10291000CE0138D06093D6057093D7058093D80543
:102920009093D90560CD0A978A35910508F0C9CDF5
:1029300089E093E0C4CD818180330CF451CC8A339B
:102940000CF048CC805390E1899F90011124828142
:1029500080330CF44DCC8A330CF044CC8053820F7E
:10296000932F911D7801AFEFEA1AFA0AD701AE173B
:10297000BF0708F03FCC2D91022E000C330B8227AD
:102980009327F5CF6627772760C0FC018827992712
:10299000E89421912032E9F3293010F02E30C8F369
:1029A0002B3239F02D3231F4689403C046D0820FB7
:1029B000911D219120532A30C8F31EF490958195E2
:1029C0009F4F08951F93FC0199278827BC01E89425
:1029D00011911032E9F3193010F01E30C8F31B3298
:1029E00049F01D3241F4689405C012D0610F711D89
:1029F000811D911D119110531A30B8F33EF490953A
:102A00008095709561957F4F8F4F9F4F1F910895CF
:102A1000592F482F372F262F660F771F881F991F92
:102A2000660F771F881F991F620F731F841F951FE2
:102A3000660F771F881F991F08957AE0979F902D42
:102A4000879F802D910D112408958F929F92AF92B0
:102A5000BF92CF92DF92EF92FF920F931F93CF938B
:102A6000DF935C017B016115710519F0DB018D932A
:102A70009C9385010F5F1F4FF501D0818D2F90E052
:102A800039D16C01892BA9F5DD32A9F50F5F1F4FF4
:102A9000D5011196DC91C1E05801F1E0AF1AB108FF
:102AA00043E050E06CEE70E0C5012CD1892B61F55C
:102AB000680182E0C80ED11C45E050E067EE70E08E
:102AC000C60120D1892B21F4680197E0C90ED11CE1
:102AD000E114F10419F0D701CD92DC9260E070E0CE
:102AE00080E89FEFC111F9C060E070E080E89FE7E7
:102AF000F4C05801BECFDB3229F485010E5F1F4FB1
:102B0000F501D181C0E0C8CF43E050E064EE70E051
:102B1000C501F8D0892BE9F0F80110E000E020E0D1
:102B200030E0A9015F01B0ED8B2E8D0E89E0881594
:102B3000C0F19C2E689491F88C2F8870C2FF16C04B
:102B4000811102C00F5F1F4F3196D501DC91C92D55
:102B5000E9CFE114F10429F00E5F1F4FF701118353
:102B6000008360E070E080EC9FE7B7C0882311F03D
:102B700001501109A5E0B0E0F9D19B01AC01220F91
:102B8000331F441F551F280D311D411D511D28396C
:102B900099E93907490799E15907B0F2C6609C2EB7
:102BA000D3CFAEEF8A1206C0C3FD3CC09C2E689402
:102BB00093F8CACFDF7DD534A9F580818D3239F401
:102BC000C061DF011296818162E070E006C0DF0122
:102BD0008B32C1F3119661E070E080535D01A61A5B
:102BE000B70A8A30F8F4E0E8CE16ECE0DE065CF4D2
:102BF000B601660F771F660F771FC60ED71ECC0C67
:102C0000DD1CC80ED11C5D01FFEFAF1ABF0A8C910D
:102C100080538A3098F1C4FF03C0D194C194D10885
:102C20000C0D1D1DC1FF09C0E114F10431F081E05C
:102C3000A81AB108D701AD92BC92CA01B9017ED0E1
:102C4000C370C33009F490584B015C0120E030E0C0
:102C5000A90170D0882309F43EC0CBE1D1E017FF71
:102C600005C0119501951109C3E0D1E06E01B8E1ED
:102C7000CB1AD10880E2E82EF12C0EC0D501B3CFDB
:102C8000FE0125913591459154910E191F09C501F9
:102C9000B401B5D04B015C01D501C4010E151F056F
:102CA0007CF72497F594E794CC16DD06A9F78A2FD4
:102CB000880F8B2F881F8F3F41F020E030E0A90163
:102CC000C501B40137D0811106C082E290E0909333
:102CD000B4078093B307C501B401DF91CF911F9171
:102CE0000F91FF90EF90DF90CF90BF90AF909F90AB
:102CF0008F9008959111E6C0803219F08950855067
:102D0000D0F70895FB01DC014150504088F08D91CF
:102D100081341CF08B350CF4805E659161341CF0BD
:102D20006B350CF4605E861B611171F3990B08958D
:102D3000881BFCCF40D008F481E00895E89409C0D6
:102D400097FB3EF490958095709561957F4F8F4FDE
:102D50009F4F9923A9F0F92F96E9BB279395F695F4
:102D6000879577956795B795F111F8CFFAF4BB0F72
:102D700011F460FF1BC06F5F7F4F8F4F9F4F16C0D6
:102D8000882311F096E911C0772321F09EE8872F60
:102D9000762F05C0662371F096E8862F70E060E01C
:102DA0002AF09A95660F771F881FDAF7880F969595
:102DB000879597F90895990F0008550FAA0BE0E839
:102DC000FEEF16161706E807F907C0F012161306ED
:102DD000E407F50798F0621B730B840B950B39F42D
:102DE0000A2661F0232B242B252B21F408950A2693
:102DF00009F4A140A6958FEF811D811D08950BD088
:102E00007BC06CD028F071D018F0952309F05DC01C
:102E100062C01124A5C081D0A0F3959FD1F3950F76
:102E200050E0551F629FF001729FBB27F00DB11D4E
:102E3000639FAA27F00DB11DAA1F649F6627B00DDE
:102E4000A11D661F829F2227B00DA11D621F739FC7
:102E5000B00DA11D621F839FA00D611D221F749FD5
:102E60003327A00D611D231F849F600D211D822F1C
:102E7000762F6A2F11249F5750408AF0E1F0882363
:102E80004AF0EE0FFF1FBB1F661F771F881F915070
:102E90005040A9F79E3F510570F017C061C05F3FD9
:102EA000ECF3983EDCF3869577956795B795F795A3
:102EB000E7959F5FC1F7FE2B880F911D969587952B
:102EC00097F9089599278827089597F99F6780E8CB
:102ED00070E060E008959FEF80EC089500240A946C
:102EE0001616170618060906089500240A941216E5
:102EF0001306140605060895092E0394000C11F418
:102F0000882352F0BB0F40F4BF2B11F460FF04C0C4
:102F10006F5F7F4F8F4F9F4F089557FD9058440F1D
:102F2000551F59F05F3F71F04795880F97FB991F28
:102F300061F09F3F79F087950895121613061406E5
:102F4000551FF2CF4695F1DF08C016161706180672
:102F5000991FF1CF86957105610508940895E8944D
:102F6000BB2766277727CB0197F9089509D0A59F3E
:102F7000900DB49F900DA49F800D911D1124089574
:102F8000A29FB001B39FC001A39F700D811D1124AA
:102F9000911DB29F700D811D1124911D08955058EF
:102FA000BB27AA270ED0A8CF99DF30F09EDF20F0F4
:102FB00031F49F3F11F41EF48ECF0EF4E095E7FB41
:102FC00084CFE92FAADF80F3BA176207730784075B
:102FD000950718F071F49EF5C2CF0EF4E0950B2E14
:102FE000BA2FA02D0B01B90190010C01CA01A0015B
:102FF0001124FF27591B99F0593F50F4503E68F1B6
:103000001A16F040A22F232F342F4427585FF3CFF6
:10301000469537952795A795F0405395C9F77EF4C7
:103020001F16BA0B620B730B840BBAF09150A1F010
:10303000FF0FBB1F661F771F881FC2F70EC0BA0F96
:10304000621F731F841F48F4879577956795B7951E
:10305000F7959E3F08F0B3CF9395880F08F0992716
:10306000EE0F9795879508950CD046CF3EDF40F040
:1030700035DF30F021F45F3F19F027CF511170CFC9
:103080002ACF4BDF98F39923C9F35523B1F3951B4E
:10309000550BBB27AA2762177307840738F09F5F79
:1030A0005F4F220F331F441FAA1FA9F333D00E2EE8
:1030B0003AF0E0E830D091505040E695001CCAF755
:1030C00029D0FE2F27D0660F771F881FBB1F26171A
:1030D00037074807AB07B0E809F0BB0B802DBF01ED
:1030E000FF2793585F4F2AF09E3F510568F0EDCEC1
:1030F00037CF5F3FECF3983EDCF386957795679585
:10310000B795F7959F5FC9F7880F911D969587959D
:1031100097F90895E1E0660F771F881FBB1F6217BC
:1031200073078407BA0720F0621B730B840BBA0B7A
:10313000EE1F88F7E095089504D06894B11110CF80
:103140000895F3DE88F09F5790F0B92F9927B75173
:10315000A0F0D1F0660F771F881F991F1AF0BA955B
:10316000C9F712C0B13081F0FADEB1E00895F7CEB0
:10317000672F782F8827B85F39F0B93FCCF3869551
:1031800077956795B395D9F73EF4909580957095AE
:1031900061957F4F8F4F9F4F08950DDE08F48FEF9D
:1031A000089509DE880B990B0895DB018F939F9397
:1031B000DDDEBF91AF91A29F800D911DA39F900D69
:1031C000B29F900D11240895A1E21A2EAA1BBB1BD9
:1031D000FD010DC0AA1FBB1FEE1FFF1FA217B307E3
:1031E000E407F50720F0A21BB30BE40BF50B661FF9
:1031F000771F881F991F1A9469F7609570958095BD
:1032000090959B01AC01BD01CF010895052E97FB60
:1032100016F400940FD057FD05D0D6DF07FC02D07E
:1032200046F408C050954095309521953F4F4F4F3B
:103230005F4F089590958095709561957F4F8F4F62
:103240009F4F0895EE0FFF1F881F8BBF0790F691C9
:10325000E02D1994B7FF8ACE89DE821B930B089567
:103260000F931F93CF93DF938230910510F482E088
:1032700090E0E091B707F091B80730E020E0B0E0CF
:10328000A0E0309799F42115310509F44AC0281BB4
:10329000390B24303105D8F58A819B816115710580
:1032A00089F1FB0193838283FE0111C0408151812A
:1032B0000281138148175907E0F04817590799F41C
:1032C000109761F012960C93129713961C933296F6
:1032D000CF01DF91CF911F910F9108950093B70710
:1032E0001093B807F4CF2115310551F04217530759
:1032F00038F0A901DB019A01BD01DF01F801C1CF5E
:10330000EF01F9CF9093B8078093B707CDCFFE01B7
:10331000E20FF31F8193919322503109398328835F
:10332000D7CF2091B5073091B607232B41F42091D8
:103330000202309103023093B6072093B507209123
:103340000002309101022115310541F42DB73EB73D
:103350004091040250910502241B350BE091B50702
:10336000F091B607E217F307A0F42E1B3F0B2817C6
:10337000390778F0AC014E5F5F4F2417350748F0EE
:103380004E0F5F1F5093B6074093B50781939193FB
:103390009FCFF0E0E0E09CCFCF93DF930097E9F080
:1033A000FC01329713821282A091B707B091B8073F
:1033B000ED0130E020E01097A1F420813181820FEF
:1033C000931F2091B5073091B6072817390709F0E8
:1033D00061C0F093B607E093B507DF91CF910895F0
:1033E000EA01CE17DF07E8F54A815B819E014115AE
:1033F0005105B1F7E901FB83EA8349915991C40F63
:10340000D51FEC17FD0761F4808191810296840F2E
:10341000951FE90199838883828193819B838A83A5
:10342000F0E0E0E012968D919C9113970097B9F52A
:103430002D913C911197CD010296820F931F2091FF
:10344000B5073091B6072817390739F6309751F587
:103450001092B8071092B707B093B607A093B507BC
:10346000BCCFD383C28340815181840F951FC8177D
:10347000D90761F44E5F5F4F88819981480F591FCA
:10348000518340838A819B819383828321153105F7
:1034900009F0B0CFF093B807E093B7079ECFFD01D6
:1034A000DC01C0CF13821282D7CF803209F0911194
:1034B00009CD80528F55E0F70895FC018191861760
:1034C00021F08823D9F7992708953197CF010895DE
:1034D000FB01DC018D91019080190110D9F3990B4A
:1034E0000895FB01DC0101900D920020E1F70895A1
:1034F000FB01DC014150504030F08D91019080196A
:1035000019F40020B9F7881B990B0895FB01DC0121
:103510004150504048F001900D920020C9F701C081
:0E3520001D9241505040E0F70895F894FFCFFF
:10352E000000B9078000550258025B025E025C0281
:10353E006102650269026D02710261027502790211
:10354E007D026102000000009602F8012502E602EB
:10355E0056023402480200000000D704F8013F056D
:10356E003E05D204E3080D0A006E616E00696E66B8
:10357E00006F766600494900574900475000474E94
:10358E00005A5A5A0047474100474C4C0047534196
:10359E0000524D43004442540048444D00484454A8
:1035AE0000416461667275697420475053206C69DE
:1035BE0062726172792062617369632074657374DB
:1035CE00210024504D544B3331342C302C312C30BF
:1035DE002C312C302C302C302C302C302C302C30FC
:1035EE002C302C302C302C302C302C302C302C30ED
:1035FE002A32380024504D544B3232302C31303078
:10360E00302A314600245047434D442C33332C315D
:10361E002A36430024504D544B3630352A33310070
:10362E000A54696D653A2000303000446174653A81
:10363E0020002F3230004669783A200020717561E3
:10364E006C6974793A20004C6F636174696F6E3ADD
:10365E0020002C2000537065656420286B6E6F74FB
:10366E0073293A2000416E676C653A2000416C74F4
:10367E0069747564653A2000536174656C6C697485
:06368E0065733A20000004
:020000023000CC
:10E000000D9489F10D94B2F10D94B2F10D94B2F129
:10E010000D94B2F10D94B2F10D94B2F10D94B2F1F0
:10E020000D94B2F10D94B2F10D94B2F10D94B2F1E0
:10E030000D94B2F10D94B2F10D94B2F10D94B2F1D0
:10E040000D94B2F10D94B2F10D94B2F10D94B2F1C0
:10E050000D94B2F10D94B2F10D94B2F10D94B2F1B0
:10E060000D94B2F10D94B2F10D94B2F10D94B2F1A0
:10E070000D94B2F10D94B2F10D94B2F10D94B2F190
:10E080000D94B2F10D94B2F10D94B2F10D94B2F180
:10E090000D94B2F10D94B2F10D94B2F10D94B2F170
:10E0A0000D94B2F10D94B2F10D94B2F10D94B2F160
:10E0B0000D94B2F10D94B2F10D94B2F10D94B2F150
:10E0C0000D94B2F10D94B2F10D94B2F10D94B2F140
:10E0D0000D94B2F10D94B2F10D94B2F10D94B2F130
:10E0E0000D94B2F141546D656761323536300041AF
:10E0F000726475696E6F206578706C6F72657220DE
:10E1000073746B3530305632206279204D4C530099
:10E11000426F6F746C6F616465723E004875683F52
:10E1200000436F6D70696C6564206F6E203D200048
:10E130004350552054797065202020203D20005FF9
:10E140005F4156525F415243485F5F3D2000415658
:10E1500052204C696243205665723D20004743437C
:10E160002056657273696F6E203D20004350552024
:10E1700049442020202020203D20004C6F7720663D
:10E18000757365202020203D20004869676820665F
:10E190007573652020203D200045787420667573D6
:10E1A00065202020203D20004C6F636B2066757336
:10E1B000652020203D20004D617220203720323024
:10E1C000313300312E362E3800342E332E350056A2
:10E1D00023202020414444522020206F7020636F70
:10E1E00064652020202020696E73747275637469E1
:10E1F0006F6E2061646472202020496E74657272B3
:10E20000757074006E6F20766563746F7200726A49
:10E210006D702020006A6D70200057686174207056
:10E220006F72743A00506F7274206E6F7420737541
:10E2300070706F72746564004D7573742062652030
:10E2400061206C6574746572002000577269747483
:10E25000696E672045450052656164696E672045B7
:10E26000450045452065727220636E743D00504F35
:10E27000525400303D5A65726F2061646472003FF1
:10E280003D43505520737461747300403D454550C3
:10E29000524F4D207465737400423D426C696E6B41
:10E2A000204C454400453D44756D70204545505215
:10E2B0004F4D00463D44756D7020464C415348001B
:10E2C000483D48656C70004C3D4C69737420492F83
:10E2D0004F20506F72747300513D51756974005234
:10E2E0003D44756D702052414D00563D73686F7707
:10E2F00020696E7465727275707420566563746FF0
:10E30000727300593D506F727420626C696E6B00BD
:10E310002A0011241FBECFEFD1E2DEBFCDBF01E046
:10E320000CBF12E0A0E0B2E0EEE1FDEF03E00BBFB6
:10E3300002C007900D92A030B107D9F712E0A0E01B
:10E34000B2E001C01D92AE30B107E1F70F9460F367
:10E350000D948DFE01E20EBF0FEF0DBF11241FBE05
:10E360000D9460F30D9400F020E030E040ED57E0B4
:10E3700005C0FA013197F1F72F5F3F4F2817390792
:10E38000C0F308959C01260F311DC901A0E0B0E043
:10E390002F5F3F4FABBFFC018791882361F08093D3
:10E3A000C6008091C00086FFFCCF8091C0008064D1
:10E3B0008093C000EACF08958DE08093C6008091DD
:10E3C000C00086FFFCCF8091C00080648093C000B5
:10E3D0008AE08093C6008091C00086FFFCCF8091C8
:10E3E000C00080648093C00008950F94C2F10F9420
:10E3F000DCF10895FC019081992359F09093C600B7
:10E400008091C00086FFFCCF8091C0008064809323
:10E41000C0003196992379F70895282F982F929567
:10E420009F70892F805D8A3308F0895F8093C600D2
:10E430008091C00086FFFCCF8091C00080648093F3
:10E44000C000822F8F70982F905D9A3308F0995FEB
:10E450009093C6008091C00086FFFCCF8091C000E1
:10E4600080648093C00008959C01FB01853691056E
:10E470001CF46330710594F0C90164E670E00F94F8
:10E480002EFE605D7F4F6093C6008091C00086FFC6
:10E49000FCCF8091C00080648093C0002B30310598
:10E4A00014F43297B4F0C90164E670E00F942EFEC4
:10E4B0006AE070E00F942EFE605D7F4F6093C600AF
:10E4C0008091C00086FFFCCF8091C0008064809363
:10E4D000C000C9016AE070E00F942EFEC0968093E0
:10E4E000C6008091C00086FFFCCF8091C000806490
:10E4F0008093C00008951F93182F8EE692EE60E07F
:10E500000F94C2F11093C6008091C00086FFFCCF2B
:10E510008091C00080648093C0000F94DCF11F9153
:10E5200008952F923F924F925F926F927F928F92B7
:10E530009F92AF92BF92CF92DF92EF92FF920F9392
:10E540001F93DF93CF93CDB7DEB762970FB6F894E2
:10E55000DEBF0FBECDBF382E622ECA01DB015C01CB
:10E560006D01772420E2222E2E010894411C511CBB
:10E570008BC081E0A81680E0B80681E0C80680E084
:10E58000D80628F0C601AA27BB270F940DF2BB2797
:10E59000AD2D9C2D8B2D0F940DF28A2D0F940DF225
:10E5A0002092C6008091C00086FFFCCF8091C00001
:10E5B00080648093C0009DE29093C6008091C0006B
:10E5C00086FFFCCF8091C00080648093C0002092C1
:10E5D000C6008091C00086FFFCCF8091C00080649F
:10E5E0008093C00019828601750188249924A1E0D6
:10E5F0003A1651F03A1620F0B2E03B1661F409C029
:10E600000BBFF701779007C0C7010F9477FE782EF4
:10E6100002C0F7017080872D0F940DF22092C60082
:10E620008091C00086FFFCCF8091C0008064809301
:10E63000C000872D8052F401EF70F0708F3520F408
:10E64000E40DF51D708204C0E40DF51D8EE280839B
:10E650000894E11CF11C011D111D0894811C911CE2
:10E6600090E18916910409F0C2CF80E190E0A0E02A
:10E67000B0E0A80EB91ECA1EDB1E198AC2010F9493
:10E68000FAF10F94DCF16A94662009F072CF629679
:10E690000FB6F894DEBF0FBECDBFCF91DF911F91B3
:10E6A0000F91FF90EF90DF90CF90BF90AF909F9031
:10E6B0008F907F906F905F904F903F902F90089534
:10E6C0002F923F924F925F926F927F928F929F9282
:10E6D000AF92BF92CF92DF92EF92FF920F931F9370
:10E6E000DF93CF93CDB7DEB7CD53D1400FB6F894BB
:10E6F000DEBF0FBECDBF01E20EBF0FEF0DBF94B75F
:10E70000F894A89514BE80916000886180936000A1
:10E7100010926000789493FF05C0E0910002F091A0
:10E7200001021995279A2F9A8091C00082608093E8
:10E73000C00080E18093C40088E18093C1000000A4
:10E74000EE24FF24870144E0A42EB12CCC24DD2448
:10E7500024C0C5010197F1F70894E11CF11C011DCB
:10E76000111D21E2E2162EE4F20620E0020720E06D
:10E77000120718F031E0C32ED12CC801B70127ECE5
:10E780003BE140E050E00F9441FE611571058105C9
:10E79000910519F485B1805885B98091C00087FD35
:10E7A00003C0C114D104A9F2A6014F5F5F4FC25E3E
:10E7B000DE4F59834883CE51D140C25EDE4F8881FF
:10E7C0009981CE51D140019711F00D9410FEC05D9A
:10E7D000DE4F19821882C053D14060E0C15DDE4F28
:10E7E0001882CF52D14088249924C35DDE4F19820C
:10E7F0001882CD52D140C05EDE4F188219821A8233
:10E800001B82C052D140CE5CDE4F188219821A8220
:10E810001B82C253D140EE24FF2487010BBFF701B6
:10E8200007911691C45CDE4F19830883CC53D14005
:10E830000D940BFEC25EDE4F28813981CE51D1404E
:10E840002130310509F52091C600C25EDE4F1982E4
:10E850001882CE51D14022C02F5F3F4F4F4F5F4FA4
:10E86000213082E138078AE7480780E0580780F0C6
:10E87000C45CDE4FE881F981CC53D140EF5FFF4F9C
:10E8800019F0EE27FF27099420E030E040E050E047
:10E890008091C00087FFE0CF2091C600C35DDE4FAE
:10E8A00048815981CD52D1404F5F5F4FC35DDE4FEC
:10E8B00059834883CD52D140213209F063C64A3092
:10E8C000510508F05FC60894811C911C53E0851621
:10E8D000910409F059C600E010E018C081E280936D
:10E8E000C6008091C00086FFFCCF8091C00080648C
:10E8F0008093C0002F5F3F4F2931310579F70F9486
:10E90000DCF10F5F1F4F0530110519F020E030E0FA
:10E91000E5CF10920A0210920B0210920C02109294
:10E920000D02109206021092070210920802109235
:10E930000902109202021092030210920402109235
:10E9400005028FEE90EE60E00F94F5F180E191EE1C
:10E9500060E00F94C2F18091C00087FFFCCF9091DE
:10E96000C600903608F09F759032B8F09093C600BC
:10E970008091C00086FFFCCF8091C00080648093AE
:10E98000C000A0E2A093C6008091C00086FFFCCF2B
:10E990008091C00080648093C000983409F4D7C18E
:10E9A0009934B8F4923409F459C1933458F490333B
:10E9B00019F1903308F4E3C59F33A1F1903409F0C5
:10E9C000DEC5BDC0953409F470C1963409F0D7C5D1
:10E9D00098C1923509F42BC2933538F49C3409F46C
:10E9E000F5C1913509F0CBC518C2963509F445C279
:10E9F000993509F0C4C567C483E792EE62E00F94CD
:10EA0000F5F110920602109207021092080210927D
:10EA1000090210920A0210920B0210920C0210923C
:10EA20000D0213C18FE792EE62E00F94F5F18FEEC5
:10EA300090EE60E00F94F5F181E291EE60E00F94CA
:10EA4000C2F187EB91EE60E00F94F5F180E391EE77
:10EA500060E00F94C2F184EE90EE60E00F94F5F167
:10EA60008FE391EE60E00F94C2F186E090E061E008
:10EA700070E00F9434F20F94DCF18DE591EE60E0DC
:10EA80000F94C2F189EC91EE60E00F94F5F18EE401
:10EA900091EE60E00F94C2F183EC91EE60E00F9490
:10EAA000F5F18CE691EE60E00F94C2F18EE10F94E7
:10EAB0000DF288E90F940DF281E00F940DF20F949E
:10EAC000DCF18BE791EE60E00F94C2F119E0E0E039
:10EAD000F0E010935700E4918E2F0F940DF20F94F5
:10EAE000DCF18AE891EE60E00F94C2F1E3E0F0E03F
:10EAF00010935700E4918E2F0F940DF20F94DCF1D8
:10EB000089E991EE60E00F94C2F1E2E0F0E0109349
:10EB10005700E4918E2F0F940DF20F94DCF188EAE8
:10EB200091EE60E00F94C2F1E1E0F0E01093570045
:10EB30001491812F0F940DF20F94DCF107CF8BE825
:10EB400092EE62E00F94F5F18BE492EE60E00F94A8
:10EB5000F5F10F94DCF100E010E019C0C8016F2D51
:10EB60000F947FFEFF2031F489E492EE60E00F9471
:10EB7000C2F10BC0F092C6008091C00086FFFCCFAE
:10EB80008091C00080648093C0000F5F1F4FC80158
:10EB900081519F41A0E0B0E0ABBFFC01F790BAE229
:10EBA000FB1621F0E2E000301E07C1F60F94DCF105
:10EBB0000F94DCF187E592EE60E00F94F5F10F948D
:10EBC000DCF1CC24DD2400E010E01EC0C8010F946D
:10EBD00077FEF82E882331F489E492EE60E00F94FA
:10EBE000C2F10BC08093C6008091C00086FFFCCFAD
:10EBF0008091C00080648093C000FE1419F00894D6
:10EC0000C11CD11C0F5F1F4FC80181519F41A0E063
:10EC1000B0E0ABBFFC01E790FAE2EF1621F022E092
:10EC20000030120799F60F94DCF10F94DCF182E6C4
:10EC300092EE60E00F94C2F1C60161E070E00F94C3
:10EC400034F20F94DCF10F94DCF110920202109276
:10EC50000302109204021092050278CE89E992EE26
:10EC600062E00F94F5F1279A2F9A16C02F9880E052
:10EC700090E0E0EDF7E03197F1F7019684369105E9
:10EC8000C1F72F9A80E090E0E0EDF7E03197F1F7DF
:10EC9000019684369105C1F78091C00087FFE6CFC9
:10ECA0008091C00087FFFCCF64C485EA92EE62E0E9
:10ECB0000F94F5F140910202509103026091040219
:10ECC0007091050281E020E10F9491F2809102029F
:10ECD00090910302A0910402B091050280509F4FD1
:10ECE000AF4FBF4F8093020290930302A0930402A0
:10ECF000B093050280509041A040B04008F426CE69
:10ED0000A4CF83EB92EE62E00F94F5F140910602FE
:10ED100050910702609108027091090280E020E1A1
:10ED20000F9491F28091060290910702A09108023F
:10ED3000B091090280509F4FAF4FBF4F80930602A2
:10ED400090930702A0930802B0930902FFCD80ECD4
:10ED500092EE62E00F94F5F183E792EE60E00F949B
:10ED6000F5F18FE792EE60E00F94F5F18BE892EE0B
:10ED700060E00F94F5F189E992EE60E00F94F5F10F
:10ED800085EA92EE60E00F94F5F183EB92EE60E09D
:10ED90000F94F5F180EC92EE60E00F94F5F187ECC2
:10EDA00092EE60E00F94F5F188ED92EE60E00F9442
:10EDB000F5F18FED92EE60E00F94F5F18AEE92EEB0
:10EDC00060E00F94F5F183E093EEBDCD87EC92EE19
:10EDD00062E00F94F5F181E40F947BF282E40F94EA
:10EDE0007BF283E40F947BF284E40F947BF285E45E
:10EDF0000F947BF286E40F947BF287E40F947BF20E
:10EE000088E40F947BF28AE40F947BF28BE40F94F6
:10EE10007BF28CE40F947BF299CD88ED92EE62E068
:10EE20000F94F5F1772473948824992409C48FED05
:10EE300092EE62E00F94F5F140910A0250910B02BC
:10EE400060910C0270910D0282E020E10F9491F22A
:10EE500080910A0290910B02A0910C02B0910D02D8
:10EE600080509F4FAF4FBF4F80930A0290930B0289
:10EE7000A0930C02B0930D0269CD8AEE92EE62E08F
:10EE80000F94F5F184EE90EE60E00F94F5F18FECC5
:10EE900091EE60E00F94F5F1662477244301CC5D98
:10EEA000DE4F19821882C452D140D401C301B695F5
:10EEB000A79597958795CA5DDE4F88839983AA8326
:10EEC000BB83C652D140CC5DDE4FA881B981C4520C
:10EED000D1401196CC5DDE4FB983A883C452D14096
:10EEE000CD0162E070E00F9434F2B0E2B093C6005E
:10EEF0008091C00086FFFCCF8091C0008064809329
:10EF0000C000EDE2E093C6008091C00086FFFCCF18
:10EF10008091C00080648093C000F0E2F093C6004E
:10EF20008091C00086FFFCCF8091C00080648093F8
:10EF3000C000CA5DDE4FE880F9800A811B81C6529D
:10EF4000D140BB27A12F902F8F2D0F940DF2CA5DBA
:10EF5000DE4F8881C652D1400F940DF2B0E2FB2EF5
:10EF6000F092C6008091C00086FFFCCF8091C00067
:10EF700080648093C0000DE30093C6008091C000C0
:10EF800086FFFCCF8091C00080648093C00010E2B7
:10EF90001093C6008091C00086FFFCCF8091C00016
:10EFA00080648093C0008BBEF3012791C65DDE4F65
:10EFB0002883CA52D140A22EBB24CC24DD2408943D
:10EFC000611C711C811C911C8BBEF3018791282E42
:10EFD0003324442455240894611C711C811C911C09
:10EFE0008BBEF3013791C55DDE4F3883CB52D140E4
:10EFF0000894611C711C811C911C8BBEF30147910C
:10F00000C45DDE4F4883CC52D140ADEFEA2EAFEF66
:10F01000FA2EAFEF0A2FAFEF1A2F6E0C7F1C801E57
:10F02000911E142D032DF22CEE24EA0CFB1C0C1D5A
:10F030001D1D0F940DF220E22093C6008091C000A8
:10F0400086FFFCCF8091C00080648093C000C65DC5
:10F05000DE4F8881CA52D1400F940DF230E23093D6
:10F06000C6008091C00086FFFCCF8091C000806404
:10F070008093C000C45DDE4F8881CC52D1400F9494
:10F080000DF240E24093C6008091C00086FFFCCFA5
:10F090008091C00080648093C000C55DDE4F888190
:10F0A000CB52D1400F940DF250E25093C6008091A4
:10F0B000C00086FFFCCF8091C00080648093C000B8
:10F0C0008FEFE8168FEFF80680E0080780E018075A
:10F0D00031F484E092EE60E00F94C2F1DFC0D80119
:10F0E000C7018070907CA070B0708050904CA040A0
:10F0F000B040D1F52FEF3FE340E050E0E222F322B1
:10F1000004231523CA5DDE4FA880B980CA80DB8046
:10F11000C652D140AE0CBF1CC01ED11EAA0CBB1CD7
:10F12000CC1CDD1C8EE092EE60E00F94C2F1BB2798
:10F13000A12F902F8F2D0F940DF28E2D0F940DF285
:10F1400030E23093C6008091C00086FFFCCF8091F2
:10F15000C00080648093C0004EE34093C60080915D
:10F16000C00086FFFCCF87C08EE09EEFA0E0B0E03D
:10F17000E822F9220A231B239CE0E91694E9F90608
:10F1800090E0090790E0190709F088C0C45DDE4FE0
:10F19000A881CC52D140EA2EFF2400E010E0102FCD
:10F1A0000F2DFE2CEE24C55DDE4FB881CB52D14031
:10F1B000EB0EF11C011D111DD601C501817090706F
:10F1C000A070B070DC0199278827E80EF91E0A1F8D
:10F1D0001B1F20EF30E040E050E0A222B322C42207
:10F1E000D52241E1AA0CBB1CCC1CDD1C4A95D1F7F1
:10F1F000EA0CFB1C0C1D1D1D81E090E0A0E0B0E0BE
:10F20000282239224A225B2235E1220C331C441C7D
:10F21000551C3A95D1F7E20CF31C041D151D57013E
:10F220006801AA0CBB1CCC1CDD1C85E192EE60E0E1
:10F230000F94C2F1C801AA27BB270F940DF2BB2778
:10F24000A12F902F8F2D0F940DF28E2D0F940DF274
:10F2500090E29093C6008091C00086FFFCCF809121
:10F26000C00080648093C000AEE3A093C60080918C
:10F27000C00086FFFCCF8091C00080648093C000F6
:10F28000C601AA27BB270F940DF2BB27AD2D9C2DDD
:10F290008B2D0F940DF28A2D0F940DF20F94DCF14B
:10F2A000CC5DDE4FE881F981C452D140F99709F471
:10F2B0004DCBF4E0EF2EF12C012D112D6E0C7F1CA7
:10F2C000801E911EF2CD83E093EE62E00F94F5F183
:10F2D0008AE192EE60E00F94C2F18091C00087FF56
:10F2E000FCCF1091C6001F751093C6008091C0001E
:10F2F00086FFFCCF8091C00080648093C0000F9493
:10F30000DCF1812F81548A3108F036C1163409F4BA
:10F3100095C0173490F4133409F44EC0143430F40B
:10F320001134F1F0123409F01DC130C0143409F465
:10F3300059C0153409F016C16BC01A3409F4C4C0A1
:10F340001B3438F4173409F48FC0183409F00AC19B
:10F35000A1C01B3409F4D2C01C3409F003C1E8C0B9
:10F360008FEF81B90DC082B1809582B980E090E0C5
:10F37000E0EDF7E03197F1F70196883C9105C1F790
:10F380008091C00087FFEFCF12B8EFC08FEF84B934
:10F390000DC085B1809585B980E090E0E0EDF7E0A3
:10F3A0003197F1F70196883C9105C1F78091C00033
:10F3B00087FFEFCF15B8D9C08FEF87B90DC088B1DF
:10F3C000809588B980E090E0E0EDF7E03197F1F7C3
:10F3D0000196883C9105C1F78091C00087FFEFCF6F
:10F3E00018B8C3C08FEF8AB90DC08BB180958BB9A7
:10F3F00080E090E0E0EDF7E03197F1F70196883C8E
:10F400009105C1F78091C00087FFEFCF1BB8ADC059
:10F410008FEF8DB90DC08EB180958EB980E090E0F0
:10F42000E0EDF7E03197F1F70196883C9105C1F7DF
:10F430008091C00087FFEFCF1EB897C08FEF80BBD1
:10F440000DC081B3809581BB80E090E0E0EDF7E0F6
:10F450003197F1F70196883C9105C1F78091C00082
:10F4600087FFEFCF11BA81C08FEF83BB0DC084B38C
:10F47000809584BB80E090E0E0EDF7E03197F1F714
:10F480000196883C9105C1F78091C00087FFEFCFBE
:10F4900014BA6BC08FEF809301010FC080910201FD
:10F4A00080958093020180E090E0E0EDF7E03197F5
:10F4B000F1F70196883C9105C1F78091C00087FF64
:10F4C000EDCF1092020151C08FEF809304010FC065
:10F4D0008091050180958093050180E090E0E0ED4A
:10F4E000F7E03197F1F70196883C9105C1F78091DB
:10F4F000C00087FFEDCF1092050137C08FEF8093DA
:10F5000007010FC08091080180958093080180E079
:10F5100090E0E0EDF7E03197F1F70196883C910536
:10F52000C1F78091C00087FFEDCF109208011DC088
:10F530008FEF80930A010FC080910B01809580931B
:10F540000B0180E090E0E0EDF7E03197F1F70196F4
:10F55000883C9105C1F78091C00087FFEDCF1092E4
:10F560000B0103C085E292EEEEC98091C00087FFD7
:10F57000FCCF8091C600EAC988E392EEE4C98CE131
:10F5800091EEE1C988249924933011F1943028F444
:10F59000913089F09230B8F408C0953061F195301F
:10F5A000F0F0963009F048C043C02B3109F042C951
:10F5B00091E06BE13FC96227C15DDE4F2883CF52E6
:10F5C000D14092E037C9B22FA0E0622793E032C960
:10F5D000822F90E0A82BB92B622794E02BC92E3004
:10F5E00009F039C3622795E0C05DDE4F19821882A9
:10F5F000C053D1401FC9E1E0F0E0EC0FFD1FC05D3A
:10F60000DE4F08811981C053D140E00FF11F2083E4
:10F610000F5F1F4FC05DDE4F19830883C053D14079
:10F6200062270A171B0709F005C9D80196E002C92D
:10F63000261709F010C303C0973009F0FBC87724E0
:10F640009981933109F412C19431C8F4963009F4C8
:10F65000D8C0973050F4923009F406C1933009F4C1
:10F660006DC0913009F059C253C0913109F477C08F
:10F67000923108F0BBC0903109F04FC2F5C098310B
:10F6800009F487C0993150F4953109F4EFC09531F0
:10F6900008F4C6C1963109F040C2C2C19A3109F4DA
:10F6A0006CC09A3108F491C09B3109F45BC09D3164
:10F6B00009F033C29D81903359F48F81882311F46E
:10F6C0009EE11CC0813011F091E018C098E916C08D
:10F6D000892F807591F0903539F4E0E0F0E089E011
:10F6E0008093570094910AC0983539F4E3E0F0E034
:10F6F00089E080935700949101C090E01A821B82A8
:10F700008D818C831D829E831F8227E030E009C299
:10F710001A8288E08B8381E48C8386E58D8382E581
:10F720008E8389E48F8383E5888780E589878FE5E9
:10F730008A8782E38B872BE030E0F3C18A818139AD
:10F7400041F0823941F0803911F48FE005C080E04A
:10F7500003C082E001C08AE01A828B8344C0772410
:10F76000739482C08D81882311F48EE12CC0813086
:10F7700011F081E028C088E926C01A82E1E0F0E0BB
:10F7800089E08093570084918B831C8224E030E0D1
:10F79000C8C18B81803589F48C81883039F4E2E0EE
:10F7A000F0E089E08093570084910DC0E0E0F0E044
:10F7B00089E080935700849106C0E3E0F0E089E09F
:10F7C0008093570084911A82DFCF8D81836C99E0FA
:10F7D000E1E0F0E0082E90935700E89507B600FCB2
:10F7E000FDCF1A821B8223E030E09BC180EC8A832C
:10F7F000CE5CDE4F188219821A821B82C253D1401E
:10F800008EC18A8190E0A0E0B0E0582F44273327D2
:10F8100022278B8190E0A0E0B0E0DC0199278827C7
:10F82000282B392B4A2B5B2B8D8190E0A0E0B0E098
:10F83000282B392B4A2B5B2B8C8190E0A0E0B0E089
:10F84000BA2FA92F982F8827282B392B4A2B5B2BCF
:10F85000220F331F441F551FC05EDE4F288339839C
:10F860004A835B83C052D1401A8259C13A81C95C34
:10F87000DE4F3883C753D140CA5CDE4F1882C6536F
:10F88000D1408B81C82EDD24CA5CDE4F488159816E
:10F89000C653D140C42AD52A933109F082C0CE5C28
:10F8A000DE4F88819981AA81BB81C253D1408050AB
:10F8B000904CA340B04030F583E0CE5CDE4FE88052
:10F8C000F9800A811B81C253D140F70100935B008C
:10F8D00080935700E89507B600FCFDCFCE5CDE4F65
:10F8E000088119812A813B81C253D14000501F4FAA
:10F8F0002F4F3F4FCE5CDE4F088319832A833B8313
:10F90000C253D140C05EDE4F488159816A817B81FC
:10F91000C052D140DE011B9631E08C9111962C91A2
:10F9200011971296C75CDE4F2883C953D140C85C3B
:10F93000DE4F1882C853D14090E0C85CDE4FE881AA
:10F94000F981C853D1408E2B9F2B0C01FA01609393
:10F950005B0030935700E89511244E5F5F4F6F4F67
:10F960007F4F0EEFE02E0FEFF02ECE0CDF1CC114F8
:10F97000D10499F685E0C05EDE4F088119812A81A5
:10F980003B81C052D140F80120935B008093570027
:10F99000E89507B600FCFDCF81E180935700E8951C
:10F9A00035C0C05EDE4F88819981AA81BB81C0527B
:10F9B000D140B695A795979587957C018601ABE0D8
:10F9C000AA2EB12CAC0EBD1E0BC0D5016D915D01F0
:10F9D000C7010F947FFE0894E11CF11C01501040F8
:10F9E0000115110591F7A60160E070E0440F551F65
:10F9F000661F771FC05EDE4FE880F9800A811B8199
:10FA0000C052D1404E0D5F1D601F711F1A82C05E33
:10FA1000DE4F488359836A837B83C052D1407FC0C5
:10FA2000FA80C55CDE4FF882CB53D140C65CDE4F16
:10FA30001882CA53D1408B81C82EDD24C65CDE4FAC
:10FA400008811981CA53D140C02AD12A1A828981DA
:10FA5000BE016D5F7F4F843121F59601C05EDE4FA0
:10FA6000E880F9800A811B81C052D1400BBFF701A9
:10FA700087919691DB018C9311969C936E5F7F4FDB
:10FA8000D801C7010296A11DB11DC05EDE4F88835B
:10FA90009983AA83BB83C052D14022503040F1F6F3
:10FAA00036C0C05EDE4F288139814A815B81C052F9
:10FAB000D1400894C108D108760100E010E0089414
:10FAC000C11CD11C0894E11CF11C011D111DE20E8A
:10FAD000F31E041F151F21BDBB27A52F942F832FB5
:10FAE00082BD2F5F3F4F4F4F5F4FF89A80B5DB01CC
:10FAF0008D93BD012E153F054007510761F7C05E8C
:10FB0000DE4F288339834A835B83C052D1409601FC
:10FB10002D5F3F4FFB01108204C080EC8A8322E0FE
:10FB200030E08BE18093C6008091C00086FFFCCF5F
:10FB30008091C00080648093C000C15DDE4FF88179
:10FB4000CF52D140F093C6008091C00086FFFCCF19
:10FB50008091C00080648093C000432F3093C60022
:10FB60008091C00086FFFCCF8091C00080648093AC
:10FB7000C000922F2093C6008091C00086FFFCCF6A
:10FB80008091C00080648093C0008EE08093C600A6
:10FB90008091C00086FFFCCF8091C000806480937C
:10FBA000C00065E1C15DDE4FE880CF52D1406E25D7
:10FBB00069276427FE01319610C090819093C6009A
:10FBC0008091C00086FFFCCF31968091C000806498
:10FBD0008093C0006927215030402115310569F715
:10FBE0006093C6008091C00086FFFCCF8091C0006A
:10FBF00080648093C00085B1805885B9772081F4F6
:10FC0000C15DDE4F0881CF52D1400F5FC15DDE4F35
:10FC10000883CF52D14090E0A0E0B0E00D941AF4F8
:10FC200027982F9880E090E020ED37E0F901319798
:10FC3000F1F7019684369105C9F700008091C00064
:10FC40008D7F8093C00081E180935700E895EE2777
:10FC5000FF270994FFCF90E00D941AF497FB092E2B
:10FC600007260AD077FD04D02ED006D000201AF443
:10FC7000709561957F4F0895F6F7909581959F4F08
:10FC80000895A1E21A2EAA1BBB1BFD010DC0AA1FDD
:10FC9000BB1FEE1FFF1FA217B307E407F50720F0F5
:10FCA000A21BB30BE40BF50B661F771F881F991F70
:10FCB0001A9469F760957095809590959B01AC01B9
:10FCC000BD01CF010895AA1BBB1B51E107C0AA1FAC
:10FCD000BB1FA617B70710F0A61BB70B881F991FED
:10FCE0005A95A9F780959095BC01CD010895F99991
:10FCF000FECF92BD81BDF89A992780B50895262F31
:10FD0000F999FECF1FBA92BD81BD20BD0FB6F89400
:0EFD1000FA9AF99A0FBE01960895F894FFCF63
:040000033000E000E9
:00000001FF
