:10000000E8C0000017C1000015C1000013C10000C6
:1000100011C100000FC100000DC100000BC10000A4
:1000200009C1000007C1000005C1000003C10000B4
:1000300001C10000FFC00000FDC00000FBC00000C7
:10004000F9C00000F7C00000F5C00000F3C00000D8
:10005000F1C00000EFC00000EDC000005BC7000071
:10006000E9C0000021C70000F6C60000E3C00000A0
:10007000E1C00000DFC00000DDC00000DBC0000008
:10008000D9C00000D7C00000D5C00000D3C0000018
:10009000D1C00000CFC00000CDC0000085C7000067
:1000A000C9C00000C7C00000C5C00000C3C0000038
:1000B000C1C00000BFC00000BDC00000BBC0000048
:1000C000B9C00000B7C00000B5C00000B3C0000058
:1000D000B1C00000AFC00000ADC00000ABC0000068
:1000E000A9C0000000002200250028002B002E00DF
:1000F0003100340002010000050108010B01050573
:100100000505070508080808020202020A0A08088D
:1001100004040404010101010101010103030303BB
:1001200003030303040707070C0C0C0C0C0C0C0C4A
:100130000202020206060606060606060B0B0B0B5B
:100140000B0B0B0B01021020200808102040102080
:10015000408002010201080402010102040810208B
:100160004080804020100804020180040201804089
:1001700020100804020108040201010204081020F2
:100180004080010204081020408000000A0B020990
:100190000C0D0E0807030401000000000000000021
:1001A000000000000000000000000000000000004F
:1001B000000000000000121110000000000000000C
:1001C000000000000000000000000000000000002F
:1001D000F70811241FBECFEFD1E2DEBFCDBF00E094
:1001E0000CBF12E0A0E0B2E0E6E8FCE100E00BBFEB
:1001F00002C007900D92A23BB107D9F724E0A2EB11
:10020000B2E001C01D92A832B207E1F710E0C9EEDA
:10021000D0E000E006C021970109802FFE010E9476
:10022000050DC83ED10780E00807A9F70E944709DD
:100230000C94410EE5CE982F20916E0381E021327F
:1002400008F043C080914A038111FCCF80916D0377
:1002500032E030934A03909349039FEF9093480311
:100260001092470320934603ADE4B3E0E6E2F3E0E7
:1002700090E0291331C01092250390912503880F37
:10028000892B8093250380912403813049F51092B6
:100290002403809125038093BB008091BC0083FDE3
:1002A000F8CF85EC8093BC0080914A038230E1F363
:1002B000809148038F3FB1F0809148038032A1F0D4
:1002C00080914803803391F084E010924C031092A7
:1002D0006E0310924B0308953D9131939F5FC9CFF8
:1002E00085EEE0CF80E0F1CF82E0EFCF83E0EDCF8D
:1002F0001F93CF93DF93162FC8E1D4E0AC81BD816B
:100300009B8121E020934B0390936D0310924C034B
:1003100010926E03ED91FC9111970190F081E02D08
:10032000682FCD0119958C819D81DC01ED91FC91A7
:100330000190F081E02D612F199581E07CDF81E053
:10034000DF91CF911F91089590914A039111FCCFB5
:1003500091E090934A03909349032FEF2093480331
:1003600010924703260F2093460390932503909104
:100370002503880F892B80932503809124038130E6
:10038000F9F410922403809125038093BB0080919F
:10039000BC0083FDF8CF85EC8093BC0080914A03BC
:1003A0008130E1F380914703861710F46091470391
:1003B000A6E2B3E0E4E0F3E080E0861303C0089532
:1003C00085EEEACF9D9191938F5FF7CF282F30E094
:1003D000F901E657FE4F9491F901EC5BFE4F449111
:1003E00022503F4FF9012491222309F432C099236E
:1003F00011F191509231F8F4E92FF0E08827EC5F89
:10040000FD4F8F4F0C94050D3202360216022A0260
:100410002E021B0239023F02430249024D025102E1
:1004200057025B021B025F02650269028091800035
:100430008F7780938000E22FF0E0EE0FFF1FEC51EA
:10044000FF4FA591B4918FB7F894EC914E2B4C933C
:100450008FBF0895809180008F7DEBCF80918000C9
:10046000877FE7CF84B58F7784BDE5CF84B58F7D57
:10047000FBCF8091B0008F778093B000DCCF80916C
:10048000B0008F7DF9CF809190008F77809390009E
:10049000D2CF809190008F7DF9CF80919000877F9F
:1004A000F5CF8091A0008F778093A000C4CF80917A
:1004B000A0008F7DF9CF8091A000877FF5CF80913C
:1004C00020018F7780932001B6CF809120018F7D0E
:1004D000F9CF80912001877FF5CF08950895AF92DD
:1004E000BF92CF92DF92EF92FF920F931F93CF9321
:1004F000DF936C017B018B01040F151FEB015E0183
:10050000AE18BF08C017D10759F06991D601ED9117
:10051000FC910190F081E02DC6011995892B79F7A6
:10052000C501DF91CF911F910F91FF90EF90DF9068
:10053000CF90BF90AF900895FC01538D448D252F2F
:1005400030E0842F90E0821B930B541710F0CF966D
:10055000089501970895FC01918D828D981761F09F
:10056000A28DAE0FBF2FB11D5D968C91928D9F5FB6
:100570009F73928F90E008958FEF9FEF0895FC0195
:10058000918D828D981731F0828DE80FF11D858D48
:1005900090E008958FEF9FEF0895FC01918D228DDB
:1005A000892F90E0805C9F4F821B91098F73992760
:1005B00008958FE693E0F1DF21E0892B09F420E034
:1005C000822F0895FC01A48DA80FB92FB11DA35A45
:1005D000BF4F2C91848D90E001968F739927848F63
:1005E000A689B7892C93A089B1898C918370806486
:1005F0008C93938D848D981306C00288F389E02D27
:1006000080818F7D80830895EF92FF920F931F93D7
:10061000CF93DF93EC0181E0888F9B8D8C8D9813B5
:100620001AC0E889F989808185FF15C09FB7F894C1
:10063000EE89FF896083E889F9898081837080640D
:1006400080839FBF81E090E0DF91CF911F910F9158
:10065000FF90EF900895F62E0B8D10E00F5F1F4F67
:100660000F731127E02E8C8D8E110BC00FB607FC77
:10067000FACFE889F989808185FFF5CFCE01A2DF25
:10068000F2CFEB8DEC0FFD2FF11DE35AFF4FF082FF
:100690009FB7F8940B8FEA89FB8980818062D0CF65
:1006A000CF93DF93EC01888D8823B1F0AA89BB89B1
:1006B000E889F9898C9185FD03C0808186FD0CC095
:1006C0000FB607FCF7CF8C9185FFF2CF808185FFB5
:1006D000EDCFCE0177DFEACFDF91CF91089580E0B3
:1006E00090E0892B21F065DF81110E94000080E0FD
:1006F00090E0892B49F080E090E0892B29F00E945E
:10070000000081110E94000080E090E0892B49F0F8
:1007100080E090E0892B29F00E94000081110E9466
:10072000000080E090E0892B49F080E090E0892B88
:1007300029F00E94000081110C94000008953FB739
:10074000F8948091FA029091FB02A091FC02B09182
:10075000FD0226B5A89B05C02F3F19F00196A11DEB
:10076000B11D3FBFBA2FA92F982F8827BC01CD01FB
:10077000620F711D811D911D42E0660F771F881F5A
:10078000991F4A95D1F708958F929F92AF92BF9289
:10079000CF92DF92EF92FF924B015C01D0DF6B01B1
:1007A0007C01CDDF6C197D098E099F09683E73407D
:1007B00081059105B0F321E0821A9108A108B108E2
:1007C00088EEC80E83E0D81EE11CF11C8114910450
:1007D000A104B10431F7FF90EF90DF90CF90BF906C
:1007E000AF909F908F900895E8E1F4E0828793871F
:1007F000682F8DE390E07CDD6EE170E080E090E0BA
:10080000C3CF0895089585ED8093BC008091BC000E
:1008100084FDFCCF10924A0308952091D202260F46
:100820003327331F21323105ECF420914A03FC01B8
:1008300090E080E0243069F082E00895A091D20237
:100840002191AC014E545D4FA40FB52FB11D2C93D7
:100850000196861798F38091D202680F6093D202B6
:1008600080E0089581E008950895E0910303809168
:100870000203E81730F4F0E0EC5FFC4F808190E079
:1008800008958FEF9FEF08959091030380910203E5
:100890002FEF3FEF981748F4E92FF0E0EC5FFC4FA3
:1008A000208130E09F5F90930303C90108958091F8
:1008B000020390910303891B990B0895CF92DF9255
:1008C000EF92FF920F931F93CF93DF937C01CB01A5
:1008D0008A0120914B03222389F0EB016B01C40EA6
:1008E000D51ECC15DD0561F06991D701ED91FC9124
:1008F0000190F081E02DC7011995F3CF642F8DDFB2
:10090000C801DF91CF911F910F91FF90EF90DF9081
:10091000CF900895CF93DF931F92CDB7DEB7698351
:1009200020914B032223F9F020916E03203258F0DE
:1009300021E030E0FC013383228390E080E00F90DF
:10094000DF91CF91089580914C03E82FF0E0E35BB5
:10095000FC4F998190838F5F80934C0380936E034B
:1009600081E090E0ECCF61E0CE01019656DFF8CF58
:1009700090E080E00895FC0101900020E9F73197B4
:10098000AF01481B590BBC018FE693E0A8CD8F92B5
:100990009F92AF92BF920F931F93CF93DF93CDB7E8
:1009A000DEB7A1970FB6F894DEBF0FBECDBF19A278
:1009B000423008F44AE08E010F5D1F4F842E912CC7
:1009C000B12CA12CA5019401FED7E62FB901CA01D3
:1009D000EA30ECF4E05DD801EE938D01232B242B5B
:1009E000252B81F790E080E0109711F0CD01C3DF57
:1009F000A1960FB6F894DEBF0FBECDBFDF91CF91A9
:100A00001F910F91BF90AF909F908F900895E95CD8
:100A1000E2CFCF93DF93AFDFEC0188E392E0ABDF6F
:100A20008C0F9D1FDF91CF910895CF93DF93C8E185
:100A3000D4E08C819D812B8131E030934B03209356
:100A40006D0310924C0310926E03DC01ED91FC914A
:100A50000190F081E02D60E0199581E0ECDB61E030
:100A60008B8172DC10920303809302038C819D8141
:100A7000DC01ED91FC910284F385E02D1995DF9165
:100A8000CF9108954F925F926F927F928F929F9233
:100A9000AF92BF92CF92DF92EF92FF920F931F938C
:100AA000CF936B017C01742EAC019B0188D7882306
:100AB00091F08BE392E0CF911F910F91FF90EF9017
:100AC000DF90CF90BF90AF909F908F907F906F906E
:100AD0005F904F9050CF46015701E894B7F82FEF41
:100AE0003FEF4FE75FE7C501B40169D781110CC043
:100AF0002FEF3FEF4FE75FE7C501B401AFD5181601
:100B00001CF48FE392E0D7CF2FEF3FEF4FE75FE486
:100B1000C701B601EDD618161CF483E492E0CBCFE2
:100B20002FEF3FEF4FE75FECC701B60197D587FD89
:100B3000F4CF20E030E0A901C701B6018FD510E065
:100B400000E087FF09C06DE28FE693E05DDD8C0178
:100B5000F7FAF094F7F8F094C0E060E070E080E01D
:100B60009FE37C1639F020E030E040E251E47AD592
:100B7000CF5FF7CFA70196010DD52B013C01DAD548
:100B80004B015C014AE003DF7C01E00EF11ECC2347
:100B900081F1C501B401FAD59B01AC01C301B201D9
:100BA000F8D44B015C016EE28FE693E02DDDE80E98
:100BB000F91EC150F0F020E030E040E251E4C50100
:100BC000B4019AD62B013C01B5D54B01B12CA12C17
:100BD0004AE0C501B401DBDEE80EF91EC501B4012F
:100BE000D5D59B01AC01C301B201D3D44B015C014B
:100BF000E0CFC701CF911F910F91FF90EF90DF9051
:100C0000CF90BF90AF909F908F907F906F905F90AC
:100C10004F9008959EC78F929F92AF92BF92CF92AE
:100C2000DF92EF92FF920F931F93CF93DF93CDB795
:100C3000DEB762970FB6F894DEBF0FBECDBF6C0172
:100C40008B01FB01349680E2DF011D928A95E9F762
:100C500084E290E0A0E0B0E0FB0180839183A28376
:100C6000B383F60186819781A085B185FB018483DA
:100C70009583A683B78383E090E0A0E0B0E080870F
:100C80009187A287B3872FB7F8948091F60290914D
:100C9000F702A091F802B091F9022FBF808B918BDF
:100CA000A28BB38B8CE0FE013196DF011D928A95F9
:100CB000E9F77E01BDE0EB0EF11C86E0F701119231
:100CC0008A95E9F7D60114968D919C911597139604
:100CD0002C9131E030934B0320936D0310924C0321
:100CE00010926E03DC01ED91FC910190F081E02DFA
:100CF0006AE1199581E09FDA66E0F601838124DBE1
:100D000010920303809302035E01F3E1AF0EB11C66
:100D1000D60114968D919C91DC01ED91FC91028499
:100D2000F385E02D1995F70181937F01EA15FB0505
:100D300079F76D857E85072E000C880B990B28D5D9
:100D400020E030E040E85DE3D7D54B015C016F85E2
:100D50007889072E000C880B990B1AD520E030E01B
:100D600040E85DE3C9D56B017C0169897A89072E6A
:100D7000000C880B990B0CD520E030E040E85DE3D7
:100D8000BBD5D80154968D929D92AD92BC92579747
:100D9000F801C08ED18EE28EF38E5C966D937D93BA
:100DA0008D939C935F9781E062960FB6F894DEBFB7
:100DB0000FBECDBFDF91CF911F910F91FF90EF90AC
:100DC000DF90CF90BF90AF909F908F9008950F933A
:100DD0001F93CF93DF938C01EB0188E2FB0111920B
:100DE0008A95E9F74BE050E067E472E0CE013AD72C
:100DF0001B8681E090E0A0E0B0E08C879D87AE8705
:100E0000BF87F80186819781A085B185888B998BF2
:100E1000AA8BBB8B83E090E0A0E0B0E08C8B9D8B35
:100E2000AE8BBF8B1CA21DA21EA21FA2188E198EF4
:100E30001A8E1B8E1C8E1D8E1E8E1F8E8AE097EDC5
:100E4000A3E2BCE388A399A3AAA3BBA3DF91CF919C
:100E50001F910F9108951F920F920FB60F921124B8
:100E60000BB60F922F933F934F935F936F937F93A4
:100E70008F939F93AF93BF93EF93FF938FE693E08E
:100E8000A1DBFF91EF91BF91AF919F918F917F91E6
:100E90006F915F914F913F912F910F900BBE0F90EB
:100EA0000FBE0F901F9018951F920F920FB60F92C2
:100EB00011240BB60F922F938F939F93EF93FF9371
:100EC000E0917F03F09180038081E0918503F091B0
:100ED000860382FD1DC09081809188038F5F8F7390
:100EE00020918903821741F0E0918803F0E0E159F5
:100EF000FC4F958F80938803FF91EF919F918F9185
:100F00002F910F900BBE0F900FBE0F901F90189552
:100F10008081F2CF1F920F920FB60F9211242F9360
:100F20003F938F939F93AF93BF938091F6029091DD
:100F3000F702A091F802B091F9023091F50223E096
:100F4000230F2D3758F50196A11DB11D2093F502F1
:100F50008093F6029093F702A093F802B093F902FF
:100F60008091FA029091FB02A091FC02B091FD02E7
:100F70000196A11DB11D8093FA029093FB02A093EC
:100F8000FC02B093FD02BF91AF919F918F913F9171
:100F90002F910F900FBE0F901F90189526E8230FEA
:100FA0000296A11DB11DD2CF1F920F920FB60F92C4
:100FB00011240BB60F922F933F934F935F936F9330
:100FC0007F938F939F93AF93BF93EF93FF93809102
:100FD000B900887F803609F44CC008F03FC08832E1
:100FE00009F4A8C028F5803109F49CC0C8F488230E
:100FF00009F4FAC0883009F495C0FF91EF91BF91D0
:10100000AF919F918F917F916F915F914F913F91A0
:101010002F910F900BBE0F900FBE0F901F90189541
:10102000883109F487C0803241F78093480314C0A7
:10103000803409F49CC040F48033B9F38833E9F676
:101040008093480385ECAFC0803509F484C08835AF
:1010500009F495C0883489F6D6DBCFCF883909F4F6
:101060008CC038F5883729F050F4883611F0803775
:1010700021F683E080934A031092F40257C0883827
:1010800009F47BC0803919F0803809F0B6CF80911F
:10109000F402803208F071C0E091F40281E08E0F1A
:1010A0008093F4028091BB00F0E0EC52FD4F80830E
:1010B0003DC0803B39F0E0F4803A09F479C0883AC9
:1010C00009F09BCF84E080934A031092D3021092E0
:1010D000D202E0910003F091010319958091D202B0
:1010E00081110FC081E08093D2021092B20209C038
:1010F000803C09F4A7CF883C09F4A4CF883B09F0D1
:101100007CCFE091D30281E08E0F8093D302F0E098
:10111000EE54FD4F80818093BB009091D30280916B
:10112000D20229C0809125038093BB0085EC809377
:10113000BC0063CF9091470380914603981758F500
:10114000E091470381E08E0F80934703F0E0EA5D72
:10115000FC4F8081E9CFE091470381E08E0F8093BF
:1011600047038091BB00F0E0EA5DFC4F80839091E3
:101170004703809146039817C8F285E8D8CFE091DD
:10118000470381E08E0F809347038091BB00F0E01E
:10119000EA5DFC4F80838091490381115DCF81E03E
:1011A0008093240384EA8093BC0010924A0325CFE5
:1011B00085EC8093BC0010924A038091F402803247
:1011C00030F4E091F402F0E0EC52FD4F10826091B7
:1011D000F40270E0E091FE02F091FF0284ED92E0F3
:1011E00019951092F40209CF1092480335CFEFE61B
:1011F000F3E01382128248EE53E060E070E0448333
:101200005583668377838AE092E09183808385ECBF
:1012100090E09587848784EC90E09787868780ECC0
:1012200090E0918B808B81EC90E0938B828B82ECB1
:1012300090E0958B848B86EC90E0978B868B118E5B
:10124000128E138E148EACE0B4E013961C921E9294
:10125000129714964D935D936D937C9317978CE141
:1012600092E011969C938E93E8E1F4E08EE292E096
:101270009183808347E350E060E070E046835783CA
:101280006087718788E28383B583A4830895CF93B1
:10129000DF93CDB7DEB7A4970FB6F894DEBF0FBECD
:1012A000CDBF789484B5826084BD84B5816084BDEF
:1012B00085B5826085BD85B5816085BD80916E00F4
:1012C000816080936E001092810080918100826025
:1012D0008093810080918100816080938100809162
:1012E00080008160809380008091B1008460809351
:1012F000B1008091B00081608093B0008091910036
:101300008260809391008091910081608093910030
:10131000809190008160809390008091A100826014
:101320008093A1008091A10081608093A1008091B1
:10133000A00081608093A000809121018260809351
:101340002101809121018160809321018091200100
:1013500081608093200180917A00846080937A007C
:1013600080917A00826080937A0080917A00816017
:1013700080937A0080917A00806880937A0010923E
:10138000C100E0917F03F091800382E08083E091CF
:101390007B03F0917C031082E0917D03F0917E034A
:1013A00080E1808310928703E0918303F0918403AE
:1013B00086E08083E0918103F091820380818061E7
:1013C0008083E0918103F091820380818860808333
:1013D000E0918103F0918203808180688083E091B5
:1013E0008103F091820380818F7D80838EE492E07F
:1013F00010DB8AE392E00DDB1092030310920203EC
:1014000010924C0310926E0310924A0381E0809375
:1014100049031092240384E10E94E60185E10E94C1
:10142000E6018091B9008E7F8093B9008091B90068
:101430008D7F8093B90088E48093B80085E4809321
:10144000BC008DE692E090930103809300038EE64A
:1014500092E09093FF028093FE02E7DA803A61F017
:1014600068EE73E080E090E08FD9DFDA803A21F017
:1014700086E692E080DAFFCF90E080E0B5D960E2C6
:101480008FE390E00E9478016EE170E080E090E0F0
:101490007BD9CBDA803A29F06AE070E080E090E016
:1014A000F7CF62E370E080E090E06ED960E08EE319
:1014B00090E00E9478016AE070E080E090E064D9FA
:1014C00060E087E090E00E94780160E08FE390E0C8
:1014D0000E9478016AE070E080E090E055D98CE0ED
:1014E00090E082D964E170E080E090E04DD968EE50
:1014F00073E080E090E048D9009122041091230429
:1015000090E080E071D969E170E080E090E03CD942
:1015100060E087E090E00E94780160E88FE390E06F
:101520000E9478016AE070E080E090E02DD9C80167
:101530005BD964E170E080E090E026D9BE016F5F86
:101540007F4F88E194E067DB83EA92E014DA6D89EB
:101550007E898F89988D44E095DA87EA92E00BDAEC
:10156000698D7A8D8B8D9C8D44E08CDA8CEA92E0CB
:1015700002DA6D8D7E8D8F8D98A144E083DA8AE347
:1015800092E047DA64E670E080E090E0FDD8A7D80A
:10159000D5CF5058BB27AA270ED070C161D130F0EB
:1015A00066D120F031F49F3F11F41EF456C10EF4C1
:1015B000E095E7FB4CC1E92F72D180F3BA176207BF
:1015C00073078407950718F071F49EF58AC10EF42D
:1015D000E0950B2EBA2FA02D0B01B90190010C0143
:1015E000CA01A0011124FF27591B99F0593F50F45B
:1015F000503E68F11A16F040A22F232F342F4427B3
:10160000585FF3CF469537952795A795F0405395AA
:10161000C9F77EF41F16BA0B620B730B840BBAF07A
:101620009150A1F0FF0FBB1F661F771F881FC2F7E5
:101630000EC0BA0F621F731F841F48F487957795F9
:101640006795B795F7959E3F08F0B3CF9395880FB0
:1016500008F09927EE0F979587950895D4D008F450
:1016600081E008950CD00AC102D140F0F9D030F0E9
:1016700021F45F3F19F0EBC0511134C1EEC00FD11E
:1016800098F39923C9F35523B1F3951B550BBB2749
:10169000AA2762177307840738F09F5F5F4F220FF6
:1016A000331F441FAA1FA9F333D00E2E3AF0E0E8EF
:1016B00030D091505040E695001CCAF729D0FE2F3B
:1016C00027D0660F771F881FBB1F261737074807CD
:1016D000AB07B0E809F0BB0B802DBF01FF27935883
:1016E0005F4F2AF09E3F510568F0B1C0FBC05F3FDD
:1016F000ECF3983EDCF3869577956795B795F7956B
:101700009F5FC9F7880F911D9695879597F9089562
:10171000E1E0660F771F881FBB1F621773078407FE
:10172000BA0720F0621B730B840BBA0BEE1F88F70D
:10173000E0950895BCD088F09F5790F0B92F992775
:10174000B751A0F0D1F0660F771F881F991F1AF0CC
:10175000BA95C9F712C0B13081F0C3D0B1E0089595
:10176000C0C0672F782F8827B85F39F0B93FCCF316
:10177000869577956795B395D9F73EF490958095C2
:10178000709561957F4F8F4F9F4F0895E89409C0E2
:1017900097FB3EF490958095709561957F4F8F4FA4
:1017A0009F4F9923A9F0F92F96E9BB279395F695BA
:1017B000879577956795B795F111F8CFFAF4BB0F38
:1017C00011F460FF1BC06F5F7F4F8F4F9F4F16C09C
:1017D000882311F096E911C0772321F09EE8872F26
:1017E000762F05C0662371F096E8862F70E060E0E2
:1017F0002AF09A95660F771F881FDAF7880F96955B
:10180000879597F90895990F0008550FAA0BE0E8FE
:10181000FEEF16161706E807F907C0F012161306B2
:10182000E407F50798F0621B730B840B950B39F4F2
:101830000A2661F0232B242B252B21F408950A2658
:1018400009F4A140A6958FEF811D811D089597F998
:101850009F6780E870E060E008959FEF80EC089556
:1018600000240A941616170618060906089500247F
:101870000A9412161306140605060895092E0394F9
:10188000000C11F4882352F0BB0F40F4BF2B11F46D
:1018900060FF04C06F5F7F4F8F4F9F4F089557FDCC
:1018A0009058440F551F59F05F3F71F04795880FCE
:1018B00097FB991F61F09F3F79F087950895121665
:1018C00013061406551FF2CF4695F1DF08C0161611
:1018D00017061806991FF1CF8695710561050894C2
:1018E0000895E894BB2766277727CB0197F90895D9
:1018F0008ADF08F48FEF08950BD0C0CFB1DF28F056
:10190000B6DF18F0952309F0A2CFA7CF1124EACFB4
:10191000C6DFA0F3959FD1F3950F50E0551F629F4E
:10192000F001729FBB27F00DB11D639FAA27F00D38
:10193000B11DAA1F649F6627B00DA11D661F829F5F
:101940002227B00DA11D621F739FB00DA11D621F44
:10195000839FA00D611D221F749F3327A00D611D61
:10196000231F849F600D211D822F762F6A2F112443
:101970009F5750408AF0E1F088234AF0EE0FFF1F96
:10198000BB1F661F771F881F91505040A9F79E3FCD
:10199000510570F05CCFA6CF5F3FECF3983EDCF3CF
:1019A000869577956795B795F795E7959F5FC1F70A
:1019B000FE2B880F911D9695879597F9089523DF43
:1019C000880B990B0895A1E21A2EAA1BBB1BFD01DF
:1019D0000DC0AA1FBB1FEE1FFF1FA217B307E4070E
:1019E000F50720F0A21BB30BE40BF50B661F771F66
:1019F000881F991F1A9469F7609570958095909546
:101A00009B01AC01BD01CF010895EE0FFF1F881FA0
:101A10008BBF0790F691E02D19940F931F93CF93EE
:101A2000DF938230910510F482E090E0E09126048B
:101A3000F091270430E020E0B0E0A0E0309799F486
:101A40002115310509F44AC0281B390B2430310512
:101A5000D8F58A819B816115710589F1FB0193831A
:101A60008283FE0111C04081518102811381481798
:101A70005907E0F04817590799F4109761F012964A
:101A80000C93129713961C933296CF01DF91CF914E
:101A90001F910F9108950093260410932704F4CF0B
:101AA0002115310551F04217530738F0A901DB0128
:101AB0009A01BD01DF01F801C1CFEF01F9CF909389
:101AC000270480932604CDCFFE01E20FF31F8193FC
:101AD00091932250310939832883D7CF2091240450
:101AE00030912504232B41F420910202309103020E
:101AF00030932504209324042091000230910102A8
:101B00002115310541F42DB73EB7409104025091A3
:101B10000502241B350BE0912404F0912504E21703
:101B2000F307A0F42E1B3F0B2817390778F0AC0100
:101B30004E5F5F4F2417350748F04E0F5F1F5093DD
:101B4000250440932404819391939FCFF0E0E0E03B
:101B50009CCFCF93DF930097E9F0FC01329713827B
:101B60001282A0912604B0912704ED0130E020E01C
:101B70001097A1F420813181820F931F20912404BA
:101B8000309125042817390709F061C0F093250426
:101B9000E0932404DF91CF910895EA01CE17DF0787
:101BA000E8F54A815B819E0141155105B1F7E901D4
:101BB000FB83EA8349915991C40FD51FEC17FD07A8
:101BC00061F4808191810296840F951FE9019983C8
:101BD0008883828193819B838A83F0E0E0E0129680
:101BE0008D919C9113970097B9F52D913C91119788
:101BF000CD010296820F931F209124043091250479
:101C00002817390739F6309751F5109227041092AA
:101C10002604B0932504A0932404BCCFD383C283AD
:101C200040815181840F951FC817D90761F44E5F19
:101C30005F4F88819981480F591F518340838A8162
:101C40009B81938382832115310509F0B0CFF093F6
:101C50002704E09326049ECFFD01DC01C0CF138250
:101C60001282D7CFFB01DC014150504048F0019077
:101C70000D920020C9F701C01D9241505040E0F77D
:061C80000895F894FFCF67
:101C86000000280480000000000004036F029C028C
:101C96005003CD02AB02BF02000000008A045E04BE
:101CA600B804340457044404350400000000010459
:101CB6000A0602040B06E7060D0A006E616E00694D
:101CC6006E66006F766600424E4F303535004F72B5
:101CD60069656E746174696F6E2053656E736F7299
:101CE6002054657374004F6F6F70732C206E6F20D5
:101CF600424E4F30353520646574656374656420E3
:101D06002E2E2E20436865636B20796F75722077BF
:101D16006972696E67206F722049324320414444DC
:101D2600522100583A200009593A2000095A3A200F
:021D36000000AB
:00000001FF
